{
  "contracts/governance/GovernorOHMegaDelegate.sol": {
    "GovernorOHMegaDelegate": {
      "abi": [
        {
          "anonymous": false,
          "inputs": [
            {
              "indexed": false,
              "internalType": "address",
              "name": "oldAdmin",
              "type": "address"
            },
            {
              "indexed": false,
              "internalType": "address",
              "name": "newAdmin",
              "type": "address"
            }
          ],
          "name": "NewAdmin",
          "type": "event"
        },
        {
          "anonymous": false,
          "inputs": [
            {
              "indexed": false,
              "internalType": "address",
              "name": "oldImplementation",
              "type": "address"
            },
            {
              "indexed": false,
              "internalType": "address",
              "name": "newImplementation",
              "type": "address"
            }
          ],
          "name": "NewImplementation",
          "type": "event"
        },
        {
          "anonymous": false,
          "inputs": [
            {
              "indexed": false,
              "internalType": "address",
              "name": "oldPendingAdmin",
              "type": "address"
            },
            {
              "indexed": false,
              "internalType": "address",
              "name": "newPendingAdmin",
              "type": "address"
            }
          ],
          "name": "NewPendingAdmin",
          "type": "event"
        },
        {
          "anonymous": false,
          "inputs": [
            {
              "indexed": false,
              "internalType": "uint256",
              "name": "id",
              "type": "uint256"
            }
          ],
          "name": "ProposalCanceled",
          "type": "event"
        },
        {
          "anonymous": false,
          "inputs": [
            {
              "indexed": false,
              "internalType": "uint256",
              "name": "id",
              "type": "uint256"
            },
            {
              "indexed": false,
              "internalType": "address",
              "name": "proposer",
              "type": "address"
            },
            {
              "indexed": false,
              "internalType": "address[]",
              "name": "targets",
              "type": "address[]"
            },
            {
              "indexed": false,
              "internalType": "uint256[]",
              "name": "values",
              "type": "uint256[]"
            },
            {
              "indexed": false,
              "internalType": "string[]",
              "name": "signatures",
              "type": "string[]"
            },
            {
              "indexed": false,
              "internalType": "bytes[]",
              "name": "calldatas",
              "type": "bytes[]"
            },
            {
              "indexed": false,
              "internalType": "uint256",
              "name": "startBlock",
              "type": "uint256"
            },
            {
              "indexed": false,
              "internalType": "uint256",
              "name": "endBlock",
              "type": "uint256"
            },
            {
              "indexed": false,
              "internalType": "uint256",
              "name": "votesNeeded",
              "type": "uint256"
            },
            {
              "indexed": false,
              "internalType": "string",
              "name": "description",
              "type": "string"
            }
          ],
          "name": "ProposalCreated",
          "type": "event"
        },
        {
          "anonymous": false,
          "inputs": [
            {
              "indexed": false,
              "internalType": "uint256",
              "name": "id",
              "type": "uint256"
            }
          ],
          "name": "ProposalExecuted",
          "type": "event"
        },
        {
          "anonymous": false,
          "inputs": [
            {
              "indexed": false,
              "internalType": "uint256",
              "name": "id",
              "type": "uint256"
            },
            {
              "indexed": false,
              "internalType": "uint256",
              "name": "eta",
              "type": "uint256"
            }
          ],
          "name": "ProposalQueued",
          "type": "event"
        },
        {
          "anonymous": false,
          "inputs": [
            {
              "indexed": false,
              "internalType": "uint256",
              "name": "oldProposalThreshold",
              "type": "uint256"
            },
            {
              "indexed": false,
              "internalType": "uint256",
              "name": "newProposalThreshold",
              "type": "uint256"
            }
          ],
          "name": "ProposalThresholdSet",
          "type": "event"
        },
        {
          "anonymous": false,
          "inputs": [
            {
              "indexed": true,
              "internalType": "address",
              "name": "voter",
              "type": "address"
            },
            {
              "indexed": false,
              "internalType": "uint256",
              "name": "proposalId",
              "type": "uint256"
            },
            {
              "indexed": false,
              "internalType": "uint8",
              "name": "support",
              "type": "uint8"
            },
            {
              "indexed": false,
              "internalType": "uint256",
              "name": "votes",
              "type": "uint256"
            },
            {
              "indexed": false,
              "internalType": "string",
              "name": "reason",
              "type": "string"
            }
          ],
          "name": "VoteCast",
          "type": "event"
        },
        {
          "anonymous": false,
          "inputs": [
            {
              "indexed": false,
              "internalType": "uint256",
              "name": "oldVotingDelay",
              "type": "uint256"
            },
            {
              "indexed": false,
              "internalType": "uint256",
              "name": "newVotingDelay",
              "type": "uint256"
            }
          ],
          "name": "VotingDelaySet",
          "type": "event"
        },
        {
          "anonymous": false,
          "inputs": [
            {
              "indexed": false,
              "internalType": "uint256",
              "name": "oldVotingPeriod",
              "type": "uint256"
            },
            {
              "indexed": false,
              "internalType": "uint256",
              "name": "newVotingPeriod",
              "type": "uint256"
            }
          ],
          "name": "VotingPeriodSet",
          "type": "event"
        },
        {
          "constant": true,
          "inputs": [],
          "name": "BALLOT_TYPEHASH",
          "outputs": [
            {
              "internalType": "bytes32",
              "name": "",
              "type": "bytes32"
            }
          ],
          "payable": false,
          "stateMutability": "view",
          "type": "function"
        },
        {
          "constant": true,
          "inputs": [],
          "name": "DOMAIN_TYPEHASH",
          "outputs": [
            {
              "internalType": "bytes32",
              "name": "",
              "type": "bytes32"
            }
          ],
          "payable": false,
          "stateMutability": "view",
          "type": "function"
        },
        {
          "constant": true,
          "inputs": [],
          "name": "MAX_PROPOSAL_THRESHOLDPERCENT",
          "outputs": [
            {
              "internalType": "uint256",
              "name": "",
              "type": "uint256"
            }
          ],
          "payable": false,
          "stateMutability": "view",
          "type": "function"
        },
        {
          "constant": true,
          "inputs": [],
          "name": "MAX_VOTING_DELAY",
          "outputs": [
            {
              "internalType": "uint256",
              "name": "",
              "type": "uint256"
            }
          ],
          "payable": false,
          "stateMutability": "view",
          "type": "function"
        },
        {
          "constant": true,
          "inputs": [],
          "name": "MAX_VOTING_PERIOD",
          "outputs": [
            {
              "internalType": "uint256",
              "name": "",
              "type": "uint256"
            }
          ],
          "payable": false,
          "stateMutability": "view",
          "type": "function"
        },
        {
          "constant": true,
          "inputs": [],
          "name": "MIN_PROPOSAL_THRESHOLDPERCENT",
          "outputs": [
            {
              "internalType": "uint256",
              "name": "",
              "type": "uint256"
            }
          ],
          "payable": false,
          "stateMutability": "view",
          "type": "function"
        },
        {
          "constant": true,
          "inputs": [],
          "name": "MIN_VOTING_DELAY",
          "outputs": [
            {
              "internalType": "uint256",
              "name": "",
              "type": "uint256"
            }
          ],
          "payable": false,
          "stateMutability": "view",
          "type": "function"
        },
        {
          "constant": true,
          "inputs": [],
          "name": "MIN_VOTING_PERIOD",
          "outputs": [
            {
              "internalType": "uint256",
              "name": "",
              "type": "uint256"
            }
          ],
          "payable": false,
          "stateMutability": "view",
          "type": "function"
        },
        {
          "constant": false,
          "inputs": [],
          "name": "_acceptAdmin",
          "outputs": [],
          "payable": false,
          "stateMutability": "nonpayable",
          "type": "function"
        },
        {
          "constant": false,
          "inputs": [
            {
              "internalType": "address",
              "name": "governorAlpha",
              "type": "address"
            }
          ],
          "name": "_initiate",
          "outputs": [],
          "payable": false,
          "stateMutability": "nonpayable",
          "type": "function"
        },
        {
          "constant": false,
          "inputs": [
            {
              "internalType": "address",
              "name": "newPendingAdmin",
              "type": "address"
            }
          ],
          "name": "_setPendingAdmin",
          "outputs": [],
          "payable": false,
          "stateMutability": "nonpayable",
          "type": "function"
        },
        {
          "constant": false,
          "inputs": [
            {
              "internalType": "uint256",
              "name": "newProposalThreshold",
              "type": "uint256"
            }
          ],
          "name": "_setProposalThreshold",
          "outputs": [],
          "payable": false,
          "stateMutability": "nonpayable",
          "type": "function"
        },
        {
          "constant": false,
          "inputs": [
            {
              "internalType": "uint256",
              "name": "newVotingDelay",
              "type": "uint256"
            }
          ],
          "name": "_setVotingDelay",
          "outputs": [],
          "payable": false,
          "stateMutability": "nonpayable",
          "type": "function"
        },
        {
          "constant": false,
          "inputs": [
            {
              "internalType": "uint256",
              "name": "newVotingPeriod",
              "type": "uint256"
            }
          ],
          "name": "_setVotingPeriod",
          "outputs": [],
          "payable": false,
          "stateMutability": "nonpayable",
          "type": "function"
        },
        {
          "constant": true,
          "inputs": [],
          "name": "admin",
          "outputs": [
            {
              "internalType": "address",
              "name": "",
              "type": "address"
            }
          ],
          "payable": false,
          "stateMutability": "view",
          "type": "function"
        },
        {
          "constant": false,
          "inputs": [
            {
              "internalType": "uint256",
              "name": "proposalId",
              "type": "uint256"
            }
          ],
          "name": "cancel",
          "outputs": [],
          "payable": false,
          "stateMutability": "nonpayable",
          "type": "function"
        },
        {
          "constant": false,
          "inputs": [
            {
              "internalType": "uint256",
              "name": "proposalId",
              "type": "uint256"
            },
            {
              "internalType": "uint8",
              "name": "support",
              "type": "uint8"
            }
          ],
          "name": "castVote",
          "outputs": [],
          "payable": false,
          "stateMutability": "nonpayable",
          "type": "function"
        },
        {
          "constant": false,
          "inputs": [
            {
              "internalType": "uint256",
              "name": "proposalId",
              "type": "uint256"
            },
            {
              "internalType": "uint8",
              "name": "support",
              "type": "uint8"
            },
            {
              "internalType": "uint8",
              "name": "v",
              "type": "uint8"
            },
            {
              "internalType": "bytes32",
              "name": "r",
              "type": "bytes32"
            },
            {
              "internalType": "bytes32",
              "name": "s",
              "type": "bytes32"
            }
          ],
          "name": "castVoteBySig",
          "outputs": [],
          "payable": false,
          "stateMutability": "nonpayable",
          "type": "function"
        },
        {
          "constant": false,
          "inputs": [
            {
              "internalType": "uint256",
              "name": "proposalId",
              "type": "uint256"
            },
            {
              "internalType": "uint8",
              "name": "support",
              "type": "uint8"
            },
            {
              "internalType": "string",
              "name": "reason",
              "type": "string"
            }
          ],
          "name": "castVoteWithReason",
          "outputs": [],
          "payable": false,
          "stateMutability": "nonpayable",
          "type": "function"
        },
        {
          "constant": false,
          "inputs": [
            {
              "internalType": "uint256",
              "name": "proposalId",
              "type": "uint256"
            }
          ],
          "name": "execute",
          "outputs": [],
          "payable": true,
          "stateMutability": "payable",
          "type": "function"
        },
        {
          "constant": true,
          "inputs": [],
          "name": "gOHM",
          "outputs": [
            {
              "internalType": "contract gOHMInterface",
              "name": "",
              "type": "address"
            }
          ],
          "payable": false,
          "stateMutability": "view",
          "type": "function"
        },
        {
          "constant": true,
          "inputs": [
            {
              "internalType": "uint256",
              "name": "proposalId",
              "type": "uint256"
            }
          ],
          "name": "getActions",
          "outputs": [
            {
              "internalType": "address[]",
              "name": "targets",
              "type": "address[]"
            },
            {
              "internalType": "uint256[]",
              "name": "values",
              "type": "uint256[]"
            },
            {
              "internalType": "string[]",
              "name": "signatures",
              "type": "string[]"
            },
            {
              "internalType": "bytes[]",
              "name": "calldatas",
              "type": "bytes[]"
            }
          ],
          "payable": false,
          "stateMutability": "view",
          "type": "function"
        },
        {
          "constant": true,
          "inputs": [
            {
              "internalType": "uint256",
              "name": "proposalId",
              "type": "uint256"
            },
            {
              "internalType": "address",
              "name": "voter",
              "type": "address"
            }
          ],
          "name": "getReceipt",
          "outputs": [
            {
              "components": [
                {
                  "internalType": "bool",
                  "name": "hasVoted",
                  "type": "bool"
                },
                {
                  "internalType": "uint8",
                  "name": "support",
                  "type": "uint8"
                },
                {
                  "internalType": "uint256",
                  "name": "votes",
                  "type": "uint256"
                }
              ],
              "internalType": "struct GovernorOHMegaDelegateStorageV1.Receipt",
              "name": "",
              "type": "tuple"
            }
          ],
          "payable": false,
          "stateMutability": "view",
          "type": "function"
        },
        {
          "constant": true,
          "inputs": [
            {
              "internalType": "uint256",
              "name": "percent",
              "type": "uint256"
            }
          ],
          "name": "getVotesFromPercentOfsOHMSupply",
          "outputs": [
            {
              "internalType": "uint256",
              "name": "votes",
              "type": "uint256"
            }
          ],
          "payable": false,
          "stateMutability": "view",
          "type": "function"
        },
        {
          "constant": true,
          "inputs": [],
          "name": "implementation",
          "outputs": [
            {
              "internalType": "address",
              "name": "",
              "type": "address"
            }
          ],
          "payable": false,
          "stateMutability": "view",
          "type": "function"
        },
        {
          "constant": true,
          "inputs": [],
          "name": "initialProposalId",
          "outputs": [
            {
              "internalType": "uint256",
              "name": "",
              "type": "uint256"
            }
          ],
          "payable": false,
          "stateMutability": "view",
          "type": "function"
        },
        {
          "constant": false,
          "inputs": [
            {
              "internalType": "address",
              "name": "timelock_",
              "type": "address"
            },
            {
              "internalType": "address",
              "name": "sOHM_",
              "type": "address"
            },
            {
              "internalType": "address",
              "name": "gOHM_",
              "type": "address"
            },
            {
              "internalType": "uint256",
              "name": "votingPeriod_",
              "type": "uint256"
            },
            {
              "internalType": "uint256",
              "name": "votingDelay_",
              "type": "uint256"
            },
            {
              "internalType": "uint256",
              "name": "proposalThreshold_",
              "type": "uint256"
            }
          ],
          "name": "initialize",
          "outputs": [],
          "payable": false,
          "stateMutability": "nonpayable",
          "type": "function"
        },
        {
          "constant": true,
          "inputs": [
            {
              "internalType": "address",
              "name": "",
              "type": "address"
            }
          ],
          "name": "latestProposalIds",
          "outputs": [
            {
              "internalType": "uint256",
              "name": "",
              "type": "uint256"
            }
          ],
          "payable": false,
          "stateMutability": "view",
          "type": "function"
        },
        {
          "constant": true,
          "inputs": [],
          "name": "name",
          "outputs": [
            {
              "internalType": "string",
              "name": "",
              "type": "string"
            }
          ],
          "payable": false,
          "stateMutability": "view",
          "type": "function"
        },
        {
          "constant": true,
          "inputs": [],
          "name": "pendingAdmin",
          "outputs": [
            {
              "internalType": "address",
              "name": "",
              "type": "address"
            }
          ],
          "payable": false,
          "stateMutability": "view",
          "type": "function"
        },
        {
          "constant": true,
          "inputs": [],
          "name": "proposalCount",
          "outputs": [
            {
              "internalType": "uint256",
              "name": "",
              "type": "uint256"
            }
          ],
          "payable": false,
          "stateMutability": "view",
          "type": "function"
        },
        {
          "constant": true,
          "inputs": [],
          "name": "proposalMaxOperations",
          "outputs": [
            {
              "internalType": "uint256",
              "name": "",
              "type": "uint256"
            }
          ],
          "payable": false,
          "stateMutability": "view",
          "type": "function"
        },
        {
          "constant": true,
          "inputs": [],
          "name": "proposalThreshold",
          "outputs": [
            {
              "internalType": "uint256",
              "name": "",
              "type": "uint256"
            }
          ],
          "payable": false,
          "stateMutability": "view",
          "type": "function"
        },
        {
          "constant": true,
          "inputs": [
            {
              "internalType": "uint256",
              "name": "",
              "type": "uint256"
            }
          ],
          "name": "proposals",
          "outputs": [
            {
              "internalType": "uint256",
              "name": "id",
              "type": "uint256"
            },
            {
              "internalType": "address",
              "name": "proposer",
              "type": "address"
            },
            {
              "internalType": "uint256",
              "name": "eta",
              "type": "uint256"
            },
            {
              "internalType": "uint256",
              "name": "startBlock",
              "type": "uint256"
            },
            {
              "internalType": "uint256",
              "name": "endBlock",
              "type": "uint256"
            },
            {
              "internalType": "uint256",
              "name": "forVotes",
              "type": "uint256"
            },
            {
              "internalType": "uint256",
              "name": "againstVotes",
              "type": "uint256"
            },
            {
              "internalType": "uint256",
              "name": "abstainVotes",
              "type": "uint256"
            },
            {
              "internalType": "uint256",
              "name": "thresholdAtStart",
              "type": "uint256"
            },
            {
              "internalType": "uint256",
              "name": "votesNeeded",
              "type": "uint256"
            },
            {
              "internalType": "bool",
              "name": "canceled",
              "type": "bool"
            },
            {
              "internalType": "bool",
              "name": "executed",
              "type": "bool"
            }
          ],
          "payable": false,
          "stateMutability": "view",
          "type": "function"
        },
        {
          "constant": false,
          "inputs": [
            {
              "internalType": "address[]",
              "name": "targets",
              "type": "address[]"
            },
            {
              "internalType": "uint256[]",
              "name": "values",
              "type": "uint256[]"
            },
            {
              "internalType": "string[]",
              "name": "signatures",
              "type": "string[]"
            },
            {
              "internalType": "bytes[]",
              "name": "calldatas",
              "type": "bytes[]"
            },
            {
              "internalType": "string",
              "name": "description",
              "type": "string"
            }
          ],
          "name": "propose",
          "outputs": [
            {
              "internalType": "uint256",
              "name": "",
              "type": "uint256"
            }
          ],
          "payable": false,
          "stateMutability": "nonpayable",
          "type": "function"
        },
        {
          "constant": false,
          "inputs": [
            {
              "internalType": "uint256",
              "name": "proposalId",
              "type": "uint256"
            }
          ],
          "name": "queue",
          "outputs": [],
          "payable": false,
          "stateMutability": "nonpayable",
          "type": "function"
        },
        {
          "constant": true,
          "inputs": [],
          "name": "quorumPercent",
          "outputs": [
            {
              "internalType": "uint256",
              "name": "",
              "type": "uint256"
            }
          ],
          "payable": false,
          "stateMutability": "view",
          "type": "function"
        },
        {
          "constant": true,
          "inputs": [],
          "name": "sOHM",
          "outputs": [
            {
              "internalType": "contract sOHMInterface",
              "name": "",
              "type": "address"
            }
          ],
          "payable": false,
          "stateMutability": "view",
          "type": "function"
        },
        {
          "constant": true,
          "inputs": [
            {
              "internalType": "uint256",
              "name": "proposalId",
              "type": "uint256"
            }
          ],
          "name": "state",
          "outputs": [
            {
              "internalType": "enum GovernorOHMegaDelegateStorageV1.ProposalState",
              "name": "",
              "type": "uint8"
            }
          ],
          "payable": false,
          "stateMutability": "view",
          "type": "function"
        },
        {
          "constant": true,
          "inputs": [],
          "name": "timelock",
          "outputs": [
            {
              "internalType": "contract TimelockInterface",
              "name": "",
              "type": "address"
            }
          ],
          "payable": false,
          "stateMutability": "view",
          "type": "function"
        },
        {
          "constant": true,
          "inputs": [],
          "name": "votingDelay",
          "outputs": [
            {
              "internalType": "uint256",
              "name": "",
              "type": "uint256"
            }
          ],
          "payable": false,
          "stateMutability": "view",
          "type": "function"
        },
        {
          "constant": true,
          "inputs": [],
          "name": "votingPeriod",
          "outputs": [
            {
              "internalType": "uint256",
              "name": "",
              "type": "uint256"
            }
          ],
          "payable": false,
          "stateMutability": "view",
          "type": "function"
        }
      ],
      "evm": {
        "bytecode": {
          "linkReferences": {},
          "object": "608060405234801561001057600080fd5b50616c5280620000216000396000f3fe6080604052600436106102515760003560e01c80637b3c71d311610139578063da95691a116100b6578063e9c714f21161007a578063e9c714f2146108da578063f81cbd26146108f1578063f851a4401461091c578063f9d28b8014610947578063fc4eee4214610970578063fe0d94c11461099b57610251565b8063da95691a146107e1578063ddf0b0091461081e578063deaaa7cc14610847578063e23a9a5214610872578063e48083fe146108af57610251565b8063b58131b0116100fd578063b58131b01461070c578063b71d1a0c14610737578063c3b98d0714610760578063d33219b41461078b578063da35c664146107b657610251565b80637b3c71d3146106375780637bdbe4d014610660578063891df8731461068b578063a64e024a146106b6578063b1126263146106e157610251565b8063215809ca116101d25780633bccf4fd116101965780633bccf4fd1461052b5780633e4f49e61461055457806340e58ee51461059157806356781388146105ba5780635c60da1b146105e3578063728cdbca1461060e57610251565b8063215809ca1461042d57806326782247146104585780632811b07e14610483578063328dd982146104c05780633932abb11461050057610251565b80631507992511610219578063150799251461034857806317977c611461037357806317ba1b8b146103b05780631dfb1b5a146103d957806320606b701461040257610251565b8063013cf08b1461025657806302a251a31461029e57806306fdde03146102c95780630cd30585146102f45780630ea2d98c1461031f575b600080fd5b34801561026257600080fd5b5061027d600480360361027891908101906143ac565b6109b7565b6040516102959c9b9a9998979695949392919061658b565b60405180910390f35b3480156102aa57600080fd5b506102b3610a51565b6040516102c091906164b1565b60405180910390f35b3480156102d557600080fd5b506102de610a57565b6040516102eb9190615f94565b60405180910390f35b34801561030057600080fd5b50610309610a90565b6040516103169190615f43565b60405180910390f35b34801561032b57600080fd5b50610346600480360361034191908101906143ac565b610ab6565b005b34801561035457600080fd5b5061035d610be6565b60405161036a9190615f5e565b60405180910390f35b34801561037f57600080fd5b5061039a60048036036103959190810190614178565b610c0c565b6040516103a791906164b1565b60405180910390f35b3480156103bc57600080fd5b506103d760048036036103d291908101906143ac565b610c24565b005b3480156103e557600080fd5b5061040060048036036103fb91908101906143ac565b610d53565b005b34801561040e57600080fd5b50610417610e81565b6040516104249190615e4c565b60405180910390f35b34801561043957600080fd5b50610442610e98565b60405161044f91906164b1565b60405180910390f35b34801561046457600080fd5b5061046d610e9e565b60405161047a9190615c93565b60405180910390f35b34801561048f57600080fd5b506104aa60048036036104a591908101906143ac565b610ec4565b6040516104b791906164b1565b60405180910390f35b3480156104cc57600080fd5b506104e760048036036104e291908101906143ac565b61102c565b6040516104f79493929190615deb565b60405180910390f35b34801561050c57600080fd5b50610515611309565b60405161052291906164b1565b60405180910390f35b34801561053757600080fd5b50610552600480360361054d91908101906144e2565b61130f565b005b34801561056057600080fd5b5061057b600480360361057691908101906143ac565b61152f565b6040516105889190615f79565b60405180910390f35b34801561059d57600080fd5b506105b860048036036105b391908101906143ac565b611712565b005b3480156105c657600080fd5b506105e160048036036105dc919081019061443a565b611a9a565b005b3480156105ef57600080fd5b506105f8611afa565b6040516106059190615c93565b60405180910390f35b34801561061a57600080fd5b50610635600480360361063091908101906141a1565b611b20565b005b34801561064357600080fd5b5061065e60048036036106599190810190614476565b611f69565b005b34801561066c57600080fd5b50610675611fcf565b60405161068291906164b1565b60405180910390f35b34801561069757600080fd5b506106a0611fd4565b6040516106ad91906164b1565b60405180910390f35b3480156106c257600080fd5b506106cb611fda565b6040516106d891906164b1565b60405180910390f35b3480156106ed57600080fd5b506106f6611fe1565b60405161070391906164b1565b60405180910390f35b34801561071857600080fd5b50610721611fe7565b60405161072e91906164b1565b60405180910390f35b34801561074357600080fd5b5061075e60048036036107599190810190614178565b611fed565b005b34801561076c57600080fd5b50610775612121565b60405161078291906164b1565b60405180910390f35b34801561079757600080fd5b506107a0612127565b6040516107ad9190615f28565b60405180910390f35b3480156107c257600080fd5b506107cb61214d565b6040516107d891906164b1565b60405180910390f35b3480156107ed57600080fd5b506108086004803603610803919081019061422a565b612153565b60405161081591906164b1565b60405180910390f35b34801561082a57600080fd5b50610845600480360361084091908101906143ac565b612799565b005b34801561085357600080fd5b5061085c612ae9565b6040516108699190615e4c565b60405180910390f35b34801561087e57600080fd5b50610899600480360361089491908101906143fe565b612b00565b6040516108a69190616496565b60405180910390f35b3480156108bb57600080fd5b506108c4612bb0565b6040516108d191906164b1565b60405180910390f35b3480156108e657600080fd5b506108ef612bb5565b005b3480156108fd57600080fd5b50610906612e28565b60405161091391906164b1565b60405180910390f35b34801561092857600080fd5b50610931612e2e565b60405161093e9190615c93565b60405180910390f35b34801561095357600080fd5b5061096e60048036036109699190810190614178565b612e53565b005b34801561097c57600080fd5b5061098561303b565b60405161099291906164b1565b60405180910390f35b6109b560048036036109b091908101906143ac565b613041565b005b600b6020528060005260406000206000915090508060000154908060010160009054906101000a900473ffffffffffffffffffffffffffffffffffffffff169080600201549080600701549080600801549080600901549080600a01549080600b01549080600c01549080600d01549080600e0160009054906101000a900460ff169080600e0160019054906101000a900460ff1690508c565b60045481565b6040518060400160405280601781526020017f4f6c796d70757320476f7665726e6f72204f484d65676100000000000000000081525081565b600960009054906101000a900473ffffffffffffffffffffffffffffffffffffffff1681565b6000809054906101000a900473ffffffffffffffffffffffffffffffffffffffff1673ffffffffffffffffffffffffffffffffffffffff163373ffffffffffffffffffffffffffffffffffffffff1614610b45576040517f08c379a0000000000000000000000000000000000000000000000000000000008152600401610b3c90615fd6565b60405180910390fd5b6116808110158015610b5a575062013b008111155b610b99576040517f08c379a0000000000000000000000000000000000000000000000000000000008152600401610b9090616416565b60405180910390fd5b60006004549050816004819055507f7e3f7f0708a84de9203036abaa450dccc85ad5ff52f78c170f3edb55cf5e882881600454604051610bda929190616645565b60405180910390a15050565b600a60009054906101000a900473ffffffffffffffffffffffffffffffffffffffff1681565b600c6020528060005260406000206000915090505481565b6000809054906101000a900473ffffffffffffffffffffffffffffffffffffffff1673ffffffffffffffffffffffffffffffffffffffff163373ffffffffffffffffffffffffffffffffffffffff1614610cb3576040517f08c379a0000000000000000000000000000000000000000000000000000000008152600401610caa90616316565b60405180910390fd5b6113888110158015610cc757506127108111155b610d06576040517f08c379a0000000000000000000000000000000000000000000000000000000008152600401610cfd906162b6565b60405180910390fd5b60006005549050816005819055507fccb45da8d5717e6c4544694297c4ba5cf151d455c9bb0ed4fc7a38411bc0546181600554604051610d47929190616645565b60405180910390a15050565b6000809054906101000a900473ffffffffffffffffffffffffffffffffffffffff1673ffffffffffffffffffffffffffffffffffffffff163373ffffffffffffffffffffffffffffffffffffffff1614610de2576040517f08c379a0000000000000000000000000000000000000000000000000000000008152600401610dd990616116565b60405180910390fd5b60018110158015610df55750619d808111155b610e34576040517f08c379a0000000000000000000000000000000000000000000000000000000008152600401610e2b90616096565b60405180910390fd5b60006003549050816003819055507fc565b045403dc03c2eea82b81a0465edad9e2e7fc4d97e11421c209da93d7a9381600354604051610e75929190616645565b60405180910390a15050565b604051610e8d90615c7e565b604051809103902081565b61168081565b600160009054906101000a900473ffffffffffffffffffffffffffffffffffffffff1681565b6000600960009054906101000a900473ffffffffffffffffffffffffffffffffffffffff1673ffffffffffffffffffffffffffffffffffffffff166366a5236c610fb9610fb0600a60009054906101000a900473ffffffffffffffffffffffffffffffffffffffff1673ffffffffffffffffffffffffffffffffffffffff16639358928b6040518163ffffffff1660e01b815260040160206040518083038186803b158015610f7257600080fd5b505afa158015610f86573d6000803e3d6000fd5b505050506040513d601f19601f82011682018060405250610faa91908101906143d5565b8661328f565b620f42406132ff565b6040518263ffffffff1660e01b8152600401610fd591906164b1565b60206040518083038186803b158015610fed57600080fd5b505afa158015611001573d6000803e3d6000fd5b505050506040513d601f19601f8201168201806040525061102591908101906143d5565b9050919050565b6060806060806000600b6000878152602001908152602001600020905080600301816004018260050183600601838054806020026020016040519081016040528092919081815260200182805480156110da57602002820191906000526020600020905b8160009054906101000a900473ffffffffffffffffffffffffffffffffffffffff1673ffffffffffffffffffffffffffffffffffffffff1681526020019060010190808311611090575b505050505093508280548060200260200160405190810160405280929190818152602001828054801561112c57602002820191906000526020600020905b815481526020019060010190808311611118575b5050505050925081805480602002602001604051908101604052809291908181526020016000905b82821015611210578382906000526020600020018054600181600116156101000203166002900480601f0160208091040260200160405190810160405280929190818152602001828054600181600116156101000203166002900480156111fc5780601f106111d1576101008083540402835291602001916111fc565b820191906000526020600020905b8154815290600101906020018083116111df57829003601f168201915b505050505081526020019060010190611154565b50505050915080805480602002602001604051908101604052809291908181526020016000905b828210156112f3578382906000526020600020018054600181600116156101000203166002900480601f0160208091040260200160405190810160405280929190818152602001828054600181600116156101000203166002900480156112df5780601f106112b4576101008083540402835291602001916112df565b820191906000526020600020905b8154815290600101906020018083116112c257829003601f168201915b505050505081526020019060010190611237565b5050505090509450945094509450509193509193565b60035481565b600060405161131d90615c7e565b60405180910390206040518060400160405280601781526020017f4f6c796d70757320476f7665726e6f72204f484d6567610000000000000000008152508051906020012061136a61335b565b3060405160200161137e9493929190615e67565b60405160208183030381529060405280519060200120905060006040516113a490615c32565b604051809103902087876040516020016113c093929190615eac565b604051602081830303815290604052805190602001209050600082826040516020016113ed929190615c47565b60405160208183030381529060405280519060200120905060006001828888886040516000815260200160405260405161142a9493929190615ee3565b6020604051602081039080840390855afa15801561144c573d6000803e3d6000fd5b505050602060405103519050600073ffffffffffffffffffffffffffffffffffffffff168173ffffffffffffffffffffffffffffffffffffffff1614156114c8576040517f08c379a00000000000000000000000000000000000000000000000000000000081526004016114bf906162d6565b60405180910390fd5b8073ffffffffffffffffffffffffffffffffffffffff167fb8e138887d0aa13bab447e82de9d5c1777041ecd21ca36ba824ff1e6c07ddda48a8a61150d858e8e613368565b60405161151c939291906166bc565b60405180910390a2505050505050505050565b60008160075410158015611544575060065482115b611583576040517f08c379a000000000000000000000000000000000000000000000000000000000815260040161157a90616336565b60405180910390fd5b6000600b6000848152602001908152602001600020905080600e0160009054906101000a900460ff16156115bb57600291505061170d565b806007015443116115d057600091505061170d565b806008015443116115e557600191505061170d565b80600a01548160090154111580611603575080600d01548160090154105b1561161257600391505061170d565b60008160020154141561162957600491505061170d565b80600e0160019054906101000a900460ff161561164a57600791505061170d565b6116f78160020154600860009054906101000a900473ffffffffffffffffffffffffffffffffffffffff1673ffffffffffffffffffffffffffffffffffffffff1663c1a287e26040518163ffffffff1660e01b815260040160206040518083038186803b1580156116ba57600080fd5b505afa1580156116ce573d6000803e3d6000fd5b505050506040513d601f19601f820116820180604052506116f291908101906143d5565b61363e565b421061170757600691505061170d565b60059150505b919050565b60078081111561171e57fe5b6117278261152f565b600781111561173257fe5b1415611773576040517f08c379a000000000000000000000000000000000000000000000000000000000815260040161176a90616136565b60405180910390fd5b6000600b600083815260200190815260200160002090508060010160009054906101000a900473ffffffffffffffffffffffffffffffffffffffff1673ffffffffffffffffffffffffffffffffffffffff163373ffffffffffffffffffffffffffffffffffffffff1614806118c5575080600c0154600960009054906101000a900473ffffffffffffffffffffffffffffffffffffffff1673ffffffffffffffffffffffffffffffffffffffff1663782d6fe18360010160009054906101000a900473ffffffffffffffffffffffffffffffffffffffff16611856436001613693565b6040518363ffffffff1660e01b8152600401611873929190615d00565b60206040518083038186803b15801561188b57600080fd5b505afa15801561189f573d6000803e3d6000fd5b505050506040513d601f19601f820116820180604052506118c391908101906143d5565b105b611904576040517f08c379a00000000000000000000000000000000000000000000000000000000081526004016118fb906161b6565b60405180910390fd5b600181600e0160006101000a81548160ff02191690831515021790555060008090505b8160030180549050811015611a5e57600860009054906101000a900473ffffffffffffffffffffffffffffffffffffffff1673ffffffffffffffffffffffffffffffffffffffff1663591fcdfe83600301838154811061198357fe5b9060005260206000200160009054906101000a900473ffffffffffffffffffffffffffffffffffffffff168460040184815481106119bd57fe5b90600052602060002001548560050185815481106119d757fe5b906000526020600020018660060186815481106119f057fe5b9060005260206000200187600201546040518663ffffffff1660e01b8152600401611a1f959493929190615d8a565b600060405180830381600087803b158015611a3957600080fd5b505af1158015611a4d573d6000803e3d6000fd5b505050508080600101915050611927565b507f789cf55be980739dad1d0699b93b58e806b51c9d96619bfa8fe0a28abaa7b30c82604051611a8e91906164b1565b60405180910390a15050565b3373ffffffffffffffffffffffffffffffffffffffff167fb8e138887d0aa13bab447e82de9d5c1777041ecd21ca36ba824ff1e6c07ddda48383611adf338787613368565b604051611aee939291906166bc565b60405180910390a25050565b600260009054906101000a900473ffffffffffffffffffffffffffffffffffffffff1681565b600073ffffffffffffffffffffffffffffffffffffffff16600860009054906101000a900473ffffffffffffffffffffffffffffffffffffffff1673ffffffffffffffffffffffffffffffffffffffff1614611bb1576040517f08c379a0000000000000000000000000000000000000000000000000000000008152600401611ba890616216565b60405180910390fd5b6000809054906101000a900473ffffffffffffffffffffffffffffffffffffffff1673ffffffffffffffffffffffffffffffffffffffff163373ffffffffffffffffffffffffffffffffffffffff1614611c40576040517f08c379a0000000000000000000000000000000000000000000000000000000008152600401611c37906163d6565b60405180910390fd5b600073ffffffffffffffffffffffffffffffffffffffff168673ffffffffffffffffffffffffffffffffffffffff161415611cb0576040517f08c379a0000000000000000000000000000000000000000000000000000000008152600401611ca790616256565b60405180910390fd5b600073ffffffffffffffffffffffffffffffffffffffff168573ffffffffffffffffffffffffffffffffffffffff161415611d20576040517f08c379a0000000000000000000000000000000000000000000000000000000008152600401611d17906161d6565b60405180910390fd5b600073ffffffffffffffffffffffffffffffffffffffff168473ffffffffffffffffffffffffffffffffffffffff161415611d90576040517f08c379a0000000000000000000000000000000000000000000000000000000008152600401611d8790615fb6565b60405180910390fd5b6116808310158015611da5575062013b008311155b611de4576040517f08c379a0000000000000000000000000000000000000000000000000000000008152600401611ddb90616296565b60405180910390fd5b60018210158015611df75750619d808211155b611e36576040517f08c379a0000000000000000000000000000000000000000000000000000000008152600401611e2d90616056565b60405180910390fd5b6113888110158015611e4a57506127108111155b611e89576040517f08c379a0000000000000000000000000000000000000000000000000000000008152600401611e8090616456565b60405180910390fd5b85600860006101000a81548173ffffffffffffffffffffffffffffffffffffffff021916908373ffffffffffffffffffffffffffffffffffffffff16021790555084600a60006101000a81548173ffffffffffffffffffffffffffffffffffffffff021916908373ffffffffffffffffffffffffffffffffffffffff16021790555083600960006101000a81548173ffffffffffffffffffffffffffffffffffffffff021916908373ffffffffffffffffffffffffffffffffffffffff160217905550826004819055508160038190555080600581905550505050505050565b3373ffffffffffffffffffffffffffffffffffffffff167fb8e138887d0aa13bab447e82de9d5c1777041ecd21ca36ba824ff1e6c07ddda48585611fae338989613368565b8686604051611fc195949392919061666e565b60405180910390a250505050565b600a81565b61271081565b62013b0081565b619d8081565b60055481565b6000809054906101000a900473ffffffffffffffffffffffffffffffffffffffff1673ffffffffffffffffffffffffffffffffffffffff163373ffffffffffffffffffffffffffffffffffffffff161461207c576040517f08c379a0000000000000000000000000000000000000000000000000000000008152600401612073906160d6565b60405180910390fd5b6000600160009054906101000a900473ffffffffffffffffffffffffffffffffffffffff16905081600160006101000a81548173ffffffffffffffffffffffffffffffffffffffff021916908373ffffffffffffffffffffffffffffffffffffffff1602179055507fca4f2f25d0898edd99413412fb94012f9e54ec8142f9b093e7720646a95b16a98183604051612115929190615cd7565b60405180910390a15050565b61138881565b600860009054906101000a900473ffffffffffffffffffffffffffffffffffffffff1681565b60075481565b600080600654141561219a576040517f08c379a0000000000000000000000000000000000000000000000000000000008152600401612191906160f6565b60405180910390fd5b6121a5600554610ec4565b600960009054906101000a900473ffffffffffffffffffffffffffffffffffffffff1673ffffffffffffffffffffffffffffffffffffffff1663782d6fe1336121ef436001613693565b6040518363ffffffff1660e01b815260040161220c929190615cae565b60206040518083038186803b15801561222457600080fd5b505afa158015612238573d6000803e3d6000fd5b505050506040513d601f19601f8201168201806040525061225c91908101906143d5565b1161229c576040517f08c379a000000000000000000000000000000000000000000000000000000000815260040161229390616016565b60405180910390fd5b845186511480156122ae575083518651145b80156122bb575082518651145b6122fa576040517f08c379a00000000000000000000000000000000000000000000000000000000081526004016122f190616196565b60405180910390fd5b60008651141561233f576040517f08c379a000000000000000000000000000000000000000000000000000000000815260040161233690616376565b60405180910390fd5b600a86511115612384576040517f08c379a000000000000000000000000000000000000000000000000000000000815260040161237b90616176565b60405180910390fd5b6000600c60003373ffffffffffffffffffffffffffffffffffffffff1673ffffffffffffffffffffffffffffffffffffffff168152602001908152602001600020549050600081146124935760006123db8261152f565b9050600160078111156123ea57fe5b8160078111156123f657fe5b1415612437576040517f08c379a000000000000000000000000000000000000000000000000000000000815260040161242e906163f6565b60405180910390fd5b6000600781111561244457fe5b81600781111561245057fe5b1415612491576040517f08c379a0000000000000000000000000000000000000000000000000000000008152600401612488906160b6565b60405180910390fd5b505b60006124a14360035461363e565b905060006124b18260045461363e565b90506007600081548092919060010191905055506124cd6138b9565b60405180610200016040528060075481526020013373ffffffffffffffffffffffffffffffffffffffff168152602001600081526020018b81526020018a8152602001898152602001888152602001848152602001838152602001600081526020016000815260200160008152602001612548600554610ec4565b8152602001612558619c40610ec4565b815260200160001515815260200160001515815250905080600b6000836000015181526020019081526020016000206000820151816000015560208201518160010160006101000a81548173ffffffffffffffffffffffffffffffffffffffff021916908373ffffffffffffffffffffffffffffffffffffffff1602179055506040820151816002015560608201518160030190805190602001906125fe929190613950565b50608082015181600401908051906020019061261b9291906139da565b5060a0820151816005019080519060200190612638929190613a27565b5060c0820151816006019080519060200190612655929190613a87565b5060e082015181600701556101008201518160080155610120820151816009015561014082015181600a015561016082015181600b015561018082015181600c01556101a082015181600d01556101c082015181600e0160006101000a81548160ff0219169083151502179055506101e082015181600e0160016101000a81548160ff0219169083151502179055509050508060000151600c6000836020015173ffffffffffffffffffffffffffffffffffffffff1673ffffffffffffffffffffffffffffffffffffffff168152602001908152602001600020819055507f5f3f8da802ee6afde8d4395e43c640a216eed19aa3e90c7eda8ce88cb2954c4d8160000151338c8c8c8c8989896101a001518f60405161277d9a999897969594939291906164cc565b60405180910390a1806000015194505050505095945050505050565b600460078111156127a657fe5b6127af8261152f565b60078111156127ba57fe5b146127fa576040517f08c379a00000000000000000000000000000000000000000000000000000000081526004016127f190616036565b60405180910390fd5b6000600b6000838152602001908152602001600020905060006128bc42600860009054906101000a900473ffffffffffffffffffffffffffffffffffffffff1673ffffffffffffffffffffffffffffffffffffffff16636a42b8f86040518163ffffffff1660e01b815260040160206040518083038186803b15801561287f57600080fd5b505afa158015612893573d6000803e3d6000fd5b505050506040513d601f19601f820116820180604052506128b791908101906143d5565b61363e565b905060008090505b8260030180549050811015612aa157612a948360030182815481106128e557fe5b9060005260206000200160009054906101000a900473ffffffffffffffffffffffffffffffffffffffff1684600401838154811061291f57fe5b906000526020600020015485600501848154811061293957fe5b906000526020600020018054600181600116156101000203166002900480601f0160208091040260200160405190810160405280929190818152602001828054600181600116156101000203166002900480156129d75780601f106129ac576101008083540402835291602001916129d7565b820191906000526020600020905b8154815290600101906020018083116129ba57829003601f168201915b50505050508660060185815481106129eb57fe5b906000526020600020018054600181600116156101000203166002900480601f016020809104026020016040519081016040528092919081815260200182805460018160011615610100020316600290048015612a895780601f10612a5e57610100808354040283529160200191612a89565b820191906000526020600020905b815481529060010190602001808311612a6c57829003601f168201915b5050505050866136e3565b80806001019150506128c4565b508082600201819055507f9a2e42fd6722813d69113e7d0079d3d940171428df7373df9c7f7617cfda28928382604051612adc929190616645565b60405180910390a1505050565b604051612af590615c32565b604051809103902081565b612b08613ae7565b600b6000848152602001908152602001600020600f0160008373ffffffffffffffffffffffffffffffffffffffff1673ffffffffffffffffffffffffffffffffffffffff1681526020019081526020016000206040518060600160405290816000820160009054906101000a900460ff161515151581526020016000820160019054906101000a900460ff1660ff1660ff168152602001600182015481525050905092915050565b600181565b600160009054906101000a900473ffffffffffffffffffffffffffffffffffffffff1673ffffffffffffffffffffffffffffffffffffffff163373ffffffffffffffffffffffffffffffffffffffff16148015612c3f5750600073ffffffffffffffffffffffffffffffffffffffff163373ffffffffffffffffffffffffffffffffffffffff1614155b612c7e576040517f08c379a0000000000000000000000000000000000000000000000000000000008152600401612c7590615ff6565b60405180910390fd5b60008060009054906101000a900473ffffffffffffffffffffffffffffffffffffffff1690506000600160009054906101000a900473ffffffffffffffffffffffffffffffffffffffff169050600160009054906101000a900473ffffffffffffffffffffffffffffffffffffffff166000806101000a81548173ffffffffffffffffffffffffffffffffffffffff021916908373ffffffffffffffffffffffffffffffffffffffff1602179055506000600160006101000a81548173ffffffffffffffffffffffffffffffffffffffff021916908373ffffffffffffffffffffffffffffffffffffffff1602179055507ff9ffabca9c8276e99321725bcb43fb076a6c66a54b7f21c4e8146d8519b417dc826000809054906101000a900473ffffffffffffffffffffffffffffffffffffffff16604051612dc1929190615cd7565b60405180910390a17fca4f2f25d0898edd99413412fb94012f9e54ec8142f9b093e7720646a95b16a981600160009054906101000a900473ffffffffffffffffffffffffffffffffffffffff16604051612e1c929190615cd7565b60405180910390a15050565b619c4081565b6000809054906101000a900473ffffffffffffffffffffffffffffffffffffffff1681565b6000809054906101000a900473ffffffffffffffffffffffffffffffffffffffff1673ffffffffffffffffffffffffffffffffffffffff163373ffffffffffffffffffffffffffffffffffffffff1614612ee2576040517f08c379a0000000000000000000000000000000000000000000000000000000008152600401612ed990616356565b60405180910390fd5b600060065414612f27576040517f08c379a0000000000000000000000000000000000000000000000000000000008152600401612f1e90616436565b60405180910390fd5b8073ffffffffffffffffffffffffffffffffffffffff1663da35c6646040518163ffffffff1660e01b8152600401602060405180830381600087803b158015612f6f57600080fd5b505af1158015612f83573d6000803e3d6000fd5b505050506040513d601f19601f82011682018060405250612fa791908101906143d5565b600781905550600754600681905550600860009054906101000a900473ffffffffffffffffffffffffffffffffffffffff1673ffffffffffffffffffffffffffffffffffffffff16630e18b6816040518163ffffffff1660e01b8152600401600060405180830381600087803b15801561302057600080fd5b505af1158015613034573d6000803e3d6000fd5b5050505050565b60065481565b6005600781111561304e57fe5b6130578261152f565b600781111561306257fe5b146130a2576040517f08c379a0000000000000000000000000000000000000000000000000000000008152600401613099906162f6565b60405180910390fd5b6000600b60008381526020019081526020016000209050600181600e0160016101000a81548160ff02191690831515021790555060008090505b816003018054905081101561325357600860009054906101000a900473ffffffffffffffffffffffffffffffffffffffff1673ffffffffffffffffffffffffffffffffffffffff16630825f38f83600401838154811061313857fe5b906000526020600020015484600301848154811061315257fe5b9060005260206000200160009054906101000a900473ffffffffffffffffffffffffffffffffffffffff1685600401858154811061318c57fe5b90600052602060002001548660050186815481106131a657fe5b906000526020600020018760060187815481106131bf57fe5b9060005260206000200188600201546040518763ffffffff1660e01b81526004016131ee959493929190615d8a565b6000604051808303818588803b15801561320757600080fd5b505af115801561321b573d6000803e3d6000fd5b50505050506040513d6000823e3d601f19601f82011682018060405250613245919081019061436b565b5080806001019150506130dc565b507f712ae1383f79ac853f8d882153778e0260ef8f03b504e2866e0593e04d2b291f8260405161328391906164b1565b60405180910390a15050565b6000808314156132a257600090506132f9565b60008284029050828482816132b357fe5b04146132f4576040517f08c379a00000000000000000000000000000000000000000000000000000000081526004016132eb90616076565b60405180910390fd5b809150505b92915050565b6000808211613343576040517f08c379a000000000000000000000000000000000000000000000000000000000815260040161333a906163b6565b60405180910390fd5b600082848161334e57fe5b0490508091505092915050565b6000804690508091505090565b60006001600781111561337757fe5b6133808461152f565b600781111561338b57fe5b146133cb576040517f08c379a00000000000000000000000000000000000000000000000000000000081526004016133c290616396565b60405180910390fd5b60028260ff161115613412576040517f08c379a000000000000000000000000000000000000000000000000000000000815260040161340990616156565b60405180910390fd5b6000600b60008581526020019081526020016000209050600081600f0160008773ffffffffffffffffffffffffffffffffffffffff1673ffffffffffffffffffffffffffffffffffffffff1681526020019081526020016000209050600015158160000160009054906101000a900460ff161515146134c6576040517f08c379a00000000000000000000000000000000000000000000000000000000081526004016134bd906161f6565b60405180910390fd5b6000600960009054906101000a900473ffffffffffffffffffffffffffffffffffffffff1673ffffffffffffffffffffffffffffffffffffffff1663782d6fe18885600701546040518363ffffffff1660e01b8152600401613529929190615d00565b60206040518083038186803b15801561354157600080fd5b505afa158015613555573d6000803e3d6000fd5b505050506040513d601f19601f8201168201806040525061357991908101906143d5565b905060008560ff1614156135a25761359583600a01548261363e565b83600a01819055506135ee565b60018560ff1614156135c9576135bc83600901548261363e565b83600901819055506135ed565b60028560ff1614156135ec576135e383600b01548261363e565b83600b01819055505b5b5b60018260000160006101000a81548160ff021916908315150217905550848260000160016101000a81548160ff021916908360ff1602179055508082600101819055508093505050509392505050565b600080828401905083811015613689576040517f08c379a000000000000000000000000000000000000000000000000000000000815260040161368090616276565b60405180910390fd5b8091505092915050565b6000828211156136d8576040517f08c379a00000000000000000000000000000000000000000000000000000000081526004016136cf90616476565b60405180910390fd5b818303905092915050565b600860009054906101000a900473ffffffffffffffffffffffffffffffffffffffff1673ffffffffffffffffffffffffffffffffffffffff1663f2b06537868686868660405160200161373a959493929190615d29565b604051602081830303815290604052805190602001206040518263ffffffff1660e01b815260040161376c9190615e4c565b60206040518083038186803b15801561378457600080fd5b505afa158015613798573d6000803e3d6000fd5b505050506040513d601f19601f820116820180604052506137bc9190810190614319565b156137fc576040517f08c379a00000000000000000000000000000000000000000000000000000000081526004016137f390616236565b60405180910390fd5b600860009054906101000a900473ffffffffffffffffffffffffffffffffffffffff1673ffffffffffffffffffffffffffffffffffffffff16633a66f90186868686866040518663ffffffff1660e01b815260040161385f959493929190615d29565b602060405180830381600087803b15801561387957600080fd5b505af115801561388d573d6000803e3d6000fd5b505050506040513d601f19601f820116820180604052506138b19190810190614342565b505050505050565b60405180610200016040528060008152602001600073ffffffffffffffffffffffffffffffffffffffff1681526020016000815260200160608152602001606081526020016060815260200160608152602001600081526020016000815260200160008152602001600081526020016000815260200160008152602001600081526020016000151581526020016000151581525090565b8280548282559060005260206000209081019282156139c9579160200282015b828111156139c85782518260006101000a81548173ffffffffffffffffffffffffffffffffffffffff021916908373ffffffffffffffffffffffffffffffffffffffff16021790555091602001919060010190613970565b5b5090506139d69190613b0d565b5090565b828054828255906000526020600020908101928215613a16579160200282015b82811115613a155782518255916020019190600101906139fa565b5b509050613a239190613b50565b5090565b828054828255906000526020600020908101928215613a76579160200282015b82811115613a75578251829080519060200190613a65929190613b75565b5091602001919060010190613a47565b5b509050613a839190613bf5565b5090565b828054828255906000526020600020908101928215613ad6579160200282015b82811115613ad5578251829080519060200190613ac5929190613c21565b5091602001919060010190613aa7565b5b509050613ae39190613ca1565b5090565b6040518060600160405280600015158152602001600060ff168152602001600081525090565b613b4d91905b80821115613b4957600081816101000a81549073ffffffffffffffffffffffffffffffffffffffff021916905550600101613b13565b5090565b90565b613b7291905b80821115613b6e576000816000905550600101613b56565b5090565b90565b828054600181600116156101000203166002900490600052602060002090601f016020900481019282601f10613bb657805160ff1916838001178555613be4565b82800160010185558215613be4579182015b82811115613be3578251825591602001919060010190613bc8565b5b509050613bf19190613b50565b5090565b613c1e91905b80821115613c1a5760008181613c119190613ccd565b50600101613bfb565b5090565b90565b828054600181600116156101000203166002900490600052602060002090601f016020900481019282601f10613c6257805160ff1916838001178555613c90565b82800160010185558215613c90579182015b82811115613c8f578251825591602001919060010190613c74565b5b509050613c9d9190613b50565b5090565b613cca91905b80821115613cc65760008181613cbd9190613d15565b50600101613ca7565b5090565b90565b50805460018160011615610100020316600290046000825580601f10613cf35750613d12565b601f016020900490600052602060002090810190613d119190613b50565b5b50565b50805460018160011615610100020316600290046000825580601f10613d3b5750613d5a565b601f016020900490600052602060002090810190613d599190613b50565b5b50565b600081359050613d6c81616b9c565b92915050565b600082601f830112613d8357600080fd5b8135613d96613d9182616733565b616706565b91508181835260208401935060208101905083856020840282011115613dbb57600080fd5b60005b83811015613deb5781613dd18882613d5d565b845260208401935060208301925050600181019050613dbe565b5050505092915050565b600082601f830112613e0657600080fd5b8135613e19613e148261675b565b616706565b9150818183526020840193506020810190508360005b83811015613e5f5781358601613e458882613f9f565b845260208401935060208301925050600181019050613e2f565b5050505092915050565b600082601f830112613e7a57600080fd5b8135613e8d613e8882616783565b616706565b9150818183526020840193506020810190508360005b83811015613ed35781358601613eb98882614091565b845260208401935060208301925050600181019050613ea3565b5050505092915050565b600082601f830112613eee57600080fd5b8135613f01613efc826167ab565b616706565b91508181835260208401935060208101905083856020840282011115613f2657600080fd5b60005b83811015613f565781613f3c8882614139565b845260208401935060208301925050600181019050613f29565b5050505092915050565b600081519050613f6f81616bb3565b92915050565b600081359050613f8481616bca565b92915050565b600081519050613f9981616bca565b92915050565b600082601f830112613fb057600080fd5b8135613fc3613fbe826167d3565b616706565b91508082526020830160208301858383011115613fdf57600080fd5b613fea838284616b32565b50505092915050565b600082601f83011261400457600080fd5b8151614017614012826167ff565b616706565b9150808252602083016020830185838301111561403357600080fd5b61403e838284616b41565b50505092915050565b60008083601f84011261405957600080fd5b8235905067ffffffffffffffff81111561407257600080fd5b60208301915083600182028301111561408a57600080fd5b9250929050565b600082601f8301126140a257600080fd5b81356140b56140b08261682b565b616706565b915080825260208301602083018583830111156140d157600080fd5b6140dc838284616b32565b50505092915050565b600082601f8301126140f657600080fd5b813561410961410482616857565b616706565b9150808252602083016020830185838301111561412557600080fd5b614130838284616b32565b50505092915050565b60008135905061414881616be1565b92915050565b60008151905061415d81616be1565b92915050565b60008135905061417281616bf8565b92915050565b60006020828403121561418a57600080fd5b600061419884828501613d5d565b91505092915050565b60008060008060008060c087890312156141ba57600080fd5b60006141c889828a01613d5d565b96505060206141d989828a01613d5d565b95505060406141ea89828a01613d5d565b94505060606141fb89828a01614139565b935050608061420c89828a01614139565b92505060a061421d89828a01614139565b9150509295509295509295565b600080600080600060a0868803121561424257600080fd5b600086013567ffffffffffffffff81111561425c57600080fd5b61426888828901613d72565b955050602086013567ffffffffffffffff81111561428557600080fd5b61429188828901613edd565b945050604086013567ffffffffffffffff8111156142ae57600080fd5b6142ba88828901613e69565b935050606086013567ffffffffffffffff8111156142d757600080fd5b6142e388828901613df5565b925050608086013567ffffffffffffffff81111561430057600080fd5b61430c888289016140e5565b9150509295509295909350565b60006020828403121561432b57600080fd5b600061433984828501613f60565b91505092915050565b60006020828403121561435457600080fd5b600061436284828501613f8a565b91505092915050565b60006020828403121561437d57600080fd5b600082015167ffffffffffffffff81111561439757600080fd5b6143a384828501613ff3565b91505092915050565b6000602082840312156143be57600080fd5b60006143cc84828501614139565b91505092915050565b6000602082840312156143e757600080fd5b60006143f58482850161414e565b91505092915050565b6000806040838503121561441157600080fd5b600061441f85828601614139565b925050602061443085828601613d5d565b9150509250929050565b6000806040838503121561444d57600080fd5b600061445b85828601614139565b925050602061446c85828601614163565b9150509250929050565b6000806000806060858703121561448c57600080fd5b600061449a87828801614139565b94505060206144ab87828801614163565b935050604085013567ffffffffffffffff8111156144c857600080fd5b6144d487828801614047565b925092505092959194509250565b600080600080600060a086880312156144fa57600080fd5b600061450888828901614139565b955050602061451988828901614163565b945050604061452a88828901614163565b935050606061453b88828901613f75565b925050608061454c88828901613f75565b9150509295509295909350565b600061456583836145c0565b60208301905092915050565b600061457d8383614801565b905092915050565b6000614591838361496b565b905092915050565b60006145a58383615bf6565b60208301905092915050565b6145ba81616a7e565b82525050565b6145c981616a0c565b82525050565b6145d881616a0c565b82525050565b60006145e9826168ed565b6145f38185616979565b93506145fe83616883565b8060005b8381101561462f5781516146168882614559565b975061462183616945565b925050600181019050614602565b5085935050505092915050565b6000614647826168f8565b614651818561698a565b93508360208202850161466385616893565b8060005b8581101561469f57848403895281516146808582614571565b945061468b83616952565b925060208a01995050600181019050614667565b50829750879550505050505092915050565b60006146bc82616903565b6146c6818561699b565b9350836020820285016146d8856168a3565b8060005b8581101561471457848403895281516146f58582614585565b94506147008361695f565b925060208a019950506001810190506146dc565b50829750879550505050505092915050565b60006147318261690e565b61473b81856169ac565b9350614746836168b3565b8060005b8381101561477757815161475e8882614599565b97506147698361696c565b92505060018101905061474a565b5085935050505092915050565b61478d81616a1e565b82525050565b61479c81616a1e565b82525050565b6147ab81616a2a565b82525050565b6147c26147bd82616a2a565b616b74565b82525050565b60006147d382616924565b6147dd81856169ce565b93506147ed818560208601616b41565b6147f681616b7e565b840191505092915050565b600061480c82616919565b61481681856169bd565b9350614826818560208601616b41565b61482f81616b7e565b840191505092915050565b600081546001811660008114614857576001811461487d576148c1565b607f600283041661486881876169ce565b955060ff1983168652602086019350506148c1565b6002820461488b81876169ce565b9550614896856168c3565b60005b828110156148b857815481890152600182019150602081019050614899565b80880195505050505b505092915050565b6148d281616a90565b82525050565b6148e181616ab4565b82525050565b6148f081616ad8565b82525050565b6148ff81616afc565b82525050565b600061491183856169f0565b935061491e838584616b32565b61492783616b7e565b840190509392505050565b600061493d8261693a565b61494781856169f0565b9350614957818560208601616b41565b61496081616b7e565b840191505092915050565b60006149768261692f565b61498081856169df565b9350614990818560208601616b41565b61499981616b7e565b840191505092915050565b60006149af8261692f565b6149b981856169f0565b93506149c9818560208601616b41565b6149d281616b7e565b840191505092915050565b6000815460018116600081146149fa5760018114614a2057614a64565b607f6002830416614a0b81876169f0565b955060ff198316865260208601935050614a64565b60028204614a2e81876169f0565b9550614a39856168d8565b60005b82811015614a5b57815481890152600182019150602081019050614a3c565b80880195505050505b505092915050565b6000614a796030836169f0565b91507f476f7665726e6f724f484d6567613a3a696e697469616c697a653a20696e766160008301527f6c696420674f484d2061646472657373000000000000000000000000000000006020830152604082019050919050565b6000614adf602c836169f0565b91507f476f7665726e6f724f484d6567613a3a5f736574566f74696e67506572696f6460008301527f3a2061646d696e206f6e6c7900000000000000000000000000000000000000006020830152604082019050919050565b6000614b45602f836169f0565b91507f476f7665726e6f724f484d6567613a5f61636365707441646d696e3a2070656e60008301527f64696e672061646d696e206f6e6c7900000000000000000000000000000000006020830152604082019050919050565b6000614bab6040836169f0565b91507f476f7665726e6f724f484d6567613a3a70726f706f73653a2070726f706f736560008301527f7220766f7465732062656c6f772070726f706f73616c207468726573686f6c646020830152604082019050919050565b6000614c11602883616a01565b91507f42616c6c6f742875696e743235362070726f706f73616c49642c75696e74382060008301527f737570706f7274290000000000000000000000000000000000000000000000006020830152602882019050919050565b6000614c776045836169f0565b91507f476f7665726e6f724f484d6567613a3a71756575653a2070726f706f73616c2060008301527f63616e206f6e6c7920626520717565756564206966206974206973207375636360208301527f65656465640000000000000000000000000000000000000000000000000000006040830152606082019050919050565b6000614d03600283616a01565b91507f19010000000000000000000000000000000000000000000000000000000000006000830152600282019050919050565b6000614d436030836169f0565b91507f476f7665726e6f724f484d6567613a3a696e697469616c697a653a20696e766160008301527f6c696420766f74696e672064656c6179000000000000000000000000000000006020830152604082019050919050565b6000614da96017836169f0565b91507f6d756c7469706c69636174696f6e206f766572666c6f770000000000000000006000830152602082019050919050565b6000614de96035836169f0565b91507f476f7665726e6f724f484d6567613a3a5f736574566f74696e6744656c61793a60008301527f20696e76616c696420766f74696e672064656c617900000000000000000000006020830152604082019050919050565b6000614e4f605a836169f0565b91507f476f7665726e6f724f484d6567613a3a70726f706f73653a206f6e65206c697660008301527f652070726f706f73616c207065722070726f706f7365722c20666f756e64206160208301527f6e20616c72656164792070656e64696e672070726f706f73616c0000000000006040830152606082019050919050565b6000614edb602b836169f0565b91507f476f7665726e6f724f484d6567613a5f73657450656e64696e6741646d696e3a60008301527f2061646d696e206f6e6c790000000000000000000000000000000000000000006020830152604082019050919050565b6000614f416033836169f0565b91507f476f7665726e6f724f484d6567613a3a70726f706f73653a20476f7665726e6f60008301527f72204f484d656761206e6f7420616374697665000000000000000000000000006020830152604082019050919050565b6000614fa7602b836169f0565b91507f476f7665726e6f724f484d6567613a3a5f736574566f74696e6744656c61793a60008301527f2061646d696e206f6e6c790000000000000000000000000000000000000000006020830152604082019050919050565b600061500d6037836169f0565b91507f476f7665726e6f724f484d6567613a3a63616e63656c3a2063616e6e6f74206360008301527f616e63656c2065786563757465642070726f706f73616c0000000000000000006020830152604082019050919050565b60006150736033836169f0565b91507f476f7665726e6f724f484d6567613a3a63617374566f7465496e7465726e616c60008301527f3a20696e76616c696420766f74652074797065000000000000000000000000006020830152604082019050919050565b60006150d96029836169f0565b91507f476f7665726e6f724f484d6567613a3a70726f706f73653a20746f6f206d616e60008301527f7920616374696f6e7300000000000000000000000000000000000000000000006020830152604082019050919050565b600061513f6045836169f0565b91507f476f7665726e6f724f484d6567613a3a70726f706f73653a2070726f706f736160008301527f6c2066756e6374696f6e20696e666f726d6174696f6e206172697479206d697360208301527f6d617463680000000000000000000000000000000000000000000000000000006040830152606082019050919050565b60006151cb6030836169f0565b91507f476f7665726e6f724f484d6567613a3a63616e63656c3a2070726f706f73657260008301527f2061626f7665207468726573686f6c64000000000000000000000000000000006020830152604082019050919050565b60006152316030836169f0565b91507f476f7665726e6f724f484d6567613a3a696e697469616c697a653a20696e766160008301527f6c696420734f484d2061646472657373000000000000000000000000000000006020830152604082019050919050565b60006152976035836169f0565b91507f476f7665726e6f724f484d6567613a3a63617374566f7465496e7465726e616c60008301527f3a20766f74657220616c726561647920766f74656400000000000000000000006020830152604082019050919050565b60006152fd6034836169f0565b91507f476f7665726e6f724f484d6567613a3a696e697469616c697a653a2063616e2060008301527f6f6e6c7920696e697469616c697a65206f6e63650000000000000000000000006020830152604082019050919050565b60006153636056836169f0565b91507f476f7665726e6f724f484d6567613a3a71756575654f72526576657274496e7460008301527f65726e616c3a206964656e746963616c2070726f706f73616c20616374696f6e60208301527f20616c72656164792071756575656420617420657461000000000000000000006040830152606082019050919050565b60006153ef6034836169f0565b91507f476f7665726e6f724f484d6567613a3a696e697469616c697a653a20696e766160008301527f6c69642074696d656c6f636b20616464726573730000000000000000000000006020830152604082019050919050565b60006154556011836169f0565b91507f6164646974696f6e206f766572666c6f770000000000000000000000000000006000830152602082019050919050565b6000615495604383616a01565b91507f454950373132446f6d61696e28737472696e67206e616d652c75696e7432353660008301527f20636861696e49642c6164647265737320766572696679696e67436f6e74726160208301527f63742900000000000000000000000000000000000000000000000000000000006040830152604382019050919050565b60006155216031836169f0565b91507f476f7665726e6f724f484d6567613a3a696e697469616c697a653a20696e766160008301527f6c696420766f74696e6720706572696f640000000000000000000000000000006020830152604082019050919050565b60006155876041836169f0565b91507f476f7665726e6f724f484d6567613a3a5f73657450726f706f73616c5468726560008301527f73686f6c643a20696e76616c69642070726f706f73616c207468726573686f6c60208301527f64000000000000000000000000000000000000000000000000000000000000006040830152606082019050919050565b60006156136030836169f0565b91507f476f7665726e6f724f484d6567613a3a63617374566f746542795369673a206960008301527f6e76616c6964207369676e6174757265000000000000000000000000000000006020830152604082019050919050565b60006156796046836169f0565b91507f476f7665726e6f724f484d6567613a3a657865637574653a2070726f706f736160008301527f6c2063616e206f6e6c792062652065786563757465642069662069742069732060208301527f71756575656400000000000000000000000000000000000000000000000000006040830152606082019050919050565b60006157056031836169f0565b91507f476f7665726e6f724f484d6567613a3a5f73657450726f706f73616c5468726560008301527f73686f6c643a2061646d696e206f6e6c790000000000000000000000000000006020830152604082019050919050565b600061576b602a836169f0565b91507f476f7665726e6f724f484d6567613a3a73746174653a20696e76616c6964207060008301527f726f706f73616c206964000000000000000000000000000000000000000000006020830152604082019050919050565b60006157d16025836169f0565b91507f476f7665726e6f724f484d6567613a3a5f696e6974696174653a2061646d696e60008301527f206f6e6c790000000000000000000000000000000000000000000000000000006020830152604082019050919050565b6000615837602d836169f0565b91507f476f7665726e6f724f484d6567613a3a70726f706f73653a206d75737420707260008301527f6f7669646520616374696f6e73000000000000000000000000000000000000006020830152604082019050919050565b600061589d6032836169f0565b91507f476f7665726e6f724f484d6567613a3a63617374566f7465496e7465726e616c60008301527f3a20766f74696e6720697320636c6f73656400000000000000000000000000006020830152604082019050919050565b60006159036000836169f0565b9150600082019050919050565b600061591d6010836169f0565b91507f6469766973696f6e206279207a65726f000000000000000000000000000000006000830152602082019050919050565b600061595d6027836169f0565b91507f20476f7665726e6f724f484d6567613a3a696e697469616c697a653a2061646d60008301527f696e206f6e6c79000000000000000000000000000000000000000000000000006020830152604082019050919050565b60006159c36059836169f0565b91507f476f7665726e6f724f484d6567613a3a70726f706f73653a206f6e65206c697660008301527f652070726f706f73616c207065722070726f706f7365722c20666f756e64206160208301527f6e20616c7265616479206163746976652070726f706f73616c000000000000006040830152606082019050919050565b6000615a4f6037836169f0565b91507f476f7665726e6f724f484d6567613a3a5f736574566f74696e67506572696f6460008301527f3a20696e76616c696420766f74696e6720706572696f640000000000000000006020830152604082019050919050565b6000615ab56031836169f0565b91507f476f7665726e6f724f484d6567613a3a5f696e6974696174653a2063616e206f60008301527f6e6c7920696e697469617465206f6e63650000000000000000000000000000006020830152604082019050919050565b6000615b1b6036836169f0565b91507f476f7665726e6f724f484d6567613a3a696e697469616c697a653a20696e766160008301527f6c69642070726f706f73616c207468726573686f6c64000000000000000000006020830152604082019050919050565b6000615b816015836169f0565b91507f7375627472616374696f6e20756e646572666c6f7700000000000000000000006000830152602082019050919050565b606082016000820151615bca6000850182614784565b506020820151615bdd6020850182615c14565b506040820151615bf06040850182615bf6565b50505050565b615bff81616a67565b82525050565b615c0e81616a67565b82525050565b615c1d81616a71565b82525050565b615c2c81616a71565b82525050565b6000615c3d82614c04565b9150819050919050565b6000615c5282614cf6565b9150615c5e82856147b1565b602082019150615c6e82846147b1565b6020820191508190509392505050565b6000615c8982615488565b9150819050919050565b6000602082019050615ca860008301846145cf565b92915050565b6000604082019050615cc360008301856145b1565b615cd06020830184615c05565b9392505050565b6000604082019050615cec60008301856145cf565b615cf960208301846145cf565b9392505050565b6000604082019050615d1560008301856145cf565b615d226020830184615c05565b9392505050565b600060a082019050615d3e60008301886145cf565b615d4b6020830187615c05565b8181036040830152615d5d8186614932565b90508181036060830152615d7181856147c8565b9050615d806080830184615c05565b9695505050505050565b600060a082019050615d9f60008301886145cf565b615dac6020830187615c05565b8181036040830152615dbe81866149dd565b90508181036060830152615dd2818561483a565b9050615de16080830184615c05565b9695505050505050565b60006080820190508181036000830152615e0581876145de565b90508181036020830152615e198186614726565b90508181036040830152615e2d81856146b1565b90508181036060830152615e41818461463c565b905095945050505050565b6000602082019050615e6160008301846147a2565b92915050565b6000608082019050615e7c60008301876147a2565b615e8960208301866147a2565b615e966040830185615c05565b615ea360608301846145cf565b95945050505050565b6000606082019050615ec160008301866147a2565b615ece6020830185615c05565b615edb6040830184615c23565b949350505050565b6000608082019050615ef860008301876147a2565b615f056020830186615c23565b615f1260408301856147a2565b615f1f60608301846147a2565b95945050505050565b6000602082019050615f3d60008301846148c9565b92915050565b6000602082019050615f5860008301846148d8565b92915050565b6000602082019050615f7360008301846148e7565b92915050565b6000602082019050615f8e60008301846148f6565b92915050565b60006020820190508181036000830152615fae81846149a4565b905092915050565b60006020820190508181036000830152615fcf81614a6c565b9050919050565b60006020820190508181036000830152615fef81614ad2565b9050919050565b6000602082019050818103600083015261600f81614b38565b9050919050565b6000602082019050818103600083015261602f81614b9e565b9050919050565b6000602082019050818103600083015261604f81614c6a565b9050919050565b6000602082019050818103600083015261606f81614d36565b9050919050565b6000602082019050818103600083015261608f81614d9c565b9050919050565b600060208201905081810360008301526160af81614ddc565b9050919050565b600060208201905081810360008301526160cf81614e42565b9050919050565b600060208201905081810360008301526160ef81614ece565b9050919050565b6000602082019050818103600083015261610f81614f34565b9050919050565b6000602082019050818103600083015261612f81614f9a565b9050919050565b6000602082019050818103600083015261614f81615000565b9050919050565b6000602082019050818103600083015261616f81615066565b9050919050565b6000602082019050818103600083015261618f816150cc565b9050919050565b600060208201905081810360008301526161af81615132565b9050919050565b600060208201905081810360008301526161cf816151be565b9050919050565b600060208201905081810360008301526161ef81615224565b9050919050565b6000602082019050818103600083015261620f8161528a565b9050919050565b6000602082019050818103600083015261622f816152f0565b9050919050565b6000602082019050818103600083015261624f81615356565b9050919050565b6000602082019050818103600083015261626f816153e2565b9050919050565b6000602082019050818103600083015261628f81615448565b9050919050565b600060208201905081810360008301526162af81615514565b9050919050565b600060208201905081810360008301526162cf8161557a565b9050919050565b600060208201905081810360008301526162ef81615606565b9050919050565b6000602082019050818103600083015261630f8161566c565b9050919050565b6000602082019050818103600083015261632f816156f8565b9050919050565b6000602082019050818103600083015261634f8161575e565b9050919050565b6000602082019050818103600083015261636f816157c4565b9050919050565b6000602082019050818103600083015261638f8161582a565b9050919050565b600060208201905081810360008301526163af81615890565b9050919050565b600060208201905081810360008301526163cf81615910565b9050919050565b600060208201905081810360008301526163ef81615950565b9050919050565b6000602082019050818103600083015261640f816159b6565b9050919050565b6000602082019050818103600083015261642f81615a42565b9050919050565b6000602082019050818103600083015261644f81615aa8565b9050919050565b6000602082019050818103600083015261646f81615b0e565b9050919050565b6000602082019050818103600083015261648f81615b74565b9050919050565b60006060820190506164ab6000830184615bb4565b92915050565b60006020820190506164c66000830184615c05565b92915050565b6000610140820190506164e2600083018d615c05565b6164ef602083018c6145b1565b8181036040830152616501818b6145de565b90508181036060830152616515818a614726565b9050818103608083015261652981896146b1565b905081810360a083015261653d818861463c565b905061654c60c0830187615c05565b61655960e0830186615c05565b616567610100830185615c05565b81810361012083015261657a8184614932565b90509b9a5050505050505050505050565b6000610180820190506165a1600083018f615c05565b6165ae602083018e6145cf565b6165bb604083018d615c05565b6165c8606083018c615c05565b6165d5608083018b615c05565b6165e260a083018a615c05565b6165ef60c0830189615c05565b6165fc60e0830188615c05565b61660a610100830187615c05565b616618610120830186615c05565b616626610140830185614793565b616634610160830184614793565b9d9c50505050505050505050505050565b600060408201905061665a6000830185615c05565b6166676020830184615c05565b9392505050565b60006080820190506166836000830188615c05565b6166906020830187615c23565b61669d6040830186615c05565b81810360608301526166b0818486614905565b90509695505050505050565b60006080820190506166d16000830186615c05565b6166de6020830185615c23565b6166eb6040830184615c05565b81810360608301526166fc816158f6565b9050949350505050565b6000604051905081810181811067ffffffffffffffff8211171561672957600080fd5b8060405250919050565b600067ffffffffffffffff82111561674a57600080fd5b602082029050602081019050919050565b600067ffffffffffffffff82111561677257600080fd5b602082029050602081019050919050565b600067ffffffffffffffff82111561679a57600080fd5b602082029050602081019050919050565b600067ffffffffffffffff8211156167c257600080fd5b602082029050602081019050919050565b600067ffffffffffffffff8211156167ea57600080fd5b601f19601f8301169050602081019050919050565b600067ffffffffffffffff82111561681657600080fd5b601f19601f8301169050602081019050919050565b600067ffffffffffffffff82111561684257600080fd5b601f19601f8301169050602081019050919050565b600067ffffffffffffffff82111561686e57600080fd5b601f19601f8301169050602081019050919050565b6000819050602082019050919050565b6000819050602082019050919050565b6000819050602082019050919050565b6000819050602082019050919050565b60008190508160005260206000209050919050565b60008190508160005260206000209050919050565b600081519050919050565b600081519050919050565b600081519050919050565b600081519050919050565b600081519050919050565b600081519050919050565b600081519050919050565b600081519050919050565b6000602082019050919050565b6000602082019050919050565b6000602082019050919050565b6000602082019050919050565b600082825260208201905092915050565b600082825260208201905092915050565b600082825260208201905092915050565b600082825260208201905092915050565b600082825260208201905092915050565b600082825260208201905092915050565b600082825260208201905092915050565b600082825260208201905092915050565b600081905092915050565b6000616a1782616a47565b9050919050565b60008115159050919050565b6000819050919050565b6000819050616a4282616b8f565b919050565b600073ffffffffffffffffffffffffffffffffffffffff82169050919050565b6000819050919050565b600060ff82169050919050565b6000616a8982616b0e565b9050919050565b6000616a9b82616aa2565b9050919050565b6000616aad82616a47565b9050919050565b6000616abf82616ac6565b9050919050565b6000616ad182616a47565b9050919050565b6000616ae382616aea565b9050919050565b6000616af582616a47565b9050919050565b6000616b0782616a34565b9050919050565b6000616b1982616b20565b9050919050565b6000616b2b82616a47565b9050919050565b82818337600083830152505050565b60005b83811015616b5f578082015181840152602081019050616b44565b83811115616b6e576000848401525b50505050565b6000819050919050565b6000601f19601f8301169050919050565b60088110616b9957fe5b50565b616ba581616a0c565b8114616bb057600080fd5b50565b616bbc81616a1e565b8114616bc757600080fd5b50565b616bd381616a2a565b8114616bde57600080fd5b50565b616bea81616a67565b8114616bf557600080fd5b50565b616c0181616a71565b8114616c0c57600080fd5b5056fea365627a7a723158209af04aa5b821c449a8ac2cd08573308a5b0b7367b3679d477710bc0065b891ce6c6578706572696d656e74616cf564736f6c63430005100040",
          "opcodes": "PUSH1 0x80 PUSH1 0x40 MSTORE CALLVALUE DUP1 ISZERO PUSH2 0x10 JUMPI PUSH1 0x0 DUP1 REVERT JUMPDEST POP PUSH2 0x6C52 DUP1 PUSH3 0x21 PUSH1 0x0 CODECOPY PUSH1 0x0 RETURN INVALID PUSH1 0x80 PUSH1 0x40 MSTORE PUSH1 0x4 CALLDATASIZE LT PUSH2 0x251 JUMPI PUSH1 0x0 CALLDATALOAD PUSH1 0xE0 SHR DUP1 PUSH4 0x7B3C71D3 GT PUSH2 0x139 JUMPI DUP1 PUSH4 0xDA95691A GT PUSH2 0xB6 JUMPI DUP1 PUSH4 0xE9C714F2 GT PUSH2 0x7A JUMPI DUP1 PUSH4 0xE9C714F2 EQ PUSH2 0x8DA JUMPI DUP1 PUSH4 0xF81CBD26 EQ PUSH2 0x8F1 JUMPI DUP1 PUSH4 0xF851A440 EQ PUSH2 0x91C JUMPI DUP1 PUSH4 0xF9D28B80 EQ PUSH2 0x947 JUMPI DUP1 PUSH4 0xFC4EEE42 EQ PUSH2 0x970 JUMPI DUP1 PUSH4 0xFE0D94C1 EQ PUSH2 0x99B JUMPI PUSH2 0x251 JUMP JUMPDEST DUP1 PUSH4 0xDA95691A EQ PUSH2 0x7E1 JUMPI DUP1 PUSH4 0xDDF0B009 EQ PUSH2 0x81E JUMPI DUP1 PUSH4 0xDEAAA7CC EQ PUSH2 0x847 JUMPI DUP1 PUSH4 0xE23A9A52 EQ PUSH2 0x872 JUMPI DUP1 PUSH4 0xE48083FE EQ PUSH2 0x8AF JUMPI PUSH2 0x251 JUMP JUMPDEST DUP1 PUSH4 0xB58131B0 GT PUSH2 0xFD JUMPI DUP1 PUSH4 0xB58131B0 EQ PUSH2 0x70C JUMPI DUP1 PUSH4 0xB71D1A0C EQ PUSH2 0x737 JUMPI DUP1 PUSH4 0xC3B98D07 EQ PUSH2 0x760 JUMPI DUP1 PUSH4 0xD33219B4 EQ PUSH2 0x78B JUMPI DUP1 PUSH4 0xDA35C664 EQ PUSH2 0x7B6 JUMPI PUSH2 0x251 JUMP JUMPDEST DUP1 PUSH4 0x7B3C71D3 EQ PUSH2 0x637 JUMPI DUP1 PUSH4 0x7BDBE4D0 EQ PUSH2 0x660 JUMPI DUP1 PUSH4 0x891DF873 EQ PUSH2 0x68B JUMPI DUP1 PUSH4 0xA64E024A EQ PUSH2 0x6B6 JUMPI DUP1 PUSH4 0xB1126263 EQ PUSH2 0x6E1 JUMPI PUSH2 0x251 JUMP JUMPDEST DUP1 PUSH4 0x215809CA GT PUSH2 0x1D2 JUMPI DUP1 PUSH4 0x3BCCF4FD GT PUSH2 0x196 JUMPI DUP1 PUSH4 0x3BCCF4FD EQ PUSH2 0x52B JUMPI DUP1 PUSH4 0x3E4F49E6 EQ PUSH2 0x554 JUMPI DUP1 PUSH4 0x40E58EE5 EQ PUSH2 0x591 JUMPI DUP1 PUSH4 0x56781388 EQ PUSH2 0x5BA JUMPI DUP1 PUSH4 0x5C60DA1B EQ PUSH2 0x5E3 JUMPI DUP1 PUSH4 0x728CDBCA EQ PUSH2 0x60E JUMPI PUSH2 0x251 JUMP JUMPDEST DUP1 PUSH4 0x215809CA EQ PUSH2 0x42D JUMPI DUP1 PUSH4 0x26782247 EQ PUSH2 0x458 JUMPI DUP1 PUSH4 0x2811B07E EQ PUSH2 0x483 JUMPI DUP1 PUSH4 0x328DD982 EQ PUSH2 0x4C0 JUMPI DUP1 PUSH4 0x3932ABB1 EQ PUSH2 0x500 JUMPI PUSH2 0x251 JUMP JUMPDEST DUP1 PUSH4 0x15079925 GT PUSH2 0x219 JUMPI DUP1 PUSH4 0x15079925 EQ PUSH2 0x348 JUMPI DUP1 PUSH4 0x17977C61 EQ PUSH2 0x373 JUMPI DUP1 PUSH4 0x17BA1B8B EQ PUSH2 0x3B0 JUMPI DUP1 PUSH4 0x1DFB1B5A EQ PUSH2 0x3D9 JUMPI DUP1 PUSH4 0x20606B70 EQ PUSH2 0x402 JUMPI PUSH2 0x251 JUMP JUMPDEST DUP1 PUSH4 0x13CF08B EQ PUSH2 0x256 JUMPI DUP1 PUSH4 0x2A251A3 EQ PUSH2 0x29E JUMPI DUP1 PUSH4 0x6FDDE03 EQ PUSH2 0x2C9 JUMPI DUP1 PUSH4 0xCD30585 EQ PUSH2 0x2F4 JUMPI DUP1 PUSH4 0xEA2D98C EQ PUSH2 0x31F JUMPI JUMPDEST PUSH1 0x0 DUP1 REVERT JUMPDEST CALLVALUE DUP1 ISZERO PUSH2 0x262 JUMPI PUSH1 0x0 DUP1 REVERT JUMPDEST POP PUSH2 0x27D PUSH1 0x4 DUP1 CALLDATASIZE SUB PUSH2 0x278 SWAP2 SWAP1 DUP2 ADD SWAP1 PUSH2 0x43AC JUMP JUMPDEST PUSH2 0x9B7 JUMP JUMPDEST PUSH1 0x40 MLOAD PUSH2 0x295 SWAP13 SWAP12 SWAP11 SWAP10 SWAP9 SWAP8 SWAP7 SWAP6 SWAP5 SWAP4 SWAP3 SWAP2 SWAP1 PUSH2 0x658B JUMP JUMPDEST PUSH1 0x40 MLOAD DUP1 SWAP2 SUB SWAP1 RETURN JUMPDEST CALLVALUE DUP1 ISZERO PUSH2 0x2AA JUMPI PUSH1 0x0 DUP1 REVERT JUMPDEST POP PUSH2 0x2B3 PUSH2 0xA51 JUMP JUMPDEST PUSH1 0x40 MLOAD PUSH2 0x2C0 SWAP2 SWAP1 PUSH2 0x64B1 JUMP JUMPDEST PUSH1 0x40 MLOAD DUP1 SWAP2 SUB SWAP1 RETURN JUMPDEST CALLVALUE DUP1 ISZERO PUSH2 0x2D5 JUMPI PUSH1 0x0 DUP1 REVERT JUMPDEST POP PUSH2 0x2DE PUSH2 0xA57 JUMP JUMPDEST PUSH1 0x40 MLOAD PUSH2 0x2EB SWAP2 SWAP1 PUSH2 0x5F94 JUMP JUMPDEST PUSH1 0x40 MLOAD DUP1 SWAP2 SUB SWAP1 RETURN JUMPDEST CALLVALUE DUP1 ISZERO PUSH2 0x300 JUMPI PUSH1 0x0 DUP1 REVERT JUMPDEST POP PUSH2 0x309 PUSH2 0xA90 JUMP JUMPDEST PUSH1 0x40 MLOAD PUSH2 0x316 SWAP2 SWAP1 PUSH2 0x5F43 JUMP JUMPDEST PUSH1 0x40 MLOAD DUP1 SWAP2 SUB SWAP1 RETURN JUMPDEST CALLVALUE DUP1 ISZERO PUSH2 0x32B JUMPI PUSH1 0x0 DUP1 REVERT JUMPDEST POP PUSH2 0x346 PUSH1 0x4 DUP1 CALLDATASIZE SUB PUSH2 0x341 SWAP2 SWAP1 DUP2 ADD SWAP1 PUSH2 0x43AC JUMP JUMPDEST PUSH2 0xAB6 JUMP JUMPDEST STOP JUMPDEST CALLVALUE DUP1 ISZERO PUSH2 0x354 JUMPI PUSH1 0x0 DUP1 REVERT JUMPDEST POP PUSH2 0x35D PUSH2 0xBE6 JUMP JUMPDEST PUSH1 0x40 MLOAD PUSH2 0x36A SWAP2 SWAP1 PUSH2 0x5F5E JUMP JUMPDEST PUSH1 0x40 MLOAD DUP1 SWAP2 SUB SWAP1 RETURN JUMPDEST CALLVALUE DUP1 ISZERO PUSH2 0x37F JUMPI PUSH1 0x0 DUP1 REVERT JUMPDEST POP PUSH2 0x39A PUSH1 0x4 DUP1 CALLDATASIZE SUB PUSH2 0x395 SWAP2 SWAP1 DUP2 ADD SWAP1 PUSH2 0x4178 JUMP JUMPDEST PUSH2 0xC0C JUMP JUMPDEST PUSH1 0x40 MLOAD PUSH2 0x3A7 SWAP2 SWAP1 PUSH2 0x64B1 JUMP JUMPDEST PUSH1 0x40 MLOAD DUP1 SWAP2 SUB SWAP1 RETURN JUMPDEST CALLVALUE DUP1 ISZERO PUSH2 0x3BC JUMPI PUSH1 0x0 DUP1 REVERT JUMPDEST POP PUSH2 0x3D7 PUSH1 0x4 DUP1 CALLDATASIZE SUB PUSH2 0x3D2 SWAP2 SWAP1 DUP2 ADD SWAP1 PUSH2 0x43AC JUMP JUMPDEST PUSH2 0xC24 JUMP JUMPDEST STOP JUMPDEST CALLVALUE DUP1 ISZERO PUSH2 0x3E5 JUMPI PUSH1 0x0 DUP1 REVERT JUMPDEST POP PUSH2 0x400 PUSH1 0x4 DUP1 CALLDATASIZE SUB PUSH2 0x3FB SWAP2 SWAP1 DUP2 ADD SWAP1 PUSH2 0x43AC JUMP JUMPDEST PUSH2 0xD53 JUMP JUMPDEST STOP JUMPDEST CALLVALUE DUP1 ISZERO PUSH2 0x40E JUMPI PUSH1 0x0 DUP1 REVERT JUMPDEST POP PUSH2 0x417 PUSH2 0xE81 JUMP JUMPDEST PUSH1 0x40 MLOAD PUSH2 0x424 SWAP2 SWAP1 PUSH2 0x5E4C JUMP JUMPDEST PUSH1 0x40 MLOAD DUP1 SWAP2 SUB SWAP1 RETURN JUMPDEST CALLVALUE DUP1 ISZERO PUSH2 0x439 JUMPI PUSH1 0x0 DUP1 REVERT JUMPDEST POP PUSH2 0x442 PUSH2 0xE98 JUMP JUMPDEST PUSH1 0x40 MLOAD PUSH2 0x44F SWAP2 SWAP1 PUSH2 0x64B1 JUMP JUMPDEST PUSH1 0x40 MLOAD DUP1 SWAP2 SUB SWAP1 RETURN JUMPDEST CALLVALUE DUP1 ISZERO PUSH2 0x464 JUMPI PUSH1 0x0 DUP1 REVERT JUMPDEST POP PUSH2 0x46D PUSH2 0xE9E JUMP JUMPDEST PUSH1 0x40 MLOAD PUSH2 0x47A SWAP2 SWAP1 PUSH2 0x5C93 JUMP JUMPDEST PUSH1 0x40 MLOAD DUP1 SWAP2 SUB SWAP1 RETURN JUMPDEST CALLVALUE DUP1 ISZERO PUSH2 0x48F JUMPI PUSH1 0x0 DUP1 REVERT JUMPDEST POP PUSH2 0x4AA PUSH1 0x4 DUP1 CALLDATASIZE SUB PUSH2 0x4A5 SWAP2 SWAP1 DUP2 ADD SWAP1 PUSH2 0x43AC JUMP JUMPDEST PUSH2 0xEC4 JUMP JUMPDEST PUSH1 0x40 MLOAD PUSH2 0x4B7 SWAP2 SWAP1 PUSH2 0x64B1 JUMP JUMPDEST PUSH1 0x40 MLOAD DUP1 SWAP2 SUB SWAP1 RETURN JUMPDEST CALLVALUE DUP1 ISZERO PUSH2 0x4CC JUMPI PUSH1 0x0 DUP1 REVERT JUMPDEST POP PUSH2 0x4E7 PUSH1 0x4 DUP1 CALLDATASIZE SUB PUSH2 0x4E2 SWAP2 SWAP1 DUP2 ADD SWAP1 PUSH2 0x43AC JUMP JUMPDEST PUSH2 0x102C JUMP JUMPDEST PUSH1 0x40 MLOAD PUSH2 0x4F7 SWAP5 SWAP4 SWAP3 SWAP2 SWAP1 PUSH2 0x5DEB JUMP JUMPDEST PUSH1 0x40 MLOAD DUP1 SWAP2 SUB SWAP1 RETURN JUMPDEST CALLVALUE DUP1 ISZERO PUSH2 0x50C JUMPI PUSH1 0x0 DUP1 REVERT JUMPDEST POP PUSH2 0x515 PUSH2 0x1309 JUMP JUMPDEST PUSH1 0x40 MLOAD PUSH2 0x522 SWAP2 SWAP1 PUSH2 0x64B1 JUMP JUMPDEST PUSH1 0x40 MLOAD DUP1 SWAP2 SUB SWAP1 RETURN JUMPDEST CALLVALUE DUP1 ISZERO PUSH2 0x537 JUMPI PUSH1 0x0 DUP1 REVERT JUMPDEST POP PUSH2 0x552 PUSH1 0x4 DUP1 CALLDATASIZE SUB PUSH2 0x54D SWAP2 SWAP1 DUP2 ADD SWAP1 PUSH2 0x44E2 JUMP JUMPDEST PUSH2 0x130F JUMP JUMPDEST STOP JUMPDEST CALLVALUE DUP1 ISZERO PUSH2 0x560 JUMPI PUSH1 0x0 DUP1 REVERT JUMPDEST POP PUSH2 0x57B PUSH1 0x4 DUP1 CALLDATASIZE SUB PUSH2 0x576 SWAP2 SWAP1 DUP2 ADD SWAP1 PUSH2 0x43AC JUMP JUMPDEST PUSH2 0x152F JUMP JUMPDEST PUSH1 0x40 MLOAD PUSH2 0x588 SWAP2 SWAP1 PUSH2 0x5F79 JUMP JUMPDEST PUSH1 0x40 MLOAD DUP1 SWAP2 SUB SWAP1 RETURN JUMPDEST CALLVALUE DUP1 ISZERO PUSH2 0x59D JUMPI PUSH1 0x0 DUP1 REVERT JUMPDEST POP PUSH2 0x5B8 PUSH1 0x4 DUP1 CALLDATASIZE SUB PUSH2 0x5B3 SWAP2 SWAP1 DUP2 ADD SWAP1 PUSH2 0x43AC JUMP JUMPDEST PUSH2 0x1712 JUMP JUMPDEST STOP JUMPDEST CALLVALUE DUP1 ISZERO PUSH2 0x5C6 JUMPI PUSH1 0x0 DUP1 REVERT JUMPDEST POP PUSH2 0x5E1 PUSH1 0x4 DUP1 CALLDATASIZE SUB PUSH2 0x5DC SWAP2 SWAP1 DUP2 ADD SWAP1 PUSH2 0x443A JUMP JUMPDEST PUSH2 0x1A9A JUMP JUMPDEST STOP JUMPDEST CALLVALUE DUP1 ISZERO PUSH2 0x5EF JUMPI PUSH1 0x0 DUP1 REVERT JUMPDEST POP PUSH2 0x5F8 PUSH2 0x1AFA JUMP JUMPDEST PUSH1 0x40 MLOAD PUSH2 0x605 SWAP2 SWAP1 PUSH2 0x5C93 JUMP JUMPDEST PUSH1 0x40 MLOAD DUP1 SWAP2 SUB SWAP1 RETURN JUMPDEST CALLVALUE DUP1 ISZERO PUSH2 0x61A JUMPI PUSH1 0x0 DUP1 REVERT JUMPDEST POP PUSH2 0x635 PUSH1 0x4 DUP1 CALLDATASIZE SUB PUSH2 0x630 SWAP2 SWAP1 DUP2 ADD SWAP1 PUSH2 0x41A1 JUMP JUMPDEST PUSH2 0x1B20 JUMP JUMPDEST STOP JUMPDEST CALLVALUE DUP1 ISZERO PUSH2 0x643 JUMPI PUSH1 0x0 DUP1 REVERT JUMPDEST POP PUSH2 0x65E PUSH1 0x4 DUP1 CALLDATASIZE SUB PUSH2 0x659 SWAP2 SWAP1 DUP2 ADD SWAP1 PUSH2 0x4476 JUMP JUMPDEST PUSH2 0x1F69 JUMP JUMPDEST STOP JUMPDEST CALLVALUE DUP1 ISZERO PUSH2 0x66C JUMPI PUSH1 0x0 DUP1 REVERT JUMPDEST POP PUSH2 0x675 PUSH2 0x1FCF JUMP JUMPDEST PUSH1 0x40 MLOAD PUSH2 0x682 SWAP2 SWAP1 PUSH2 0x64B1 JUMP JUMPDEST PUSH1 0x40 MLOAD DUP1 SWAP2 SUB SWAP1 RETURN JUMPDEST CALLVALUE DUP1 ISZERO PUSH2 0x697 JUMPI PUSH1 0x0 DUP1 REVERT JUMPDEST POP PUSH2 0x6A0 PUSH2 0x1FD4 JUMP JUMPDEST PUSH1 0x40 MLOAD PUSH2 0x6AD SWAP2 SWAP1 PUSH2 0x64B1 JUMP JUMPDEST PUSH1 0x40 MLOAD DUP1 SWAP2 SUB SWAP1 RETURN JUMPDEST CALLVALUE DUP1 ISZERO PUSH2 0x6C2 JUMPI PUSH1 0x0 DUP1 REVERT JUMPDEST POP PUSH2 0x6CB PUSH2 0x1FDA JUMP JUMPDEST PUSH1 0x40 MLOAD PUSH2 0x6D8 SWAP2 SWAP1 PUSH2 0x64B1 JUMP JUMPDEST PUSH1 0x40 MLOAD DUP1 SWAP2 SUB SWAP1 RETURN JUMPDEST CALLVALUE DUP1 ISZERO PUSH2 0x6ED JUMPI PUSH1 0x0 DUP1 REVERT JUMPDEST POP PUSH2 0x6F6 PUSH2 0x1FE1 JUMP JUMPDEST PUSH1 0x40 MLOAD PUSH2 0x703 SWAP2 SWAP1 PUSH2 0x64B1 JUMP JUMPDEST PUSH1 0x40 MLOAD DUP1 SWAP2 SUB SWAP1 RETURN JUMPDEST CALLVALUE DUP1 ISZERO PUSH2 0x718 JUMPI PUSH1 0x0 DUP1 REVERT JUMPDEST POP PUSH2 0x721 PUSH2 0x1FE7 JUMP JUMPDEST PUSH1 0x40 MLOAD PUSH2 0x72E SWAP2 SWAP1 PUSH2 0x64B1 JUMP JUMPDEST PUSH1 0x40 MLOAD DUP1 SWAP2 SUB SWAP1 RETURN JUMPDEST CALLVALUE DUP1 ISZERO PUSH2 0x743 JUMPI PUSH1 0x0 DUP1 REVERT JUMPDEST POP PUSH2 0x75E PUSH1 0x4 DUP1 CALLDATASIZE SUB PUSH2 0x759 SWAP2 SWAP1 DUP2 ADD SWAP1 PUSH2 0x4178 JUMP JUMPDEST PUSH2 0x1FED JUMP JUMPDEST STOP JUMPDEST CALLVALUE DUP1 ISZERO PUSH2 0x76C JUMPI PUSH1 0x0 DUP1 REVERT JUMPDEST POP PUSH2 0x775 PUSH2 0x2121 JUMP JUMPDEST PUSH1 0x40 MLOAD PUSH2 0x782 SWAP2 SWAP1 PUSH2 0x64B1 JUMP JUMPDEST PUSH1 0x40 MLOAD DUP1 SWAP2 SUB SWAP1 RETURN JUMPDEST CALLVALUE DUP1 ISZERO PUSH2 0x797 JUMPI PUSH1 0x0 DUP1 REVERT JUMPDEST POP PUSH2 0x7A0 PUSH2 0x2127 JUMP JUMPDEST PUSH1 0x40 MLOAD PUSH2 0x7AD SWAP2 SWAP1 PUSH2 0x5F28 JUMP JUMPDEST PUSH1 0x40 MLOAD DUP1 SWAP2 SUB SWAP1 RETURN JUMPDEST CALLVALUE DUP1 ISZERO PUSH2 0x7C2 JUMPI PUSH1 0x0 DUP1 REVERT JUMPDEST POP PUSH2 0x7CB PUSH2 0x214D JUMP JUMPDEST PUSH1 0x40 MLOAD PUSH2 0x7D8 SWAP2 SWAP1 PUSH2 0x64B1 JUMP JUMPDEST PUSH1 0x40 MLOAD DUP1 SWAP2 SUB SWAP1 RETURN JUMPDEST CALLVALUE DUP1 ISZERO PUSH2 0x7ED JUMPI PUSH1 0x0 DUP1 REVERT JUMPDEST POP PUSH2 0x808 PUSH1 0x4 DUP1 CALLDATASIZE SUB PUSH2 0x803 SWAP2 SWAP1 DUP2 ADD SWAP1 PUSH2 0x422A JUMP JUMPDEST PUSH2 0x2153 JUMP JUMPDEST PUSH1 0x40 MLOAD PUSH2 0x815 SWAP2 SWAP1 PUSH2 0x64B1 JUMP JUMPDEST PUSH1 0x40 MLOAD DUP1 SWAP2 SUB SWAP1 RETURN JUMPDEST CALLVALUE DUP1 ISZERO PUSH2 0x82A JUMPI PUSH1 0x0 DUP1 REVERT JUMPDEST POP PUSH2 0x845 PUSH1 0x4 DUP1 CALLDATASIZE SUB PUSH2 0x840 SWAP2 SWAP1 DUP2 ADD SWAP1 PUSH2 0x43AC JUMP JUMPDEST PUSH2 0x2799 JUMP JUMPDEST STOP JUMPDEST CALLVALUE DUP1 ISZERO PUSH2 0x853 JUMPI PUSH1 0x0 DUP1 REVERT JUMPDEST POP PUSH2 0x85C PUSH2 0x2AE9 JUMP JUMPDEST PUSH1 0x40 MLOAD PUSH2 0x869 SWAP2 SWAP1 PUSH2 0x5E4C JUMP JUMPDEST PUSH1 0x40 MLOAD DUP1 SWAP2 SUB SWAP1 RETURN JUMPDEST CALLVALUE DUP1 ISZERO PUSH2 0x87E JUMPI PUSH1 0x0 DUP1 REVERT JUMPDEST POP PUSH2 0x899 PUSH1 0x4 DUP1 CALLDATASIZE SUB PUSH2 0x894 SWAP2 SWAP1 DUP2 ADD SWAP1 PUSH2 0x43FE JUMP JUMPDEST PUSH2 0x2B00 JUMP JUMPDEST PUSH1 0x40 MLOAD PUSH2 0x8A6 SWAP2 SWAP1 PUSH2 0x6496 JUMP JUMPDEST PUSH1 0x40 MLOAD DUP1 SWAP2 SUB SWAP1 RETURN JUMPDEST CALLVALUE DUP1 ISZERO PUSH2 0x8BB JUMPI PUSH1 0x0 DUP1 REVERT JUMPDEST POP PUSH2 0x8C4 PUSH2 0x2BB0 JUMP JUMPDEST PUSH1 0x40 MLOAD PUSH2 0x8D1 SWAP2 SWAP1 PUSH2 0x64B1 JUMP JUMPDEST PUSH1 0x40 MLOAD DUP1 SWAP2 SUB SWAP1 RETURN JUMPDEST CALLVALUE DUP1 ISZERO PUSH2 0x8E6 JUMPI PUSH1 0x0 DUP1 REVERT JUMPDEST POP PUSH2 0x8EF PUSH2 0x2BB5 JUMP JUMPDEST STOP JUMPDEST CALLVALUE DUP1 ISZERO PUSH2 0x8FD JUMPI PUSH1 0x0 DUP1 REVERT JUMPDEST POP PUSH2 0x906 PUSH2 0x2E28 JUMP JUMPDEST PUSH1 0x40 MLOAD PUSH2 0x913 SWAP2 SWAP1 PUSH2 0x64B1 JUMP JUMPDEST PUSH1 0x40 MLOAD DUP1 SWAP2 SUB SWAP1 RETURN JUMPDEST CALLVALUE DUP1 ISZERO PUSH2 0x928 JUMPI PUSH1 0x0 DUP1 REVERT JUMPDEST POP PUSH2 0x931 PUSH2 0x2E2E JUMP JUMPDEST PUSH1 0x40 MLOAD PUSH2 0x93E SWAP2 SWAP1 PUSH2 0x5C93 JUMP JUMPDEST PUSH1 0x40 MLOAD DUP1 SWAP2 SUB SWAP1 RETURN JUMPDEST CALLVALUE DUP1 ISZERO PUSH2 0x953 JUMPI PUSH1 0x0 DUP1 REVERT JUMPDEST POP PUSH2 0x96E PUSH1 0x4 DUP1 CALLDATASIZE SUB PUSH2 0x969 SWAP2 SWAP1 DUP2 ADD SWAP1 PUSH2 0x4178 JUMP JUMPDEST PUSH2 0x2E53 JUMP JUMPDEST STOP JUMPDEST CALLVALUE DUP1 ISZERO PUSH2 0x97C JUMPI PUSH1 0x0 DUP1 REVERT JUMPDEST POP PUSH2 0x985 PUSH2 0x303B JUMP JUMPDEST PUSH1 0x40 MLOAD PUSH2 0x992 SWAP2 SWAP1 PUSH2 0x64B1 JUMP JUMPDEST PUSH1 0x40 MLOAD DUP1 SWAP2 SUB SWAP1 RETURN JUMPDEST PUSH2 0x9B5 PUSH1 0x4 DUP1 CALLDATASIZE SUB PUSH2 0x9B0 SWAP2 SWAP1 DUP2 ADD SWAP1 PUSH2 0x43AC JUMP JUMPDEST PUSH2 0x3041 JUMP JUMPDEST STOP JUMPDEST PUSH1 0xB PUSH1 0x20 MSTORE DUP1 PUSH1 0x0 MSTORE PUSH1 0x40 PUSH1 0x0 KECCAK256 PUSH1 0x0 SWAP2 POP SWAP1 POP DUP1 PUSH1 0x0 ADD SLOAD SWAP1 DUP1 PUSH1 0x1 ADD PUSH1 0x0 SWAP1 SLOAD SWAP1 PUSH2 0x100 EXP SWAP1 DIV PUSH20 0xFFFFFFFFFFFFFFFFFFFFFFFFFFFFFFFFFFFFFFFF AND SWAP1 DUP1 PUSH1 0x2 ADD SLOAD SWAP1 DUP1 PUSH1 0x7 ADD SLOAD SWAP1 DUP1 PUSH1 0x8 ADD SLOAD SWAP1 DUP1 PUSH1 0x9 ADD SLOAD SWAP1 DUP1 PUSH1 0xA ADD SLOAD SWAP1 DUP1 PUSH1 0xB ADD SLOAD SWAP1 DUP1 PUSH1 0xC ADD SLOAD SWAP1 DUP1 PUSH1 0xD ADD SLOAD SWAP1 DUP1 PUSH1 0xE ADD PUSH1 0x0 SWAP1 SLOAD SWAP1 PUSH2 0x100 EXP SWAP1 DIV PUSH1 0xFF AND SWAP1 DUP1 PUSH1 0xE ADD PUSH1 0x1 SWAP1 SLOAD SWAP1 PUSH2 0x100 EXP SWAP1 DIV PUSH1 0xFF AND SWAP1 POP DUP13 JUMP JUMPDEST PUSH1 0x4 SLOAD DUP2 JUMP JUMPDEST PUSH1 0x40 MLOAD DUP1 PUSH1 0x40 ADD PUSH1 0x40 MSTORE DUP1 PUSH1 0x17 DUP2 MSTORE PUSH1 0x20 ADD PUSH32 0x4F6C796D70757320476F7665726E6F72204F484D656761000000000000000000 DUP2 MSTORE POP DUP2 JUMP JUMPDEST PUSH1 0x9 PUSH1 0x0 SWAP1 SLOAD SWAP1 PUSH2 0x100 EXP SWAP1 DIV PUSH20 0xFFFFFFFFFFFFFFFFFFFFFFFFFFFFFFFFFFFFFFFF AND DUP2 JUMP JUMPDEST PUSH1 0x0 DUP1 SWAP1 SLOAD SWAP1 PUSH2 0x100 EXP SWAP1 DIV PUSH20 0xFFFFFFFFFFFFFFFFFFFFFFFFFFFFFFFFFFFFFFFF AND PUSH20 0xFFFFFFFFFFFFFFFFFFFFFFFFFFFFFFFFFFFFFFFF AND CALLER PUSH20 0xFFFFFFFFFFFFFFFFFFFFFFFFFFFFFFFFFFFFFFFF AND EQ PUSH2 0xB45 JUMPI PUSH1 0x40 MLOAD PUSH32 0x8C379A000000000000000000000000000000000000000000000000000000000 DUP2 MSTORE PUSH1 0x4 ADD PUSH2 0xB3C SWAP1 PUSH2 0x5FD6 JUMP JUMPDEST PUSH1 0x40 MLOAD DUP1 SWAP2 SUB SWAP1 REVERT JUMPDEST PUSH2 0x1680 DUP2 LT ISZERO DUP1 ISZERO PUSH2 0xB5A JUMPI POP PUSH3 0x13B00 DUP2 GT ISZERO JUMPDEST PUSH2 0xB99 JUMPI PUSH1 0x40 MLOAD PUSH32 0x8C379A000000000000000000000000000000000000000000000000000000000 DUP2 MSTORE PUSH1 0x4 ADD PUSH2 0xB90 SWAP1 PUSH2 0x6416 JUMP JUMPDEST PUSH1 0x40 MLOAD DUP1 SWAP2 SUB SWAP1 REVERT JUMPDEST PUSH1 0x0 PUSH1 0x4 SLOAD SWAP1 POP DUP2 PUSH1 0x4 DUP2 SWAP1 SSTORE POP PUSH32 0x7E3F7F0708A84DE9203036ABAA450DCCC85AD5FF52F78C170F3EDB55CF5E8828 DUP2 PUSH1 0x4 SLOAD PUSH1 0x40 MLOAD PUSH2 0xBDA SWAP3 SWAP2 SWAP1 PUSH2 0x6645 JUMP JUMPDEST PUSH1 0x40 MLOAD DUP1 SWAP2 SUB SWAP1 LOG1 POP POP JUMP JUMPDEST PUSH1 0xA PUSH1 0x0 SWAP1 SLOAD SWAP1 PUSH2 0x100 EXP SWAP1 DIV PUSH20 0xFFFFFFFFFFFFFFFFFFFFFFFFFFFFFFFFFFFFFFFF AND DUP2 JUMP JUMPDEST PUSH1 0xC PUSH1 0x20 MSTORE DUP1 PUSH1 0x0 MSTORE PUSH1 0x40 PUSH1 0x0 KECCAK256 PUSH1 0x0 SWAP2 POP SWAP1 POP SLOAD DUP2 JUMP JUMPDEST PUSH1 0x0 DUP1 SWAP1 SLOAD SWAP1 PUSH2 0x100 EXP SWAP1 DIV PUSH20 0xFFFFFFFFFFFFFFFFFFFFFFFFFFFFFFFFFFFFFFFF AND PUSH20 0xFFFFFFFFFFFFFFFFFFFFFFFFFFFFFFFFFFFFFFFF AND CALLER PUSH20 0xFFFFFFFFFFFFFFFFFFFFFFFFFFFFFFFFFFFFFFFF AND EQ PUSH2 0xCB3 JUMPI PUSH1 0x40 MLOAD PUSH32 0x8C379A000000000000000000000000000000000000000000000000000000000 DUP2 MSTORE PUSH1 0x4 ADD PUSH2 0xCAA SWAP1 PUSH2 0x6316 JUMP JUMPDEST PUSH1 0x40 MLOAD DUP1 SWAP2 SUB SWAP1 REVERT JUMPDEST PUSH2 0x1388 DUP2 LT ISZERO DUP1 ISZERO PUSH2 0xCC7 JUMPI POP PUSH2 0x2710 DUP2 GT ISZERO JUMPDEST PUSH2 0xD06 JUMPI PUSH1 0x40 MLOAD PUSH32 0x8C379A000000000000000000000000000000000000000000000000000000000 DUP2 MSTORE PUSH1 0x4 ADD PUSH2 0xCFD SWAP1 PUSH2 0x62B6 JUMP JUMPDEST PUSH1 0x40 MLOAD DUP1 SWAP2 SUB SWAP1 REVERT JUMPDEST PUSH1 0x0 PUSH1 0x5 SLOAD SWAP1 POP DUP2 PUSH1 0x5 DUP2 SWAP1 SSTORE POP PUSH32 0xCCB45DA8D5717E6C4544694297C4BA5CF151D455C9BB0ED4FC7A38411BC05461 DUP2 PUSH1 0x5 SLOAD PUSH1 0x40 MLOAD PUSH2 0xD47 SWAP3 SWAP2 SWAP1 PUSH2 0x6645 JUMP JUMPDEST PUSH1 0x40 MLOAD DUP1 SWAP2 SUB SWAP1 LOG1 POP POP JUMP JUMPDEST PUSH1 0x0 DUP1 SWAP1 SLOAD SWAP1 PUSH2 0x100 EXP SWAP1 DIV PUSH20 0xFFFFFFFFFFFFFFFFFFFFFFFFFFFFFFFFFFFFFFFF AND PUSH20 0xFFFFFFFFFFFFFFFFFFFFFFFFFFFFFFFFFFFFFFFF AND CALLER PUSH20 0xFFFFFFFFFFFFFFFFFFFFFFFFFFFFFFFFFFFFFFFF AND EQ PUSH2 0xDE2 JUMPI PUSH1 0x40 MLOAD PUSH32 0x8C379A000000000000000000000000000000000000000000000000000000000 DUP2 MSTORE PUSH1 0x4 ADD PUSH2 0xDD9 SWAP1 PUSH2 0x6116 JUMP JUMPDEST PUSH1 0x40 MLOAD DUP1 SWAP2 SUB SWAP1 REVERT JUMPDEST PUSH1 0x1 DUP2 LT ISZERO DUP1 ISZERO PUSH2 0xDF5 JUMPI POP PUSH2 0x9D80 DUP2 GT ISZERO JUMPDEST PUSH2 0xE34 JUMPI PUSH1 0x40 MLOAD PUSH32 0x8C379A000000000000000000000000000000000000000000000000000000000 DUP2 MSTORE PUSH1 0x4 ADD PUSH2 0xE2B SWAP1 PUSH2 0x6096 JUMP JUMPDEST PUSH1 0x40 MLOAD DUP1 SWAP2 SUB SWAP1 REVERT JUMPDEST PUSH1 0x0 PUSH1 0x3 SLOAD SWAP1 POP DUP2 PUSH1 0x3 DUP2 SWAP1 SSTORE POP PUSH32 0xC565B045403DC03C2EEA82B81A0465EDAD9E2E7FC4D97E11421C209DA93D7A93 DUP2 PUSH1 0x3 SLOAD PUSH1 0x40 MLOAD PUSH2 0xE75 SWAP3 SWAP2 SWAP1 PUSH2 0x6645 JUMP JUMPDEST PUSH1 0x40 MLOAD DUP1 SWAP2 SUB SWAP1 LOG1 POP POP JUMP JUMPDEST PUSH1 0x40 MLOAD PUSH2 0xE8D SWAP1 PUSH2 0x5C7E JUMP JUMPDEST PUSH1 0x40 MLOAD DUP1 SWAP2 SUB SWAP1 KECCAK256 DUP2 JUMP JUMPDEST PUSH2 0x1680 DUP2 JUMP JUMPDEST PUSH1 0x1 PUSH1 0x0 SWAP1 SLOAD SWAP1 PUSH2 0x100 EXP SWAP1 DIV PUSH20 0xFFFFFFFFFFFFFFFFFFFFFFFFFFFFFFFFFFFFFFFF AND DUP2 JUMP JUMPDEST PUSH1 0x0 PUSH1 0x9 PUSH1 0x0 SWAP1 SLOAD SWAP1 PUSH2 0x100 EXP SWAP1 DIV PUSH20 0xFFFFFFFFFFFFFFFFFFFFFFFFFFFFFFFFFFFFFFFF AND PUSH20 0xFFFFFFFFFFFFFFFFFFFFFFFFFFFFFFFFFFFFFFFF AND PUSH4 0x66A5236C PUSH2 0xFB9 PUSH2 0xFB0 PUSH1 0xA PUSH1 0x0 SWAP1 SLOAD SWAP1 PUSH2 0x100 EXP SWAP1 DIV PUSH20 0xFFFFFFFFFFFFFFFFFFFFFFFFFFFFFFFFFFFFFFFF AND PUSH20 0xFFFFFFFFFFFFFFFFFFFFFFFFFFFFFFFFFFFFFFFF AND PUSH4 0x9358928B PUSH1 0x40 MLOAD DUP2 PUSH4 0xFFFFFFFF AND PUSH1 0xE0 SHL DUP2 MSTORE PUSH1 0x4 ADD PUSH1 0x20 PUSH1 0x40 MLOAD DUP1 DUP4 SUB DUP2 DUP7 DUP1 EXTCODESIZE ISZERO DUP1 ISZERO PUSH2 0xF72 JUMPI PUSH1 0x0 DUP1 REVERT JUMPDEST POP GAS STATICCALL ISZERO DUP1 ISZERO PUSH2 0xF86 JUMPI RETURNDATASIZE PUSH1 0x0 DUP1 RETURNDATACOPY RETURNDATASIZE PUSH1 0x0 REVERT JUMPDEST POP POP POP POP PUSH1 0x40 MLOAD RETURNDATASIZE PUSH1 0x1F NOT PUSH1 0x1F DUP3 ADD AND DUP3 ADD DUP1 PUSH1 0x40 MSTORE POP PUSH2 0xFAA SWAP2 SWAP1 DUP2 ADD SWAP1 PUSH2 0x43D5 JUMP JUMPDEST DUP7 PUSH2 0x328F JUMP JUMPDEST PUSH3 0xF4240 PUSH2 0x32FF JUMP JUMPDEST PUSH1 0x40 MLOAD DUP3 PUSH4 0xFFFFFFFF AND PUSH1 0xE0 SHL DUP2 MSTORE PUSH1 0x4 ADD PUSH2 0xFD5 SWAP2 SWAP1 PUSH2 0x64B1 JUMP JUMPDEST PUSH1 0x20 PUSH1 0x40 MLOAD DUP1 DUP4 SUB DUP2 DUP7 DUP1 EXTCODESIZE ISZERO DUP1 ISZERO PUSH2 0xFED JUMPI PUSH1 0x0 DUP1 REVERT JUMPDEST POP GAS STATICCALL ISZERO DUP1 ISZERO PUSH2 0x1001 JUMPI RETURNDATASIZE PUSH1 0x0 DUP1 RETURNDATACOPY RETURNDATASIZE PUSH1 0x0 REVERT JUMPDEST POP POP POP POP PUSH1 0x40 MLOAD RETURNDATASIZE PUSH1 0x1F NOT PUSH1 0x1F DUP3 ADD AND DUP3 ADD DUP1 PUSH1 0x40 MSTORE POP PUSH2 0x1025 SWAP2 SWAP1 DUP2 ADD SWAP1 PUSH2 0x43D5 JUMP JUMPDEST SWAP1 POP SWAP2 SWAP1 POP JUMP JUMPDEST PUSH1 0x60 DUP1 PUSH1 0x60 DUP1 PUSH1 0x0 PUSH1 0xB PUSH1 0x0 DUP8 DUP2 MSTORE PUSH1 0x20 ADD SWAP1 DUP2 MSTORE PUSH1 0x20 ADD PUSH1 0x0 KECCAK256 SWAP1 POP DUP1 PUSH1 0x3 ADD DUP2 PUSH1 0x4 ADD DUP3 PUSH1 0x5 ADD DUP4 PUSH1 0x6 ADD DUP4 DUP1 SLOAD DUP1 PUSH1 0x20 MUL PUSH1 0x20 ADD PUSH1 0x40 MLOAD SWAP1 DUP2 ADD PUSH1 0x40 MSTORE DUP1 SWAP3 SWAP2 SWAP1 DUP2 DUP2 MSTORE PUSH1 0x20 ADD DUP3 DUP1 SLOAD DUP1 ISZERO PUSH2 0x10DA JUMPI PUSH1 0x20 MUL DUP3 ADD SWAP2 SWAP1 PUSH1 0x0 MSTORE PUSH1 0x20 PUSH1 0x0 KECCAK256 SWAP1 JUMPDEST DUP2 PUSH1 0x0 SWAP1 SLOAD SWAP1 PUSH2 0x100 EXP SWAP1 DIV PUSH20 0xFFFFFFFFFFFFFFFFFFFFFFFFFFFFFFFFFFFFFFFF AND PUSH20 0xFFFFFFFFFFFFFFFFFFFFFFFFFFFFFFFFFFFFFFFF AND DUP2 MSTORE PUSH1 0x20 ADD SWAP1 PUSH1 0x1 ADD SWAP1 DUP1 DUP4 GT PUSH2 0x1090 JUMPI JUMPDEST POP POP POP POP POP SWAP4 POP DUP3 DUP1 SLOAD DUP1 PUSH1 0x20 MUL PUSH1 0x20 ADD PUSH1 0x40 MLOAD SWAP1 DUP2 ADD PUSH1 0x40 MSTORE DUP1 SWAP3 SWAP2 SWAP1 DUP2 DUP2 MSTORE PUSH1 0x20 ADD DUP3 DUP1 SLOAD DUP1 ISZERO PUSH2 0x112C JUMPI PUSH1 0x20 MUL DUP3 ADD SWAP2 SWAP1 PUSH1 0x0 MSTORE PUSH1 0x20 PUSH1 0x0 KECCAK256 SWAP1 JUMPDEST DUP2 SLOAD DUP2 MSTORE PUSH1 0x20 ADD SWAP1 PUSH1 0x1 ADD SWAP1 DUP1 DUP4 GT PUSH2 0x1118 JUMPI JUMPDEST POP POP POP POP POP SWAP3 POP DUP2 DUP1 SLOAD DUP1 PUSH1 0x20 MUL PUSH1 0x20 ADD PUSH1 0x40 MLOAD SWAP1 DUP2 ADD PUSH1 0x40 MSTORE DUP1 SWAP3 SWAP2 SWAP1 DUP2 DUP2 MSTORE PUSH1 0x20 ADD PUSH1 0x0 SWAP1 JUMPDEST DUP3 DUP3 LT ISZERO PUSH2 0x1210 JUMPI DUP4 DUP3 SWAP1 PUSH1 0x0 MSTORE PUSH1 0x20 PUSH1 0x0 KECCAK256 ADD DUP1 SLOAD PUSH1 0x1 DUP2 PUSH1 0x1 AND ISZERO PUSH2 0x100 MUL SUB AND PUSH1 0x2 SWAP1 DIV DUP1 PUSH1 0x1F ADD PUSH1 0x20 DUP1 SWAP2 DIV MUL PUSH1 0x20 ADD PUSH1 0x40 MLOAD SWAP1 DUP2 ADD PUSH1 0x40 MSTORE DUP1 SWAP3 SWAP2 SWAP1 DUP2 DUP2 MSTORE PUSH1 0x20 ADD DUP3 DUP1 SLOAD PUSH1 0x1 DUP2 PUSH1 0x1 AND ISZERO PUSH2 0x100 MUL SUB AND PUSH1 0x2 SWAP1 DIV DUP1 ISZERO PUSH2 0x11FC JUMPI DUP1 PUSH1 0x1F LT PUSH2 0x11D1 JUMPI PUSH2 0x100 DUP1 DUP4 SLOAD DIV MUL DUP4 MSTORE SWAP2 PUSH1 0x20 ADD SWAP2 PUSH2 0x11FC JUMP JUMPDEST DUP3 ADD SWAP2 SWAP1 PUSH1 0x0 MSTORE PUSH1 0x20 PUSH1 0x0 KECCAK256 SWAP1 JUMPDEST DUP2 SLOAD DUP2 MSTORE SWAP1 PUSH1 0x1 ADD SWAP1 PUSH1 0x20 ADD DUP1 DUP4 GT PUSH2 0x11DF JUMPI DUP3 SWAP1 SUB PUSH1 0x1F AND DUP3 ADD SWAP2 JUMPDEST POP POP POP POP POP DUP2 MSTORE PUSH1 0x20 ADD SWAP1 PUSH1 0x1 ADD SWAP1 PUSH2 0x1154 JUMP JUMPDEST POP POP POP POP SWAP2 POP DUP1 DUP1 SLOAD DUP1 PUSH1 0x20 MUL PUSH1 0x20 ADD PUSH1 0x40 MLOAD SWAP1 DUP2 ADD PUSH1 0x40 MSTORE DUP1 SWAP3 SWAP2 SWAP1 DUP2 DUP2 MSTORE PUSH1 0x20 ADD PUSH1 0x0 SWAP1 JUMPDEST DUP3 DUP3 LT ISZERO PUSH2 0x12F3 JUMPI DUP4 DUP3 SWAP1 PUSH1 0x0 MSTORE PUSH1 0x20 PUSH1 0x0 KECCAK256 ADD DUP1 SLOAD PUSH1 0x1 DUP2 PUSH1 0x1 AND ISZERO PUSH2 0x100 MUL SUB AND PUSH1 0x2 SWAP1 DIV DUP1 PUSH1 0x1F ADD PUSH1 0x20 DUP1 SWAP2 DIV MUL PUSH1 0x20 ADD PUSH1 0x40 MLOAD SWAP1 DUP2 ADD PUSH1 0x40 MSTORE DUP1 SWAP3 SWAP2 SWAP1 DUP2 DUP2 MSTORE PUSH1 0x20 ADD DUP3 DUP1 SLOAD PUSH1 0x1 DUP2 PUSH1 0x1 AND ISZERO PUSH2 0x100 MUL SUB AND PUSH1 0x2 SWAP1 DIV DUP1 ISZERO PUSH2 0x12DF JUMPI DUP1 PUSH1 0x1F LT PUSH2 0x12B4 JUMPI PUSH2 0x100 DUP1 DUP4 SLOAD DIV MUL DUP4 MSTORE SWAP2 PUSH1 0x20 ADD SWAP2 PUSH2 0x12DF JUMP JUMPDEST DUP3 ADD SWAP2 SWAP1 PUSH1 0x0 MSTORE PUSH1 0x20 PUSH1 0x0 KECCAK256 SWAP1 JUMPDEST DUP2 SLOAD DUP2 MSTORE SWAP1 PUSH1 0x1 ADD SWAP1 PUSH1 0x20 ADD DUP1 DUP4 GT PUSH2 0x12C2 JUMPI DUP3 SWAP1 SUB PUSH1 0x1F AND DUP3 ADD SWAP2 JUMPDEST POP POP POP POP POP DUP2 MSTORE PUSH1 0x20 ADD SWAP1 PUSH1 0x1 ADD SWAP1 PUSH2 0x1237 JUMP JUMPDEST POP POP POP POP SWAP1 POP SWAP5 POP SWAP5 POP SWAP5 POP SWAP5 POP POP SWAP2 SWAP4 POP SWAP2 SWAP4 JUMP JUMPDEST PUSH1 0x3 SLOAD DUP2 JUMP JUMPDEST PUSH1 0x0 PUSH1 0x40 MLOAD PUSH2 0x131D SWAP1 PUSH2 0x5C7E JUMP JUMPDEST PUSH1 0x40 MLOAD DUP1 SWAP2 SUB SWAP1 KECCAK256 PUSH1 0x40 MLOAD DUP1 PUSH1 0x40 ADD PUSH1 0x40 MSTORE DUP1 PUSH1 0x17 DUP2 MSTORE PUSH1 0x20 ADD PUSH32 0x4F6C796D70757320476F7665726E6F72204F484D656761000000000000000000 DUP2 MSTORE POP DUP1 MLOAD SWAP1 PUSH1 0x20 ADD KECCAK256 PUSH2 0x136A PUSH2 0x335B JUMP JUMPDEST ADDRESS PUSH1 0x40 MLOAD PUSH1 0x20 ADD PUSH2 0x137E SWAP5 SWAP4 SWAP3 SWAP2 SWAP1 PUSH2 0x5E67 JUMP JUMPDEST PUSH1 0x40 MLOAD PUSH1 0x20 DUP2 DUP4 SUB SUB DUP2 MSTORE SWAP1 PUSH1 0x40 MSTORE DUP1 MLOAD SWAP1 PUSH1 0x20 ADD KECCAK256 SWAP1 POP PUSH1 0x0 PUSH1 0x40 MLOAD PUSH2 0x13A4 SWAP1 PUSH2 0x5C32 JUMP JUMPDEST PUSH1 0x40 MLOAD DUP1 SWAP2 SUB SWAP1 KECCAK256 DUP8 DUP8 PUSH1 0x40 MLOAD PUSH1 0x20 ADD PUSH2 0x13C0 SWAP4 SWAP3 SWAP2 SWAP1 PUSH2 0x5EAC JUMP JUMPDEST PUSH1 0x40 MLOAD PUSH1 0x20 DUP2 DUP4 SUB SUB DUP2 MSTORE SWAP1 PUSH1 0x40 MSTORE DUP1 MLOAD SWAP1 PUSH1 0x20 ADD KECCAK256 SWAP1 POP PUSH1 0x0 DUP3 DUP3 PUSH1 0x40 MLOAD PUSH1 0x20 ADD PUSH2 0x13ED SWAP3 SWAP2 SWAP1 PUSH2 0x5C47 JUMP JUMPDEST PUSH1 0x40 MLOAD PUSH1 0x20 DUP2 DUP4 SUB SUB DUP2 MSTORE SWAP1 PUSH1 0x40 MSTORE DUP1 MLOAD SWAP1 PUSH1 0x20 ADD KECCAK256 SWAP1 POP PUSH1 0x0 PUSH1 0x1 DUP3 DUP9 DUP9 DUP9 PUSH1 0x40 MLOAD PUSH1 0x0 DUP2 MSTORE PUSH1 0x20 ADD PUSH1 0x40 MSTORE PUSH1 0x40 MLOAD PUSH2 0x142A SWAP5 SWAP4 SWAP3 SWAP2 SWAP1 PUSH2 0x5EE3 JUMP JUMPDEST PUSH1 0x20 PUSH1 0x40 MLOAD PUSH1 0x20 DUP2 SUB SWAP1 DUP1 DUP5 SUB SWAP1 DUP6 GAS STATICCALL ISZERO DUP1 ISZERO PUSH2 0x144C JUMPI RETURNDATASIZE PUSH1 0x0 DUP1 RETURNDATACOPY RETURNDATASIZE PUSH1 0x0 REVERT JUMPDEST POP POP POP PUSH1 0x20 PUSH1 0x40 MLOAD SUB MLOAD SWAP1 POP PUSH1 0x0 PUSH20 0xFFFFFFFFFFFFFFFFFFFFFFFFFFFFFFFFFFFFFFFF AND DUP2 PUSH20 0xFFFFFFFFFFFFFFFFFFFFFFFFFFFFFFFFFFFFFFFF AND EQ ISZERO PUSH2 0x14C8 JUMPI PUSH1 0x40 MLOAD PUSH32 0x8C379A000000000000000000000000000000000000000000000000000000000 DUP2 MSTORE PUSH1 0x4 ADD PUSH2 0x14BF SWAP1 PUSH2 0x62D6 JUMP JUMPDEST PUSH1 0x40 MLOAD DUP1 SWAP2 SUB SWAP1 REVERT JUMPDEST DUP1 PUSH20 0xFFFFFFFFFFFFFFFFFFFFFFFFFFFFFFFFFFFFFFFF AND PUSH32 0xB8E138887D0AA13BAB447E82DE9D5C1777041ECD21CA36BA824FF1E6C07DDDA4 DUP11 DUP11 PUSH2 0x150D DUP6 DUP15 DUP15 PUSH2 0x3368 JUMP JUMPDEST PUSH1 0x40 MLOAD PUSH2 0x151C SWAP4 SWAP3 SWAP2 SWAP1 PUSH2 0x66BC JUMP JUMPDEST PUSH1 0x40 MLOAD DUP1 SWAP2 SUB SWAP1 LOG2 POP POP POP POP POP POP POP POP POP JUMP JUMPDEST PUSH1 0x0 DUP2 PUSH1 0x7 SLOAD LT ISZERO DUP1 ISZERO PUSH2 0x1544 JUMPI POP PUSH1 0x6 SLOAD DUP3 GT JUMPDEST PUSH2 0x1583 JUMPI PUSH1 0x40 MLOAD PUSH32 0x8C379A000000000000000000000000000000000000000000000000000000000 DUP2 MSTORE PUSH1 0x4 ADD PUSH2 0x157A SWAP1 PUSH2 0x6336 JUMP JUMPDEST PUSH1 0x40 MLOAD DUP1 SWAP2 SUB SWAP1 REVERT JUMPDEST PUSH1 0x0 PUSH1 0xB PUSH1 0x0 DUP5 DUP2 MSTORE PUSH1 0x20 ADD SWAP1 DUP2 MSTORE PUSH1 0x20 ADD PUSH1 0x0 KECCAK256 SWAP1 POP DUP1 PUSH1 0xE ADD PUSH1 0x0 SWAP1 SLOAD SWAP1 PUSH2 0x100 EXP SWAP1 DIV PUSH1 0xFF AND ISZERO PUSH2 0x15BB JUMPI PUSH1 0x2 SWAP2 POP POP PUSH2 0x170D JUMP JUMPDEST DUP1 PUSH1 0x7 ADD SLOAD NUMBER GT PUSH2 0x15D0 JUMPI PUSH1 0x0 SWAP2 POP POP PUSH2 0x170D JUMP JUMPDEST DUP1 PUSH1 0x8 ADD SLOAD NUMBER GT PUSH2 0x15E5 JUMPI PUSH1 0x1 SWAP2 POP POP PUSH2 0x170D JUMP JUMPDEST DUP1 PUSH1 0xA ADD SLOAD DUP2 PUSH1 0x9 ADD SLOAD GT ISZERO DUP1 PUSH2 0x1603 JUMPI POP DUP1 PUSH1 0xD ADD SLOAD DUP2 PUSH1 0x9 ADD SLOAD LT JUMPDEST ISZERO PUSH2 0x1612 JUMPI PUSH1 0x3 SWAP2 POP POP PUSH2 0x170D JUMP JUMPDEST PUSH1 0x0 DUP2 PUSH1 0x2 ADD SLOAD EQ ISZERO PUSH2 0x1629 JUMPI PUSH1 0x4 SWAP2 POP POP PUSH2 0x170D JUMP JUMPDEST DUP1 PUSH1 0xE ADD PUSH1 0x1 SWAP1 SLOAD SWAP1 PUSH2 0x100 EXP SWAP1 DIV PUSH1 0xFF AND ISZERO PUSH2 0x164A JUMPI PUSH1 0x7 SWAP2 POP POP PUSH2 0x170D JUMP JUMPDEST PUSH2 0x16F7 DUP2 PUSH1 0x2 ADD SLOAD PUSH1 0x8 PUSH1 0x0 SWAP1 SLOAD SWAP1 PUSH2 0x100 EXP SWAP1 DIV PUSH20 0xFFFFFFFFFFFFFFFFFFFFFFFFFFFFFFFFFFFFFFFF AND PUSH20 0xFFFFFFFFFFFFFFFFFFFFFFFFFFFFFFFFFFFFFFFF AND PUSH4 0xC1A287E2 PUSH1 0x40 MLOAD DUP2 PUSH4 0xFFFFFFFF AND PUSH1 0xE0 SHL DUP2 MSTORE PUSH1 0x4 ADD PUSH1 0x20 PUSH1 0x40 MLOAD DUP1 DUP4 SUB DUP2 DUP7 DUP1 EXTCODESIZE ISZERO DUP1 ISZERO PUSH2 0x16BA JUMPI PUSH1 0x0 DUP1 REVERT JUMPDEST POP GAS STATICCALL ISZERO DUP1 ISZERO PUSH2 0x16CE JUMPI RETURNDATASIZE PUSH1 0x0 DUP1 RETURNDATACOPY RETURNDATASIZE PUSH1 0x0 REVERT JUMPDEST POP POP POP POP PUSH1 0x40 MLOAD RETURNDATASIZE PUSH1 0x1F NOT PUSH1 0x1F DUP3 ADD AND DUP3 ADD DUP1 PUSH1 0x40 MSTORE POP PUSH2 0x16F2 SWAP2 SWAP1 DUP2 ADD SWAP1 PUSH2 0x43D5 JUMP JUMPDEST PUSH2 0x363E JUMP JUMPDEST TIMESTAMP LT PUSH2 0x1707 JUMPI PUSH1 0x6 SWAP2 POP POP PUSH2 0x170D JUMP JUMPDEST PUSH1 0x5 SWAP2 POP POP JUMPDEST SWAP2 SWAP1 POP JUMP JUMPDEST PUSH1 0x7 DUP1 DUP2 GT ISZERO PUSH2 0x171E JUMPI INVALID JUMPDEST PUSH2 0x1727 DUP3 PUSH2 0x152F JUMP JUMPDEST PUSH1 0x7 DUP2 GT ISZERO PUSH2 0x1732 JUMPI INVALID JUMPDEST EQ ISZERO PUSH2 0x1773 JUMPI PUSH1 0x40 MLOAD PUSH32 0x8C379A000000000000000000000000000000000000000000000000000000000 DUP2 MSTORE PUSH1 0x4 ADD PUSH2 0x176A SWAP1 PUSH2 0x6136 JUMP JUMPDEST PUSH1 0x40 MLOAD DUP1 SWAP2 SUB SWAP1 REVERT JUMPDEST PUSH1 0x0 PUSH1 0xB PUSH1 0x0 DUP4 DUP2 MSTORE PUSH1 0x20 ADD SWAP1 DUP2 MSTORE PUSH1 0x20 ADD PUSH1 0x0 KECCAK256 SWAP1 POP DUP1 PUSH1 0x1 ADD PUSH1 0x0 SWAP1 SLOAD SWAP1 PUSH2 0x100 EXP SWAP1 DIV PUSH20 0xFFFFFFFFFFFFFFFFFFFFFFFFFFFFFFFFFFFFFFFF AND PUSH20 0xFFFFFFFFFFFFFFFFFFFFFFFFFFFFFFFFFFFFFFFF AND CALLER PUSH20 0xFFFFFFFFFFFFFFFFFFFFFFFFFFFFFFFFFFFFFFFF AND EQ DUP1 PUSH2 0x18C5 JUMPI POP DUP1 PUSH1 0xC ADD SLOAD PUSH1 0x9 PUSH1 0x0 SWAP1 SLOAD SWAP1 PUSH2 0x100 EXP SWAP1 DIV PUSH20 0xFFFFFFFFFFFFFFFFFFFFFFFFFFFFFFFFFFFFFFFF AND PUSH20 0xFFFFFFFFFFFFFFFFFFFFFFFFFFFFFFFFFFFFFFFF AND PUSH4 0x782D6FE1 DUP4 PUSH1 0x1 ADD PUSH1 0x0 SWAP1 SLOAD SWAP1 PUSH2 0x100 EXP SWAP1 DIV PUSH20 0xFFFFFFFFFFFFFFFFFFFFFFFFFFFFFFFFFFFFFFFF AND PUSH2 0x1856 NUMBER PUSH1 0x1 PUSH2 0x3693 JUMP JUMPDEST PUSH1 0x40 MLOAD DUP4 PUSH4 0xFFFFFFFF AND PUSH1 0xE0 SHL DUP2 MSTORE PUSH1 0x4 ADD PUSH2 0x1873 SWAP3 SWAP2 SWAP1 PUSH2 0x5D00 JUMP JUMPDEST PUSH1 0x20 PUSH1 0x40 MLOAD DUP1 DUP4 SUB DUP2 DUP7 DUP1 EXTCODESIZE ISZERO DUP1 ISZERO PUSH2 0x188B JUMPI PUSH1 0x0 DUP1 REVERT JUMPDEST POP GAS STATICCALL ISZERO DUP1 ISZERO PUSH2 0x189F JUMPI RETURNDATASIZE PUSH1 0x0 DUP1 RETURNDATACOPY RETURNDATASIZE PUSH1 0x0 REVERT JUMPDEST POP POP POP POP PUSH1 0x40 MLOAD RETURNDATASIZE PUSH1 0x1F NOT PUSH1 0x1F DUP3 ADD AND DUP3 ADD DUP1 PUSH1 0x40 MSTORE POP PUSH2 0x18C3 SWAP2 SWAP1 DUP2 ADD SWAP1 PUSH2 0x43D5 JUMP JUMPDEST LT JUMPDEST PUSH2 0x1904 JUMPI PUSH1 0x40 MLOAD PUSH32 0x8C379A000000000000000000000000000000000000000000000000000000000 DUP2 MSTORE PUSH1 0x4 ADD PUSH2 0x18FB SWAP1 PUSH2 0x61B6 JUMP JUMPDEST PUSH1 0x40 MLOAD DUP1 SWAP2 SUB SWAP1 REVERT JUMPDEST PUSH1 0x1 DUP2 PUSH1 0xE ADD PUSH1 0x0 PUSH2 0x100 EXP DUP2 SLOAD DUP2 PUSH1 0xFF MUL NOT AND SWAP1 DUP4 ISZERO ISZERO MUL OR SWAP1 SSTORE POP PUSH1 0x0 DUP1 SWAP1 POP JUMPDEST DUP2 PUSH1 0x3 ADD DUP1 SLOAD SWAP1 POP DUP2 LT ISZERO PUSH2 0x1A5E JUMPI PUSH1 0x8 PUSH1 0x0 SWAP1 SLOAD SWAP1 PUSH2 0x100 EXP SWAP1 DIV PUSH20 0xFFFFFFFFFFFFFFFFFFFFFFFFFFFFFFFFFFFFFFFF AND PUSH20 0xFFFFFFFFFFFFFFFFFFFFFFFFFFFFFFFFFFFFFFFF AND PUSH4 0x591FCDFE DUP4 PUSH1 0x3 ADD DUP4 DUP2 SLOAD DUP2 LT PUSH2 0x1983 JUMPI INVALID JUMPDEST SWAP1 PUSH1 0x0 MSTORE PUSH1 0x20 PUSH1 0x0 KECCAK256 ADD PUSH1 0x0 SWAP1 SLOAD SWAP1 PUSH2 0x100 EXP SWAP1 DIV PUSH20 0xFFFFFFFFFFFFFFFFFFFFFFFFFFFFFFFFFFFFFFFF AND DUP5 PUSH1 0x4 ADD DUP5 DUP2 SLOAD DUP2 LT PUSH2 0x19BD JUMPI INVALID JUMPDEST SWAP1 PUSH1 0x0 MSTORE PUSH1 0x20 PUSH1 0x0 KECCAK256 ADD SLOAD DUP6 PUSH1 0x5 ADD DUP6 DUP2 SLOAD DUP2 LT PUSH2 0x19D7 JUMPI INVALID JUMPDEST SWAP1 PUSH1 0x0 MSTORE PUSH1 0x20 PUSH1 0x0 KECCAK256 ADD DUP7 PUSH1 0x6 ADD DUP7 DUP2 SLOAD DUP2 LT PUSH2 0x19F0 JUMPI INVALID JUMPDEST SWAP1 PUSH1 0x0 MSTORE PUSH1 0x20 PUSH1 0x0 KECCAK256 ADD DUP8 PUSH1 0x2 ADD SLOAD PUSH1 0x40 MLOAD DUP7 PUSH4 0xFFFFFFFF AND PUSH1 0xE0 SHL DUP2 MSTORE PUSH1 0x4 ADD PUSH2 0x1A1F SWAP6 SWAP5 SWAP4 SWAP3 SWAP2 SWAP1 PUSH2 0x5D8A JUMP JUMPDEST PUSH1 0x0 PUSH1 0x40 MLOAD DUP1 DUP4 SUB DUP2 PUSH1 0x0 DUP8 DUP1 EXTCODESIZE ISZERO DUP1 ISZERO PUSH2 0x1A39 JUMPI PUSH1 0x0 DUP1 REVERT JUMPDEST POP GAS CALL ISZERO DUP1 ISZERO PUSH2 0x1A4D JUMPI RETURNDATASIZE PUSH1 0x0 DUP1 RETURNDATACOPY RETURNDATASIZE PUSH1 0x0 REVERT JUMPDEST POP POP POP POP DUP1 DUP1 PUSH1 0x1 ADD SWAP2 POP POP PUSH2 0x1927 JUMP JUMPDEST POP PUSH32 0x789CF55BE980739DAD1D0699B93B58E806B51C9D96619BFA8FE0A28ABAA7B30C DUP3 PUSH1 0x40 MLOAD PUSH2 0x1A8E SWAP2 SWAP1 PUSH2 0x64B1 JUMP JUMPDEST PUSH1 0x40 MLOAD DUP1 SWAP2 SUB SWAP1 LOG1 POP POP JUMP JUMPDEST CALLER PUSH20 0xFFFFFFFFFFFFFFFFFFFFFFFFFFFFFFFFFFFFFFFF AND PUSH32 0xB8E138887D0AA13BAB447E82DE9D5C1777041ECD21CA36BA824FF1E6C07DDDA4 DUP4 DUP4 PUSH2 0x1ADF CALLER DUP8 DUP8 PUSH2 0x3368 JUMP JUMPDEST PUSH1 0x40 MLOAD PUSH2 0x1AEE SWAP4 SWAP3 SWAP2 SWAP1 PUSH2 0x66BC JUMP JUMPDEST PUSH1 0x40 MLOAD DUP1 SWAP2 SUB SWAP1 LOG2 POP POP JUMP JUMPDEST PUSH1 0x2 PUSH1 0x0 SWAP1 SLOAD SWAP1 PUSH2 0x100 EXP SWAP1 DIV PUSH20 0xFFFFFFFFFFFFFFFFFFFFFFFFFFFFFFFFFFFFFFFF AND DUP2 JUMP JUMPDEST PUSH1 0x0 PUSH20 0xFFFFFFFFFFFFFFFFFFFFFFFFFFFFFFFFFFFFFFFF AND PUSH1 0x8 PUSH1 0x0 SWAP1 SLOAD SWAP1 PUSH2 0x100 EXP SWAP1 DIV PUSH20 0xFFFFFFFFFFFFFFFFFFFFFFFFFFFFFFFFFFFFFFFF AND PUSH20 0xFFFFFFFFFFFFFFFFFFFFFFFFFFFFFFFFFFFFFFFF AND EQ PUSH2 0x1BB1 JUMPI PUSH1 0x40 MLOAD PUSH32 0x8C379A000000000000000000000000000000000000000000000000000000000 DUP2 MSTORE PUSH1 0x4 ADD PUSH2 0x1BA8 SWAP1 PUSH2 0x6216 JUMP JUMPDEST PUSH1 0x40 MLOAD DUP1 SWAP2 SUB SWAP1 REVERT JUMPDEST PUSH1 0x0 DUP1 SWAP1 SLOAD SWAP1 PUSH2 0x100 EXP SWAP1 DIV PUSH20 0xFFFFFFFFFFFFFFFFFFFFFFFFFFFFFFFFFFFFFFFF AND PUSH20 0xFFFFFFFFFFFFFFFFFFFFFFFFFFFFFFFFFFFFFFFF AND CALLER PUSH20 0xFFFFFFFFFFFFFFFFFFFFFFFFFFFFFFFFFFFFFFFF AND EQ PUSH2 0x1C40 JUMPI PUSH1 0x40 MLOAD PUSH32 0x8C379A000000000000000000000000000000000000000000000000000000000 DUP2 MSTORE PUSH1 0x4 ADD PUSH2 0x1C37 SWAP1 PUSH2 0x63D6 JUMP JUMPDEST PUSH1 0x40 MLOAD DUP1 SWAP2 SUB SWAP1 REVERT JUMPDEST PUSH1 0x0 PUSH20 0xFFFFFFFFFFFFFFFFFFFFFFFFFFFFFFFFFFFFFFFF AND DUP7 PUSH20 0xFFFFFFFFFFFFFFFFFFFFFFFFFFFFFFFFFFFFFFFF AND EQ ISZERO PUSH2 0x1CB0 JUMPI PUSH1 0x40 MLOAD PUSH32 0x8C379A000000000000000000000000000000000000000000000000000000000 DUP2 MSTORE PUSH1 0x4 ADD PUSH2 0x1CA7 SWAP1 PUSH2 0x6256 JUMP JUMPDEST PUSH1 0x40 MLOAD DUP1 SWAP2 SUB SWAP1 REVERT JUMPDEST PUSH1 0x0 PUSH20 0xFFFFFFFFFFFFFFFFFFFFFFFFFFFFFFFFFFFFFFFF AND DUP6 PUSH20 0xFFFFFFFFFFFFFFFFFFFFFFFFFFFFFFFFFFFFFFFF AND EQ ISZERO PUSH2 0x1D20 JUMPI PUSH1 0x40 MLOAD PUSH32 0x8C379A000000000000000000000000000000000000000000000000000000000 DUP2 MSTORE PUSH1 0x4 ADD PUSH2 0x1D17 SWAP1 PUSH2 0x61D6 JUMP JUMPDEST PUSH1 0x40 MLOAD DUP1 SWAP2 SUB SWAP1 REVERT JUMPDEST PUSH1 0x0 PUSH20 0xFFFFFFFFFFFFFFFFFFFFFFFFFFFFFFFFFFFFFFFF AND DUP5 PUSH20 0xFFFFFFFFFFFFFFFFFFFFFFFFFFFFFFFFFFFFFFFF AND EQ ISZERO PUSH2 0x1D90 JUMPI PUSH1 0x40 MLOAD PUSH32 0x8C379A000000000000000000000000000000000000000000000000000000000 DUP2 MSTORE PUSH1 0x4 ADD PUSH2 0x1D87 SWAP1 PUSH2 0x5FB6 JUMP JUMPDEST PUSH1 0x40 MLOAD DUP1 SWAP2 SUB SWAP1 REVERT JUMPDEST PUSH2 0x1680 DUP4 LT ISZERO DUP1 ISZERO PUSH2 0x1DA5 JUMPI POP PUSH3 0x13B00 DUP4 GT ISZERO JUMPDEST PUSH2 0x1DE4 JUMPI PUSH1 0x40 MLOAD PUSH32 0x8C379A000000000000000000000000000000000000000000000000000000000 DUP2 MSTORE PUSH1 0x4 ADD PUSH2 0x1DDB SWAP1 PUSH2 0x6296 JUMP JUMPDEST PUSH1 0x40 MLOAD DUP1 SWAP2 SUB SWAP1 REVERT JUMPDEST PUSH1 0x1 DUP3 LT ISZERO DUP1 ISZERO PUSH2 0x1DF7 JUMPI POP PUSH2 0x9D80 DUP3 GT ISZERO JUMPDEST PUSH2 0x1E36 JUMPI PUSH1 0x40 MLOAD PUSH32 0x8C379A000000000000000000000000000000000000000000000000000000000 DUP2 MSTORE PUSH1 0x4 ADD PUSH2 0x1E2D SWAP1 PUSH2 0x6056 JUMP JUMPDEST PUSH1 0x40 MLOAD DUP1 SWAP2 SUB SWAP1 REVERT JUMPDEST PUSH2 0x1388 DUP2 LT ISZERO DUP1 ISZERO PUSH2 0x1E4A JUMPI POP PUSH2 0x2710 DUP2 GT ISZERO JUMPDEST PUSH2 0x1E89 JUMPI PUSH1 0x40 MLOAD PUSH32 0x8C379A000000000000000000000000000000000000000000000000000000000 DUP2 MSTORE PUSH1 0x4 ADD PUSH2 0x1E80 SWAP1 PUSH2 0x6456 JUMP JUMPDEST PUSH1 0x40 MLOAD DUP1 SWAP2 SUB SWAP1 REVERT JUMPDEST DUP6 PUSH1 0x8 PUSH1 0x0 PUSH2 0x100 EXP DUP2 SLOAD DUP2 PUSH20 0xFFFFFFFFFFFFFFFFFFFFFFFFFFFFFFFFFFFFFFFF MUL NOT AND SWAP1 DUP4 PUSH20 0xFFFFFFFFFFFFFFFFFFFFFFFFFFFFFFFFFFFFFFFF AND MUL OR SWAP1 SSTORE POP DUP5 PUSH1 0xA PUSH1 0x0 PUSH2 0x100 EXP DUP2 SLOAD DUP2 PUSH20 0xFFFFFFFFFFFFFFFFFFFFFFFFFFFFFFFFFFFFFFFF MUL NOT AND SWAP1 DUP4 PUSH20 0xFFFFFFFFFFFFFFFFFFFFFFFFFFFFFFFFFFFFFFFF AND MUL OR SWAP1 SSTORE POP DUP4 PUSH1 0x9 PUSH1 0x0 PUSH2 0x100 EXP DUP2 SLOAD DUP2 PUSH20 0xFFFFFFFFFFFFFFFFFFFFFFFFFFFFFFFFFFFFFFFF MUL NOT AND SWAP1 DUP4 PUSH20 0xFFFFFFFFFFFFFFFFFFFFFFFFFFFFFFFFFFFFFFFF AND MUL OR SWAP1 SSTORE POP DUP3 PUSH1 0x4 DUP2 SWAP1 SSTORE POP DUP2 PUSH1 0x3 DUP2 SWAP1 SSTORE POP DUP1 PUSH1 0x5 DUP2 SWAP1 SSTORE POP POP POP POP POP POP POP JUMP JUMPDEST CALLER PUSH20 0xFFFFFFFFFFFFFFFFFFFFFFFFFFFFFFFFFFFFFFFF AND PUSH32 0xB8E138887D0AA13BAB447E82DE9D5C1777041ECD21CA36BA824FF1E6C07DDDA4 DUP6 DUP6 PUSH2 0x1FAE CALLER DUP10 DUP10 PUSH2 0x3368 JUMP JUMPDEST DUP7 DUP7 PUSH1 0x40 MLOAD PUSH2 0x1FC1 SWAP6 SWAP5 SWAP4 SWAP3 SWAP2 SWAP1 PUSH2 0x666E JUMP JUMPDEST PUSH1 0x40 MLOAD DUP1 SWAP2 SUB SWAP1 LOG2 POP POP POP POP JUMP JUMPDEST PUSH1 0xA DUP2 JUMP JUMPDEST PUSH2 0x2710 DUP2 JUMP JUMPDEST PUSH3 0x13B00 DUP2 JUMP JUMPDEST PUSH2 0x9D80 DUP2 JUMP JUMPDEST PUSH1 0x5 SLOAD DUP2 JUMP JUMPDEST PUSH1 0x0 DUP1 SWAP1 SLOAD SWAP1 PUSH2 0x100 EXP SWAP1 DIV PUSH20 0xFFFFFFFFFFFFFFFFFFFFFFFFFFFFFFFFFFFFFFFF AND PUSH20 0xFFFFFFFFFFFFFFFFFFFFFFFFFFFFFFFFFFFFFFFF AND CALLER PUSH20 0xFFFFFFFFFFFFFFFFFFFFFFFFFFFFFFFFFFFFFFFF AND EQ PUSH2 0x207C JUMPI PUSH1 0x40 MLOAD PUSH32 0x8C379A000000000000000000000000000000000000000000000000000000000 DUP2 MSTORE PUSH1 0x4 ADD PUSH2 0x2073 SWAP1 PUSH2 0x60D6 JUMP JUMPDEST PUSH1 0x40 MLOAD DUP1 SWAP2 SUB SWAP1 REVERT JUMPDEST PUSH1 0x0 PUSH1 0x1 PUSH1 0x0 SWAP1 SLOAD SWAP1 PUSH2 0x100 EXP SWAP1 DIV PUSH20 0xFFFFFFFFFFFFFFFFFFFFFFFFFFFFFFFFFFFFFFFF AND SWAP1 POP DUP2 PUSH1 0x1 PUSH1 0x0 PUSH2 0x100 EXP DUP2 SLOAD DUP2 PUSH20 0xFFFFFFFFFFFFFFFFFFFFFFFFFFFFFFFFFFFFFFFF MUL NOT AND SWAP1 DUP4 PUSH20 0xFFFFFFFFFFFFFFFFFFFFFFFFFFFFFFFFFFFFFFFF AND MUL OR SWAP1 SSTORE POP PUSH32 0xCA4F2F25D0898EDD99413412FB94012F9E54EC8142F9B093E7720646A95B16A9 DUP2 DUP4 PUSH1 0x40 MLOAD PUSH2 0x2115 SWAP3 SWAP2 SWAP1 PUSH2 0x5CD7 JUMP JUMPDEST PUSH1 0x40 MLOAD DUP1 SWAP2 SUB SWAP1 LOG1 POP POP JUMP JUMPDEST PUSH2 0x1388 DUP2 JUMP JUMPDEST PUSH1 0x8 PUSH1 0x0 SWAP1 SLOAD SWAP1 PUSH2 0x100 EXP SWAP1 DIV PUSH20 0xFFFFFFFFFFFFFFFFFFFFFFFFFFFFFFFFFFFFFFFF AND DUP2 JUMP JUMPDEST PUSH1 0x7 SLOAD DUP2 JUMP JUMPDEST PUSH1 0x0 DUP1 PUSH1 0x6 SLOAD EQ ISZERO PUSH2 0x219A JUMPI PUSH1 0x40 MLOAD PUSH32 0x8C379A000000000000000000000000000000000000000000000000000000000 DUP2 MSTORE PUSH1 0x4 ADD PUSH2 0x2191 SWAP1 PUSH2 0x60F6 JUMP JUMPDEST PUSH1 0x40 MLOAD DUP1 SWAP2 SUB SWAP1 REVERT JUMPDEST PUSH2 0x21A5 PUSH1 0x5 SLOAD PUSH2 0xEC4 JUMP JUMPDEST PUSH1 0x9 PUSH1 0x0 SWAP1 SLOAD SWAP1 PUSH2 0x100 EXP SWAP1 DIV PUSH20 0xFFFFFFFFFFFFFFFFFFFFFFFFFFFFFFFFFFFFFFFF AND PUSH20 0xFFFFFFFFFFFFFFFFFFFFFFFFFFFFFFFFFFFFFFFF AND PUSH4 0x782D6FE1 CALLER PUSH2 0x21EF NUMBER PUSH1 0x1 PUSH2 0x3693 JUMP JUMPDEST PUSH1 0x40 MLOAD DUP4 PUSH4 0xFFFFFFFF AND PUSH1 0xE0 SHL DUP2 MSTORE PUSH1 0x4 ADD PUSH2 0x220C SWAP3 SWAP2 SWAP1 PUSH2 0x5CAE JUMP JUMPDEST PUSH1 0x20 PUSH1 0x40 MLOAD DUP1 DUP4 SUB DUP2 DUP7 DUP1 EXTCODESIZE ISZERO DUP1 ISZERO PUSH2 0x2224 JUMPI PUSH1 0x0 DUP1 REVERT JUMPDEST POP GAS STATICCALL ISZERO DUP1 ISZERO PUSH2 0x2238 JUMPI RETURNDATASIZE PUSH1 0x0 DUP1 RETURNDATACOPY RETURNDATASIZE PUSH1 0x0 REVERT JUMPDEST POP POP POP POP PUSH1 0x40 MLOAD RETURNDATASIZE PUSH1 0x1F NOT PUSH1 0x1F DUP3 ADD AND DUP3 ADD DUP1 PUSH1 0x40 MSTORE POP PUSH2 0x225C SWAP2 SWAP1 DUP2 ADD SWAP1 PUSH2 0x43D5 JUMP JUMPDEST GT PUSH2 0x229C JUMPI PUSH1 0x40 MLOAD PUSH32 0x8C379A000000000000000000000000000000000000000000000000000000000 DUP2 MSTORE PUSH1 0x4 ADD PUSH2 0x2293 SWAP1 PUSH2 0x6016 JUMP JUMPDEST PUSH1 0x40 MLOAD DUP1 SWAP2 SUB SWAP1 REVERT JUMPDEST DUP5 MLOAD DUP7 MLOAD EQ DUP1 ISZERO PUSH2 0x22AE JUMPI POP DUP4 MLOAD DUP7 MLOAD EQ JUMPDEST DUP1 ISZERO PUSH2 0x22BB JUMPI POP DUP3 MLOAD DUP7 MLOAD EQ JUMPDEST PUSH2 0x22FA JUMPI PUSH1 0x40 MLOAD PUSH32 0x8C379A000000000000000000000000000000000000000000000000000000000 DUP2 MSTORE PUSH1 0x4 ADD PUSH2 0x22F1 SWAP1 PUSH2 0x6196 JUMP JUMPDEST PUSH1 0x40 MLOAD DUP1 SWAP2 SUB SWAP1 REVERT JUMPDEST PUSH1 0x0 DUP7 MLOAD EQ ISZERO PUSH2 0x233F JUMPI PUSH1 0x40 MLOAD PUSH32 0x8C379A000000000000000000000000000000000000000000000000000000000 DUP2 MSTORE PUSH1 0x4 ADD PUSH2 0x2336 SWAP1 PUSH2 0x6376 JUMP JUMPDEST PUSH1 0x40 MLOAD DUP1 SWAP2 SUB SWAP1 REVERT JUMPDEST PUSH1 0xA DUP7 MLOAD GT ISZERO PUSH2 0x2384 JUMPI PUSH1 0x40 MLOAD PUSH32 0x8C379A000000000000000000000000000000000000000000000000000000000 DUP2 MSTORE PUSH1 0x4 ADD PUSH2 0x237B SWAP1 PUSH2 0x6176 JUMP JUMPDEST PUSH1 0x40 MLOAD DUP1 SWAP2 SUB SWAP1 REVERT JUMPDEST PUSH1 0x0 PUSH1 0xC PUSH1 0x0 CALLER PUSH20 0xFFFFFFFFFFFFFFFFFFFFFFFFFFFFFFFFFFFFFFFF AND PUSH20 0xFFFFFFFFFFFFFFFFFFFFFFFFFFFFFFFFFFFFFFFF AND DUP2 MSTORE PUSH1 0x20 ADD SWAP1 DUP2 MSTORE PUSH1 0x20 ADD PUSH1 0x0 KECCAK256 SLOAD SWAP1 POP PUSH1 0x0 DUP2 EQ PUSH2 0x2493 JUMPI PUSH1 0x0 PUSH2 0x23DB DUP3 PUSH2 0x152F JUMP JUMPDEST SWAP1 POP PUSH1 0x1 PUSH1 0x7 DUP2 GT ISZERO PUSH2 0x23EA JUMPI INVALID JUMPDEST DUP2 PUSH1 0x7 DUP2 GT ISZERO PUSH2 0x23F6 JUMPI INVALID JUMPDEST EQ ISZERO PUSH2 0x2437 JUMPI PUSH1 0x40 MLOAD PUSH32 0x8C379A000000000000000000000000000000000000000000000000000000000 DUP2 MSTORE PUSH1 0x4 ADD PUSH2 0x242E SWAP1 PUSH2 0x63F6 JUMP JUMPDEST PUSH1 0x40 MLOAD DUP1 SWAP2 SUB SWAP1 REVERT JUMPDEST PUSH1 0x0 PUSH1 0x7 DUP2 GT ISZERO PUSH2 0x2444 JUMPI INVALID JUMPDEST DUP2 PUSH1 0x7 DUP2 GT ISZERO PUSH2 0x2450 JUMPI INVALID JUMPDEST EQ ISZERO PUSH2 0x2491 JUMPI PUSH1 0x40 MLOAD PUSH32 0x8C379A000000000000000000000000000000000000000000000000000000000 DUP2 MSTORE PUSH1 0x4 ADD PUSH2 0x2488 SWAP1 PUSH2 0x60B6 JUMP JUMPDEST PUSH1 0x40 MLOAD DUP1 SWAP2 SUB SWAP1 REVERT JUMPDEST POP JUMPDEST PUSH1 0x0 PUSH2 0x24A1 NUMBER PUSH1 0x3 SLOAD PUSH2 0x363E JUMP JUMPDEST SWAP1 POP PUSH1 0x0 PUSH2 0x24B1 DUP3 PUSH1 0x4 SLOAD PUSH2 0x363E JUMP JUMPDEST SWAP1 POP PUSH1 0x7 PUSH1 0x0 DUP2 SLOAD DUP1 SWAP3 SWAP2 SWAP1 PUSH1 0x1 ADD SWAP2 SWAP1 POP SSTORE POP PUSH2 0x24CD PUSH2 0x38B9 JUMP JUMPDEST PUSH1 0x40 MLOAD DUP1 PUSH2 0x200 ADD PUSH1 0x40 MSTORE DUP1 PUSH1 0x7 SLOAD DUP2 MSTORE PUSH1 0x20 ADD CALLER PUSH20 0xFFFFFFFFFFFFFFFFFFFFFFFFFFFFFFFFFFFFFFFF AND DUP2 MSTORE PUSH1 0x20 ADD PUSH1 0x0 DUP2 MSTORE PUSH1 0x20 ADD DUP12 DUP2 MSTORE PUSH1 0x20 ADD DUP11 DUP2 MSTORE PUSH1 0x20 ADD DUP10 DUP2 MSTORE PUSH1 0x20 ADD DUP9 DUP2 MSTORE PUSH1 0x20 ADD DUP5 DUP2 MSTORE PUSH1 0x20 ADD DUP4 DUP2 MSTORE PUSH1 0x20 ADD PUSH1 0x0 DUP2 MSTORE PUSH1 0x20 ADD PUSH1 0x0 DUP2 MSTORE PUSH1 0x20 ADD PUSH1 0x0 DUP2 MSTORE PUSH1 0x20 ADD PUSH2 0x2548 PUSH1 0x5 SLOAD PUSH2 0xEC4 JUMP JUMPDEST DUP2 MSTORE PUSH1 0x20 ADD PUSH2 0x2558 PUSH2 0x9C40 PUSH2 0xEC4 JUMP JUMPDEST DUP2 MSTORE PUSH1 0x20 ADD PUSH1 0x0 ISZERO ISZERO DUP2 MSTORE PUSH1 0x20 ADD PUSH1 0x0 ISZERO ISZERO DUP2 MSTORE POP SWAP1 POP DUP1 PUSH1 0xB PUSH1 0x0 DUP4 PUSH1 0x0 ADD MLOAD DUP2 MSTORE PUSH1 0x20 ADD SWAP1 DUP2 MSTORE PUSH1 0x20 ADD PUSH1 0x0 KECCAK256 PUSH1 0x0 DUP3 ADD MLOAD DUP2 PUSH1 0x0 ADD SSTORE PUSH1 0x20 DUP3 ADD MLOAD DUP2 PUSH1 0x1 ADD PUSH1 0x0 PUSH2 0x100 EXP DUP2 SLOAD DUP2 PUSH20 0xFFFFFFFFFFFFFFFFFFFFFFFFFFFFFFFFFFFFFFFF MUL NOT AND SWAP1 DUP4 PUSH20 0xFFFFFFFFFFFFFFFFFFFFFFFFFFFFFFFFFFFFFFFF AND MUL OR SWAP1 SSTORE POP PUSH1 0x40 DUP3 ADD MLOAD DUP2 PUSH1 0x2 ADD SSTORE PUSH1 0x60 DUP3 ADD MLOAD DUP2 PUSH1 0x3 ADD SWAP1 DUP1 MLOAD SWAP1 PUSH1 0x20 ADD SWAP1 PUSH2 0x25FE SWAP3 SWAP2 SWAP1 PUSH2 0x3950 JUMP JUMPDEST POP PUSH1 0x80 DUP3 ADD MLOAD DUP2 PUSH1 0x4 ADD SWAP1 DUP1 MLOAD SWAP1 PUSH1 0x20 ADD SWAP1 PUSH2 0x261B SWAP3 SWAP2 SWAP1 PUSH2 0x39DA JUMP JUMPDEST POP PUSH1 0xA0 DUP3 ADD MLOAD DUP2 PUSH1 0x5 ADD SWAP1 DUP1 MLOAD SWAP1 PUSH1 0x20 ADD SWAP1 PUSH2 0x2638 SWAP3 SWAP2 SWAP1 PUSH2 0x3A27 JUMP JUMPDEST POP PUSH1 0xC0 DUP3 ADD MLOAD DUP2 PUSH1 0x6 ADD SWAP1 DUP1 MLOAD SWAP1 PUSH1 0x20 ADD SWAP1 PUSH2 0x2655 SWAP3 SWAP2 SWAP1 PUSH2 0x3A87 JUMP JUMPDEST POP PUSH1 0xE0 DUP3 ADD MLOAD DUP2 PUSH1 0x7 ADD SSTORE PUSH2 0x100 DUP3 ADD MLOAD DUP2 PUSH1 0x8 ADD SSTORE PUSH2 0x120 DUP3 ADD MLOAD DUP2 PUSH1 0x9 ADD SSTORE PUSH2 0x140 DUP3 ADD MLOAD DUP2 PUSH1 0xA ADD SSTORE PUSH2 0x160 DUP3 ADD MLOAD DUP2 PUSH1 0xB ADD SSTORE PUSH2 0x180 DUP3 ADD MLOAD DUP2 PUSH1 0xC ADD SSTORE PUSH2 0x1A0 DUP3 ADD MLOAD DUP2 PUSH1 0xD ADD SSTORE PUSH2 0x1C0 DUP3 ADD MLOAD DUP2 PUSH1 0xE ADD PUSH1 0x0 PUSH2 0x100 EXP DUP2 SLOAD DUP2 PUSH1 0xFF MUL NOT AND SWAP1 DUP4 ISZERO ISZERO MUL OR SWAP1 SSTORE POP PUSH2 0x1E0 DUP3 ADD MLOAD DUP2 PUSH1 0xE ADD PUSH1 0x1 PUSH2 0x100 EXP DUP2 SLOAD DUP2 PUSH1 0xFF MUL NOT AND SWAP1 DUP4 ISZERO ISZERO MUL OR SWAP1 SSTORE POP SWAP1 POP POP DUP1 PUSH1 0x0 ADD MLOAD PUSH1 0xC PUSH1 0x0 DUP4 PUSH1 0x20 ADD MLOAD PUSH20 0xFFFFFFFFFFFFFFFFFFFFFFFFFFFFFFFFFFFFFFFF AND PUSH20 0xFFFFFFFFFFFFFFFFFFFFFFFFFFFFFFFFFFFFFFFF AND DUP2 MSTORE PUSH1 0x20 ADD SWAP1 DUP2 MSTORE PUSH1 0x20 ADD PUSH1 0x0 KECCAK256 DUP2 SWAP1 SSTORE POP PUSH32 0x5F3F8DA802EE6AFDE8D4395E43C640A216EED19AA3E90C7EDA8CE88CB2954C4D DUP2 PUSH1 0x0 ADD MLOAD CALLER DUP13 DUP13 DUP13 DUP13 DUP10 DUP10 DUP10 PUSH2 0x1A0 ADD MLOAD DUP16 PUSH1 0x40 MLOAD PUSH2 0x277D SWAP11 SWAP10 SWAP9 SWAP8 SWAP7 SWAP6 SWAP5 SWAP4 SWAP3 SWAP2 SWAP1 PUSH2 0x64CC JUMP JUMPDEST PUSH1 0x40 MLOAD DUP1 SWAP2 SUB SWAP1 LOG1 DUP1 PUSH1 0x0 ADD MLOAD SWAP5 POP POP POP POP POP SWAP6 SWAP5 POP POP POP POP POP JUMP JUMPDEST PUSH1 0x4 PUSH1 0x7 DUP2 GT ISZERO PUSH2 0x27A6 JUMPI INVALID JUMPDEST PUSH2 0x27AF DUP3 PUSH2 0x152F JUMP JUMPDEST PUSH1 0x7 DUP2 GT ISZERO PUSH2 0x27BA JUMPI INVALID JUMPDEST EQ PUSH2 0x27FA JUMPI PUSH1 0x40 MLOAD PUSH32 0x8C379A000000000000000000000000000000000000000000000000000000000 DUP2 MSTORE PUSH1 0x4 ADD PUSH2 0x27F1 SWAP1 PUSH2 0x6036 JUMP JUMPDEST PUSH1 0x40 MLOAD DUP1 SWAP2 SUB SWAP1 REVERT JUMPDEST PUSH1 0x0 PUSH1 0xB PUSH1 0x0 DUP4 DUP2 MSTORE PUSH1 0x20 ADD SWAP1 DUP2 MSTORE PUSH1 0x20 ADD PUSH1 0x0 KECCAK256 SWAP1 POP PUSH1 0x0 PUSH2 0x28BC TIMESTAMP PUSH1 0x8 PUSH1 0x0 SWAP1 SLOAD SWAP1 PUSH2 0x100 EXP SWAP1 DIV PUSH20 0xFFFFFFFFFFFFFFFFFFFFFFFFFFFFFFFFFFFFFFFF AND PUSH20 0xFFFFFFFFFFFFFFFFFFFFFFFFFFFFFFFFFFFFFFFF AND PUSH4 0x6A42B8F8 PUSH1 0x40 MLOAD DUP2 PUSH4 0xFFFFFFFF AND PUSH1 0xE0 SHL DUP2 MSTORE PUSH1 0x4 ADD PUSH1 0x20 PUSH1 0x40 MLOAD DUP1 DUP4 SUB DUP2 DUP7 DUP1 EXTCODESIZE ISZERO DUP1 ISZERO PUSH2 0x287F JUMPI PUSH1 0x0 DUP1 REVERT JUMPDEST POP GAS STATICCALL ISZERO DUP1 ISZERO PUSH2 0x2893 JUMPI RETURNDATASIZE PUSH1 0x0 DUP1 RETURNDATACOPY RETURNDATASIZE PUSH1 0x0 REVERT JUMPDEST POP POP POP POP PUSH1 0x40 MLOAD RETURNDATASIZE PUSH1 0x1F NOT PUSH1 0x1F DUP3 ADD AND DUP3 ADD DUP1 PUSH1 0x40 MSTORE POP PUSH2 0x28B7 SWAP2 SWAP1 DUP2 ADD SWAP1 PUSH2 0x43D5 JUMP JUMPDEST PUSH2 0x363E JUMP JUMPDEST SWAP1 POP PUSH1 0x0 DUP1 SWAP1 POP JUMPDEST DUP3 PUSH1 0x3 ADD DUP1 SLOAD SWAP1 POP DUP2 LT ISZERO PUSH2 0x2AA1 JUMPI PUSH2 0x2A94 DUP4 PUSH1 0x3 ADD DUP3 DUP2 SLOAD DUP2 LT PUSH2 0x28E5 JUMPI INVALID JUMPDEST SWAP1 PUSH1 0x0 MSTORE PUSH1 0x20 PUSH1 0x0 KECCAK256 ADD PUSH1 0x0 SWAP1 SLOAD SWAP1 PUSH2 0x100 EXP SWAP1 DIV PUSH20 0xFFFFFFFFFFFFFFFFFFFFFFFFFFFFFFFFFFFFFFFF AND DUP5 PUSH1 0x4 ADD DUP4 DUP2 SLOAD DUP2 LT PUSH2 0x291F JUMPI INVALID JUMPDEST SWAP1 PUSH1 0x0 MSTORE PUSH1 0x20 PUSH1 0x0 KECCAK256 ADD SLOAD DUP6 PUSH1 0x5 ADD DUP5 DUP2 SLOAD DUP2 LT PUSH2 0x2939 JUMPI INVALID JUMPDEST SWAP1 PUSH1 0x0 MSTORE PUSH1 0x20 PUSH1 0x0 KECCAK256 ADD DUP1 SLOAD PUSH1 0x1 DUP2 PUSH1 0x1 AND ISZERO PUSH2 0x100 MUL SUB AND PUSH1 0x2 SWAP1 DIV DUP1 PUSH1 0x1F ADD PUSH1 0x20 DUP1 SWAP2 DIV MUL PUSH1 0x20 ADD PUSH1 0x40 MLOAD SWAP1 DUP2 ADD PUSH1 0x40 MSTORE DUP1 SWAP3 SWAP2 SWAP1 DUP2 DUP2 MSTORE PUSH1 0x20 ADD DUP3 DUP1 SLOAD PUSH1 0x1 DUP2 PUSH1 0x1 AND ISZERO PUSH2 0x100 MUL SUB AND PUSH1 0x2 SWAP1 DIV DUP1 ISZERO PUSH2 0x29D7 JUMPI DUP1 PUSH1 0x1F LT PUSH2 0x29AC JUMPI PUSH2 0x100 DUP1 DUP4 SLOAD DIV MUL DUP4 MSTORE SWAP2 PUSH1 0x20 ADD SWAP2 PUSH2 0x29D7 JUMP JUMPDEST DUP3 ADD SWAP2 SWAP1 PUSH1 0x0 MSTORE PUSH1 0x20 PUSH1 0x0 KECCAK256 SWAP1 JUMPDEST DUP2 SLOAD DUP2 MSTORE SWAP1 PUSH1 0x1 ADD SWAP1 PUSH1 0x20 ADD DUP1 DUP4 GT PUSH2 0x29BA JUMPI DUP3 SWAP1 SUB PUSH1 0x1F AND DUP3 ADD SWAP2 JUMPDEST POP POP POP POP POP DUP7 PUSH1 0x6 ADD DUP6 DUP2 SLOAD DUP2 LT PUSH2 0x29EB JUMPI INVALID JUMPDEST SWAP1 PUSH1 0x0 MSTORE PUSH1 0x20 PUSH1 0x0 KECCAK256 ADD DUP1 SLOAD PUSH1 0x1 DUP2 PUSH1 0x1 AND ISZERO PUSH2 0x100 MUL SUB AND PUSH1 0x2 SWAP1 DIV DUP1 PUSH1 0x1F ADD PUSH1 0x20 DUP1 SWAP2 DIV MUL PUSH1 0x20 ADD PUSH1 0x40 MLOAD SWAP1 DUP2 ADD PUSH1 0x40 MSTORE DUP1 SWAP3 SWAP2 SWAP1 DUP2 DUP2 MSTORE PUSH1 0x20 ADD DUP3 DUP1 SLOAD PUSH1 0x1 DUP2 PUSH1 0x1 AND ISZERO PUSH2 0x100 MUL SUB AND PUSH1 0x2 SWAP1 DIV DUP1 ISZERO PUSH2 0x2A89 JUMPI DUP1 PUSH1 0x1F LT PUSH2 0x2A5E JUMPI PUSH2 0x100 DUP1 DUP4 SLOAD DIV MUL DUP4 MSTORE SWAP2 PUSH1 0x20 ADD SWAP2 PUSH2 0x2A89 JUMP JUMPDEST DUP3 ADD SWAP2 SWAP1 PUSH1 0x0 MSTORE PUSH1 0x20 PUSH1 0x0 KECCAK256 SWAP1 JUMPDEST DUP2 SLOAD DUP2 MSTORE SWAP1 PUSH1 0x1 ADD SWAP1 PUSH1 0x20 ADD DUP1 DUP4 GT PUSH2 0x2A6C JUMPI DUP3 SWAP1 SUB PUSH1 0x1F AND DUP3 ADD SWAP2 JUMPDEST POP POP POP POP POP DUP7 PUSH2 0x36E3 JUMP JUMPDEST DUP1 DUP1 PUSH1 0x1 ADD SWAP2 POP POP PUSH2 0x28C4 JUMP JUMPDEST POP DUP1 DUP3 PUSH1 0x2 ADD DUP2 SWAP1 SSTORE POP PUSH32 0x9A2E42FD6722813D69113E7D0079D3D940171428DF7373DF9C7F7617CFDA2892 DUP4 DUP3 PUSH1 0x40 MLOAD PUSH2 0x2ADC SWAP3 SWAP2 SWAP1 PUSH2 0x6645 JUMP JUMPDEST PUSH1 0x40 MLOAD DUP1 SWAP2 SUB SWAP1 LOG1 POP POP POP JUMP JUMPDEST PUSH1 0x40 MLOAD PUSH2 0x2AF5 SWAP1 PUSH2 0x5C32 JUMP JUMPDEST PUSH1 0x40 MLOAD DUP1 SWAP2 SUB SWAP1 KECCAK256 DUP2 JUMP JUMPDEST PUSH2 0x2B08 PUSH2 0x3AE7 JUMP JUMPDEST PUSH1 0xB PUSH1 0x0 DUP5 DUP2 MSTORE PUSH1 0x20 ADD SWAP1 DUP2 MSTORE PUSH1 0x20 ADD PUSH1 0x0 KECCAK256 PUSH1 0xF ADD PUSH1 0x0 DUP4 PUSH20 0xFFFFFFFFFFFFFFFFFFFFFFFFFFFFFFFFFFFFFFFF AND PUSH20 0xFFFFFFFFFFFFFFFFFFFFFFFFFFFFFFFFFFFFFFFF AND DUP2 MSTORE PUSH1 0x20 ADD SWAP1 DUP2 MSTORE PUSH1 0x20 ADD PUSH1 0x0 KECCAK256 PUSH1 0x40 MLOAD DUP1 PUSH1 0x60 ADD PUSH1 0x40 MSTORE SWAP1 DUP2 PUSH1 0x0 DUP3 ADD PUSH1 0x0 SWAP1 SLOAD SWAP1 PUSH2 0x100 EXP SWAP1 DIV PUSH1 0xFF AND ISZERO ISZERO ISZERO ISZERO DUP2 MSTORE PUSH1 0x20 ADD PUSH1 0x0 DUP3 ADD PUSH1 0x1 SWAP1 SLOAD SWAP1 PUSH2 0x100 EXP SWAP1 DIV PUSH1 0xFF AND PUSH1 0xFF AND PUSH1 0xFF AND DUP2 MSTORE PUSH1 0x20 ADD PUSH1 0x1 DUP3 ADD SLOAD DUP2 MSTORE POP POP SWAP1 POP SWAP3 SWAP2 POP POP JUMP JUMPDEST PUSH1 0x1 DUP2 JUMP JUMPDEST PUSH1 0x1 PUSH1 0x0 SWAP1 SLOAD SWAP1 PUSH2 0x100 EXP SWAP1 DIV PUSH20 0xFFFFFFFFFFFFFFFFFFFFFFFFFFFFFFFFFFFFFFFF AND PUSH20 0xFFFFFFFFFFFFFFFFFFFFFFFFFFFFFFFFFFFFFFFF AND CALLER PUSH20 0xFFFFFFFFFFFFFFFFFFFFFFFFFFFFFFFFFFFFFFFF AND EQ DUP1 ISZERO PUSH2 0x2C3F JUMPI POP PUSH1 0x0 PUSH20 0xFFFFFFFFFFFFFFFFFFFFFFFFFFFFFFFFFFFFFFFF AND CALLER PUSH20 0xFFFFFFFFFFFFFFFFFFFFFFFFFFFFFFFFFFFFFFFF AND EQ ISZERO JUMPDEST PUSH2 0x2C7E JUMPI PUSH1 0x40 MLOAD PUSH32 0x8C379A000000000000000000000000000000000000000000000000000000000 DUP2 MSTORE PUSH1 0x4 ADD PUSH2 0x2C75 SWAP1 PUSH2 0x5FF6 JUMP JUMPDEST PUSH1 0x40 MLOAD DUP1 SWAP2 SUB SWAP1 REVERT JUMPDEST PUSH1 0x0 DUP1 PUSH1 0x0 SWAP1 SLOAD SWAP1 PUSH2 0x100 EXP SWAP1 DIV PUSH20 0xFFFFFFFFFFFFFFFFFFFFFFFFFFFFFFFFFFFFFFFF AND SWAP1 POP PUSH1 0x0 PUSH1 0x1 PUSH1 0x0 SWAP1 SLOAD SWAP1 PUSH2 0x100 EXP SWAP1 DIV PUSH20 0xFFFFFFFFFFFFFFFFFFFFFFFFFFFFFFFFFFFFFFFF AND SWAP1 POP PUSH1 0x1 PUSH1 0x0 SWAP1 SLOAD SWAP1 PUSH2 0x100 EXP SWAP1 DIV PUSH20 0xFFFFFFFFFFFFFFFFFFFFFFFFFFFFFFFFFFFFFFFF AND PUSH1 0x0 DUP1 PUSH2 0x100 EXP DUP2 SLOAD DUP2 PUSH20 0xFFFFFFFFFFFFFFFFFFFFFFFFFFFFFFFFFFFFFFFF MUL NOT AND SWAP1 DUP4 PUSH20 0xFFFFFFFFFFFFFFFFFFFFFFFFFFFFFFFFFFFFFFFF AND MUL OR SWAP1 SSTORE POP PUSH1 0x0 PUSH1 0x1 PUSH1 0x0 PUSH2 0x100 EXP DUP2 SLOAD DUP2 PUSH20 0xFFFFFFFFFFFFFFFFFFFFFFFFFFFFFFFFFFFFFFFF MUL NOT AND SWAP1 DUP4 PUSH20 0xFFFFFFFFFFFFFFFFFFFFFFFFFFFFFFFFFFFFFFFF AND MUL OR SWAP1 SSTORE POP PUSH32 0xF9FFABCA9C8276E99321725BCB43FB076A6C66A54B7F21C4E8146D8519B417DC DUP3 PUSH1 0x0 DUP1 SWAP1 SLOAD SWAP1 PUSH2 0x100 EXP SWAP1 DIV PUSH20 0xFFFFFFFFFFFFFFFFFFFFFFFFFFFFFFFFFFFFFFFF AND PUSH1 0x40 MLOAD PUSH2 0x2DC1 SWAP3 SWAP2 SWAP1 PUSH2 0x5CD7 JUMP JUMPDEST PUSH1 0x40 MLOAD DUP1 SWAP2 SUB SWAP1 LOG1 PUSH32 0xCA4F2F25D0898EDD99413412FB94012F9E54EC8142F9B093E7720646A95B16A9 DUP2 PUSH1 0x1 PUSH1 0x0 SWAP1 SLOAD SWAP1 PUSH2 0x100 EXP SWAP1 DIV PUSH20 0xFFFFFFFFFFFFFFFFFFFFFFFFFFFFFFFFFFFFFFFF AND PUSH1 0x40 MLOAD PUSH2 0x2E1C SWAP3 SWAP2 SWAP1 PUSH2 0x5CD7 JUMP JUMPDEST PUSH1 0x40 MLOAD DUP1 SWAP2 SUB SWAP1 LOG1 POP POP JUMP JUMPDEST PUSH2 0x9C40 DUP2 JUMP JUMPDEST PUSH1 0x0 DUP1 SWAP1 SLOAD SWAP1 PUSH2 0x100 EXP SWAP1 DIV PUSH20 0xFFFFFFFFFFFFFFFFFFFFFFFFFFFFFFFFFFFFFFFF AND DUP2 JUMP JUMPDEST PUSH1 0x0 DUP1 SWAP1 SLOAD SWAP1 PUSH2 0x100 EXP SWAP1 DIV PUSH20 0xFFFFFFFFFFFFFFFFFFFFFFFFFFFFFFFFFFFFFFFF AND PUSH20 0xFFFFFFFFFFFFFFFFFFFFFFFFFFFFFFFFFFFFFFFF AND CALLER PUSH20 0xFFFFFFFFFFFFFFFFFFFFFFFFFFFFFFFFFFFFFFFF AND EQ PUSH2 0x2EE2 JUMPI PUSH1 0x40 MLOAD PUSH32 0x8C379A000000000000000000000000000000000000000000000000000000000 DUP2 MSTORE PUSH1 0x4 ADD PUSH2 0x2ED9 SWAP1 PUSH2 0x6356 JUMP JUMPDEST PUSH1 0x40 MLOAD DUP1 SWAP2 SUB SWAP1 REVERT JUMPDEST PUSH1 0x0 PUSH1 0x6 SLOAD EQ PUSH2 0x2F27 JUMPI PUSH1 0x40 MLOAD PUSH32 0x8C379A000000000000000000000000000000000000000000000000000000000 DUP2 MSTORE PUSH1 0x4 ADD PUSH2 0x2F1E SWAP1 PUSH2 0x6436 JUMP JUMPDEST PUSH1 0x40 MLOAD DUP1 SWAP2 SUB SWAP1 REVERT JUMPDEST DUP1 PUSH20 0xFFFFFFFFFFFFFFFFFFFFFFFFFFFFFFFFFFFFFFFF AND PUSH4 0xDA35C664 PUSH1 0x40 MLOAD DUP2 PUSH4 0xFFFFFFFF AND PUSH1 0xE0 SHL DUP2 MSTORE PUSH1 0x4 ADD PUSH1 0x20 PUSH1 0x40 MLOAD DUP1 DUP4 SUB DUP2 PUSH1 0x0 DUP8 DUP1 EXTCODESIZE ISZERO DUP1 ISZERO PUSH2 0x2F6F JUMPI PUSH1 0x0 DUP1 REVERT JUMPDEST POP GAS CALL ISZERO DUP1 ISZERO PUSH2 0x2F83 JUMPI RETURNDATASIZE PUSH1 0x0 DUP1 RETURNDATACOPY RETURNDATASIZE PUSH1 0x0 REVERT JUMPDEST POP POP POP POP PUSH1 0x40 MLOAD RETURNDATASIZE PUSH1 0x1F NOT PUSH1 0x1F DUP3 ADD AND DUP3 ADD DUP1 PUSH1 0x40 MSTORE POP PUSH2 0x2FA7 SWAP2 SWAP1 DUP2 ADD SWAP1 PUSH2 0x43D5 JUMP JUMPDEST PUSH1 0x7 DUP2 SWAP1 SSTORE POP PUSH1 0x7 SLOAD PUSH1 0x6 DUP2 SWAP1 SSTORE POP PUSH1 0x8 PUSH1 0x0 SWAP1 SLOAD SWAP1 PUSH2 0x100 EXP SWAP1 DIV PUSH20 0xFFFFFFFFFFFFFFFFFFFFFFFFFFFFFFFFFFFFFFFF AND PUSH20 0xFFFFFFFFFFFFFFFFFFFFFFFFFFFFFFFFFFFFFFFF AND PUSH4 0xE18B681 PUSH1 0x40 MLOAD DUP2 PUSH4 0xFFFFFFFF AND PUSH1 0xE0 SHL DUP2 MSTORE PUSH1 0x4 ADD PUSH1 0x0 PUSH1 0x40 MLOAD DUP1 DUP4 SUB DUP2 PUSH1 0x0 DUP8 DUP1 EXTCODESIZE ISZERO DUP1 ISZERO PUSH2 0x3020 JUMPI PUSH1 0x0 DUP1 REVERT JUMPDEST POP GAS CALL ISZERO DUP1 ISZERO PUSH2 0x3034 JUMPI RETURNDATASIZE PUSH1 0x0 DUP1 RETURNDATACOPY RETURNDATASIZE PUSH1 0x0 REVERT JUMPDEST POP POP POP POP POP JUMP JUMPDEST PUSH1 0x6 SLOAD DUP2 JUMP JUMPDEST PUSH1 0x5 PUSH1 0x7 DUP2 GT ISZERO PUSH2 0x304E JUMPI INVALID JUMPDEST PUSH2 0x3057 DUP3 PUSH2 0x152F JUMP JUMPDEST PUSH1 0x7 DUP2 GT ISZERO PUSH2 0x3062 JUMPI INVALID JUMPDEST EQ PUSH2 0x30A2 JUMPI PUSH1 0x40 MLOAD PUSH32 0x8C379A000000000000000000000000000000000000000000000000000000000 DUP2 MSTORE PUSH1 0x4 ADD PUSH2 0x3099 SWAP1 PUSH2 0x62F6 JUMP JUMPDEST PUSH1 0x40 MLOAD DUP1 SWAP2 SUB SWAP1 REVERT JUMPDEST PUSH1 0x0 PUSH1 0xB PUSH1 0x0 DUP4 DUP2 MSTORE PUSH1 0x20 ADD SWAP1 DUP2 MSTORE PUSH1 0x20 ADD PUSH1 0x0 KECCAK256 SWAP1 POP PUSH1 0x1 DUP2 PUSH1 0xE ADD PUSH1 0x1 PUSH2 0x100 EXP DUP2 SLOAD DUP2 PUSH1 0xFF MUL NOT AND SWAP1 DUP4 ISZERO ISZERO MUL OR SWAP1 SSTORE POP PUSH1 0x0 DUP1 SWAP1 POP JUMPDEST DUP2 PUSH1 0x3 ADD DUP1 SLOAD SWAP1 POP DUP2 LT ISZERO PUSH2 0x3253 JUMPI PUSH1 0x8 PUSH1 0x0 SWAP1 SLOAD SWAP1 PUSH2 0x100 EXP SWAP1 DIV PUSH20 0xFFFFFFFFFFFFFFFFFFFFFFFFFFFFFFFFFFFFFFFF AND PUSH20 0xFFFFFFFFFFFFFFFFFFFFFFFFFFFFFFFFFFFFFFFF AND PUSH4 0x825F38F DUP4 PUSH1 0x4 ADD DUP4 DUP2 SLOAD DUP2 LT PUSH2 0x3138 JUMPI INVALID JUMPDEST SWAP1 PUSH1 0x0 MSTORE PUSH1 0x20 PUSH1 0x0 KECCAK256 ADD SLOAD DUP5 PUSH1 0x3 ADD DUP5 DUP2 SLOAD DUP2 LT PUSH2 0x3152 JUMPI INVALID JUMPDEST SWAP1 PUSH1 0x0 MSTORE PUSH1 0x20 PUSH1 0x0 KECCAK256 ADD PUSH1 0x0 SWAP1 SLOAD SWAP1 PUSH2 0x100 EXP SWAP1 DIV PUSH20 0xFFFFFFFFFFFFFFFFFFFFFFFFFFFFFFFFFFFFFFFF AND DUP6 PUSH1 0x4 ADD DUP6 DUP2 SLOAD DUP2 LT PUSH2 0x318C JUMPI INVALID JUMPDEST SWAP1 PUSH1 0x0 MSTORE PUSH1 0x20 PUSH1 0x0 KECCAK256 ADD SLOAD DUP7 PUSH1 0x5 ADD DUP7 DUP2 SLOAD DUP2 LT PUSH2 0x31A6 JUMPI INVALID JUMPDEST SWAP1 PUSH1 0x0 MSTORE PUSH1 0x20 PUSH1 0x0 KECCAK256 ADD DUP8 PUSH1 0x6 ADD DUP8 DUP2 SLOAD DUP2 LT PUSH2 0x31BF JUMPI INVALID JUMPDEST SWAP1 PUSH1 0x0 MSTORE PUSH1 0x20 PUSH1 0x0 KECCAK256 ADD DUP9 PUSH1 0x2 ADD SLOAD PUSH1 0x40 MLOAD DUP8 PUSH4 0xFFFFFFFF AND PUSH1 0xE0 SHL DUP2 MSTORE PUSH1 0x4 ADD PUSH2 0x31EE SWAP6 SWAP5 SWAP4 SWAP3 SWAP2 SWAP1 PUSH2 0x5D8A JUMP JUMPDEST PUSH1 0x0 PUSH1 0x40 MLOAD DUP1 DUP4 SUB DUP2 DUP6 DUP9 DUP1 EXTCODESIZE ISZERO DUP1 ISZERO PUSH2 0x3207 JUMPI PUSH1 0x0 DUP1 REVERT JUMPDEST POP GAS CALL ISZERO DUP1 ISZERO PUSH2 0x321B JUMPI RETURNDATASIZE PUSH1 0x0 DUP1 RETURNDATACOPY RETURNDATASIZE PUSH1 0x0 REVERT JUMPDEST POP POP POP POP POP PUSH1 0x40 MLOAD RETURNDATASIZE PUSH1 0x0 DUP3 RETURNDATACOPY RETURNDATASIZE PUSH1 0x1F NOT PUSH1 0x1F DUP3 ADD AND DUP3 ADD DUP1 PUSH1 0x40 MSTORE POP PUSH2 0x3245 SWAP2 SWAP1 DUP2 ADD SWAP1 PUSH2 0x436B JUMP JUMPDEST POP DUP1 DUP1 PUSH1 0x1 ADD SWAP2 POP POP PUSH2 0x30DC JUMP JUMPDEST POP PUSH32 0x712AE1383F79AC853F8D882153778E0260EF8F03B504E2866E0593E04D2B291F DUP3 PUSH1 0x40 MLOAD PUSH2 0x3283 SWAP2 SWAP1 PUSH2 0x64B1 JUMP JUMPDEST PUSH1 0x40 MLOAD DUP1 SWAP2 SUB SWAP1 LOG1 POP POP JUMP JUMPDEST PUSH1 0x0 DUP1 DUP4 EQ ISZERO PUSH2 0x32A2 JUMPI PUSH1 0x0 SWAP1 POP PUSH2 0x32F9 JUMP JUMPDEST PUSH1 0x0 DUP3 DUP5 MUL SWAP1 POP DUP3 DUP5 DUP3 DUP2 PUSH2 0x32B3 JUMPI INVALID JUMPDEST DIV EQ PUSH2 0x32F4 JUMPI PUSH1 0x40 MLOAD PUSH32 0x8C379A000000000000000000000000000000000000000000000000000000000 DUP2 MSTORE PUSH1 0x4 ADD PUSH2 0x32EB SWAP1 PUSH2 0x6076 JUMP JUMPDEST PUSH1 0x40 MLOAD DUP1 SWAP2 SUB SWAP1 REVERT JUMPDEST DUP1 SWAP2 POP POP JUMPDEST SWAP3 SWAP2 POP POP JUMP JUMPDEST PUSH1 0x0 DUP1 DUP3 GT PUSH2 0x3343 JUMPI PUSH1 0x40 MLOAD PUSH32 0x8C379A000000000000000000000000000000000000000000000000000000000 DUP2 MSTORE PUSH1 0x4 ADD PUSH2 0x333A SWAP1 PUSH2 0x63B6 JUMP JUMPDEST PUSH1 0x40 MLOAD DUP1 SWAP2 SUB SWAP1 REVERT JUMPDEST PUSH1 0x0 DUP3 DUP5 DUP2 PUSH2 0x334E JUMPI INVALID JUMPDEST DIV SWAP1 POP DUP1 SWAP2 POP POP SWAP3 SWAP2 POP POP JUMP JUMPDEST PUSH1 0x0 DUP1 CHAINID SWAP1 POP DUP1 SWAP2 POP POP SWAP1 JUMP JUMPDEST PUSH1 0x0 PUSH1 0x1 PUSH1 0x7 DUP2 GT ISZERO PUSH2 0x3377 JUMPI INVALID JUMPDEST PUSH2 0x3380 DUP5 PUSH2 0x152F JUMP JUMPDEST PUSH1 0x7 DUP2 GT ISZERO PUSH2 0x338B JUMPI INVALID JUMPDEST EQ PUSH2 0x33CB JUMPI PUSH1 0x40 MLOAD PUSH32 0x8C379A000000000000000000000000000000000000000000000000000000000 DUP2 MSTORE PUSH1 0x4 ADD PUSH2 0x33C2 SWAP1 PUSH2 0x6396 JUMP JUMPDEST PUSH1 0x40 MLOAD DUP1 SWAP2 SUB SWAP1 REVERT JUMPDEST PUSH1 0x2 DUP3 PUSH1 0xFF AND GT ISZERO PUSH2 0x3412 JUMPI PUSH1 0x40 MLOAD PUSH32 0x8C379A000000000000000000000000000000000000000000000000000000000 DUP2 MSTORE PUSH1 0x4 ADD PUSH2 0x3409 SWAP1 PUSH2 0x6156 JUMP JUMPDEST PUSH1 0x40 MLOAD DUP1 SWAP2 SUB SWAP1 REVERT JUMPDEST PUSH1 0x0 PUSH1 0xB PUSH1 0x0 DUP6 DUP2 MSTORE PUSH1 0x20 ADD SWAP1 DUP2 MSTORE PUSH1 0x20 ADD PUSH1 0x0 KECCAK256 SWAP1 POP PUSH1 0x0 DUP2 PUSH1 0xF ADD PUSH1 0x0 DUP8 PUSH20 0xFFFFFFFFFFFFFFFFFFFFFFFFFFFFFFFFFFFFFFFF AND PUSH20 0xFFFFFFFFFFFFFFFFFFFFFFFFFFFFFFFFFFFFFFFF AND DUP2 MSTORE PUSH1 0x20 ADD SWAP1 DUP2 MSTORE PUSH1 0x20 ADD PUSH1 0x0 KECCAK256 SWAP1 POP PUSH1 0x0 ISZERO ISZERO DUP2 PUSH1 0x0 ADD PUSH1 0x0 SWAP1 SLOAD SWAP1 PUSH2 0x100 EXP SWAP1 DIV PUSH1 0xFF AND ISZERO ISZERO EQ PUSH2 0x34C6 JUMPI PUSH1 0x40 MLOAD PUSH32 0x8C379A000000000000000000000000000000000000000000000000000000000 DUP2 MSTORE PUSH1 0x4 ADD PUSH2 0x34BD SWAP1 PUSH2 0x61F6 JUMP JUMPDEST PUSH1 0x40 MLOAD DUP1 SWAP2 SUB SWAP1 REVERT JUMPDEST PUSH1 0x0 PUSH1 0x9 PUSH1 0x0 SWAP1 SLOAD SWAP1 PUSH2 0x100 EXP SWAP1 DIV PUSH20 0xFFFFFFFFFFFFFFFFFFFFFFFFFFFFFFFFFFFFFFFF AND PUSH20 0xFFFFFFFFFFFFFFFFFFFFFFFFFFFFFFFFFFFFFFFF AND PUSH4 0x782D6FE1 DUP9 DUP6 PUSH1 0x7 ADD SLOAD PUSH1 0x40 MLOAD DUP4 PUSH4 0xFFFFFFFF AND PUSH1 0xE0 SHL DUP2 MSTORE PUSH1 0x4 ADD PUSH2 0x3529 SWAP3 SWAP2 SWAP1 PUSH2 0x5D00 JUMP JUMPDEST PUSH1 0x20 PUSH1 0x40 MLOAD DUP1 DUP4 SUB DUP2 DUP7 DUP1 EXTCODESIZE ISZERO DUP1 ISZERO PUSH2 0x3541 JUMPI PUSH1 0x0 DUP1 REVERT JUMPDEST POP GAS STATICCALL ISZERO DUP1 ISZERO PUSH2 0x3555 JUMPI RETURNDATASIZE PUSH1 0x0 DUP1 RETURNDATACOPY RETURNDATASIZE PUSH1 0x0 REVERT JUMPDEST POP POP POP POP PUSH1 0x40 MLOAD RETURNDATASIZE PUSH1 0x1F NOT PUSH1 0x1F DUP3 ADD AND DUP3 ADD DUP1 PUSH1 0x40 MSTORE POP PUSH2 0x3579 SWAP2 SWAP1 DUP2 ADD SWAP1 PUSH2 0x43D5 JUMP JUMPDEST SWAP1 POP PUSH1 0x0 DUP6 PUSH1 0xFF AND EQ ISZERO PUSH2 0x35A2 JUMPI PUSH2 0x3595 DUP4 PUSH1 0xA ADD SLOAD DUP3 PUSH2 0x363E JUMP JUMPDEST DUP4 PUSH1 0xA ADD DUP2 SWAP1 SSTORE POP PUSH2 0x35EE JUMP JUMPDEST PUSH1 0x1 DUP6 PUSH1 0xFF AND EQ ISZERO PUSH2 0x35C9 JUMPI PUSH2 0x35BC DUP4 PUSH1 0x9 ADD SLOAD DUP3 PUSH2 0x363E JUMP JUMPDEST DUP4 PUSH1 0x9 ADD DUP2 SWAP1 SSTORE POP PUSH2 0x35ED JUMP JUMPDEST PUSH1 0x2 DUP6 PUSH1 0xFF AND EQ ISZERO PUSH2 0x35EC JUMPI PUSH2 0x35E3 DUP4 PUSH1 0xB ADD SLOAD DUP3 PUSH2 0x363E JUMP JUMPDEST DUP4 PUSH1 0xB ADD DUP2 SWAP1 SSTORE POP JUMPDEST JUMPDEST JUMPDEST PUSH1 0x1 DUP3 PUSH1 0x0 ADD PUSH1 0x0 PUSH2 0x100 EXP DUP2 SLOAD DUP2 PUSH1 0xFF MUL NOT AND SWAP1 DUP4 ISZERO ISZERO MUL OR SWAP1 SSTORE POP DUP5 DUP3 PUSH1 0x0 ADD PUSH1 0x1 PUSH2 0x100 EXP DUP2 SLOAD DUP2 PUSH1 0xFF MUL NOT AND SWAP1 DUP4 PUSH1 0xFF AND MUL OR SWAP1 SSTORE POP DUP1 DUP3 PUSH1 0x1 ADD DUP2 SWAP1 SSTORE POP DUP1 SWAP4 POP POP POP POP SWAP4 SWAP3 POP POP POP JUMP JUMPDEST PUSH1 0x0 DUP1 DUP3 DUP5 ADD SWAP1 POP DUP4 DUP2 LT ISZERO PUSH2 0x3689 JUMPI PUSH1 0x40 MLOAD PUSH32 0x8C379A000000000000000000000000000000000000000000000000000000000 DUP2 MSTORE PUSH1 0x4 ADD PUSH2 0x3680 SWAP1 PUSH2 0x6276 JUMP JUMPDEST PUSH1 0x40 MLOAD DUP1 SWAP2 SUB SWAP1 REVERT JUMPDEST DUP1 SWAP2 POP POP SWAP3 SWAP2 POP POP JUMP JUMPDEST PUSH1 0x0 DUP3 DUP3 GT ISZERO PUSH2 0x36D8 JUMPI PUSH1 0x40 MLOAD PUSH32 0x8C379A000000000000000000000000000000000000000000000000000000000 DUP2 MSTORE PUSH1 0x4 ADD PUSH2 0x36CF SWAP1 PUSH2 0x6476 JUMP JUMPDEST PUSH1 0x40 MLOAD DUP1 SWAP2 SUB SWAP1 REVERT JUMPDEST DUP2 DUP4 SUB SWAP1 POP SWAP3 SWAP2 POP POP JUMP JUMPDEST PUSH1 0x8 PUSH1 0x0 SWAP1 SLOAD SWAP1 PUSH2 0x100 EXP SWAP1 DIV PUSH20 0xFFFFFFFFFFFFFFFFFFFFFFFFFFFFFFFFFFFFFFFF AND PUSH20 0xFFFFFFFFFFFFFFFFFFFFFFFFFFFFFFFFFFFFFFFF AND PUSH4 0xF2B06537 DUP7 DUP7 DUP7 DUP7 DUP7 PUSH1 0x40 MLOAD PUSH1 0x20 ADD PUSH2 0x373A SWAP6 SWAP5 SWAP4 SWAP3 SWAP2 SWAP1 PUSH2 0x5D29 JUMP JUMPDEST PUSH1 0x40 MLOAD PUSH1 0x20 DUP2 DUP4 SUB SUB DUP2 MSTORE SWAP1 PUSH1 0x40 MSTORE DUP1 MLOAD SWAP1 PUSH1 0x20 ADD KECCAK256 PUSH1 0x40 MLOAD DUP3 PUSH4 0xFFFFFFFF AND PUSH1 0xE0 SHL DUP2 MSTORE PUSH1 0x4 ADD PUSH2 0x376C SWAP2 SWAP1 PUSH2 0x5E4C JUMP JUMPDEST PUSH1 0x20 PUSH1 0x40 MLOAD DUP1 DUP4 SUB DUP2 DUP7 DUP1 EXTCODESIZE ISZERO DUP1 ISZERO PUSH2 0x3784 JUMPI PUSH1 0x0 DUP1 REVERT JUMPDEST POP GAS STATICCALL ISZERO DUP1 ISZERO PUSH2 0x3798 JUMPI RETURNDATASIZE PUSH1 0x0 DUP1 RETURNDATACOPY RETURNDATASIZE PUSH1 0x0 REVERT JUMPDEST POP POP POP POP PUSH1 0x40 MLOAD RETURNDATASIZE PUSH1 0x1F NOT PUSH1 0x1F DUP3 ADD AND DUP3 ADD DUP1 PUSH1 0x40 MSTORE POP PUSH2 0x37BC SWAP2 SWAP1 DUP2 ADD SWAP1 PUSH2 0x4319 JUMP JUMPDEST ISZERO PUSH2 0x37FC JUMPI PUSH1 0x40 MLOAD PUSH32 0x8C379A000000000000000000000000000000000000000000000000000000000 DUP2 MSTORE PUSH1 0x4 ADD PUSH2 0x37F3 SWAP1 PUSH2 0x6236 JUMP JUMPDEST PUSH1 0x40 MLOAD DUP1 SWAP2 SUB SWAP1 REVERT JUMPDEST PUSH1 0x8 PUSH1 0x0 SWAP1 SLOAD SWAP1 PUSH2 0x100 EXP SWAP1 DIV PUSH20 0xFFFFFFFFFFFFFFFFFFFFFFFFFFFFFFFFFFFFFFFF AND PUSH20 0xFFFFFFFFFFFFFFFFFFFFFFFFFFFFFFFFFFFFFFFF AND PUSH4 0x3A66F901 DUP7 DUP7 DUP7 DUP7 DUP7 PUSH1 0x40 MLOAD DUP7 PUSH4 0xFFFFFFFF AND PUSH1 0xE0 SHL DUP2 MSTORE PUSH1 0x4 ADD PUSH2 0x385F SWAP6 SWAP5 SWAP4 SWAP3 SWAP2 SWAP1 PUSH2 0x5D29 JUMP JUMPDEST PUSH1 0x20 PUSH1 0x40 MLOAD DUP1 DUP4 SUB DUP2 PUSH1 0x0 DUP8 DUP1 EXTCODESIZE ISZERO DUP1 ISZERO PUSH2 0x3879 JUMPI PUSH1 0x0 DUP1 REVERT JUMPDEST POP GAS CALL ISZERO DUP1 ISZERO PUSH2 0x388D JUMPI RETURNDATASIZE PUSH1 0x0 DUP1 RETURNDATACOPY RETURNDATASIZE PUSH1 0x0 REVERT JUMPDEST POP POP POP POP PUSH1 0x40 MLOAD RETURNDATASIZE PUSH1 0x1F NOT PUSH1 0x1F DUP3 ADD AND DUP3 ADD DUP1 PUSH1 0x40 MSTORE POP PUSH2 0x38B1 SWAP2 SWAP1 DUP2 ADD SWAP1 PUSH2 0x4342 JUMP JUMPDEST POP POP POP POP POP POP JUMP JUMPDEST PUSH1 0x40 MLOAD DUP1 PUSH2 0x200 ADD PUSH1 0x40 MSTORE DUP1 PUSH1 0x0 DUP2 MSTORE PUSH1 0x20 ADD PUSH1 0x0 PUSH20 0xFFFFFFFFFFFFFFFFFFFFFFFFFFFFFFFFFFFFFFFF AND DUP2 MSTORE PUSH1 0x20 ADD PUSH1 0x0 DUP2 MSTORE PUSH1 0x20 ADD PUSH1 0x60 DUP2 MSTORE PUSH1 0x20 ADD PUSH1 0x60 DUP2 MSTORE PUSH1 0x20 ADD PUSH1 0x60 DUP2 MSTORE PUSH1 0x20 ADD PUSH1 0x60 DUP2 MSTORE PUSH1 0x20 ADD PUSH1 0x0 DUP2 MSTORE PUSH1 0x20 ADD PUSH1 0x0 DUP2 MSTORE PUSH1 0x20 ADD PUSH1 0x0 DUP2 MSTORE PUSH1 0x20 ADD PUSH1 0x0 DUP2 MSTORE PUSH1 0x20 ADD PUSH1 0x0 DUP2 MSTORE PUSH1 0x20 ADD PUSH1 0x0 DUP2 MSTORE PUSH1 0x20 ADD PUSH1 0x0 DUP2 MSTORE PUSH1 0x20 ADD PUSH1 0x0 ISZERO ISZERO DUP2 MSTORE PUSH1 0x20 ADD PUSH1 0x0 ISZERO ISZERO DUP2 MSTORE POP SWAP1 JUMP JUMPDEST DUP3 DUP1 SLOAD DUP3 DUP3 SSTORE SWAP1 PUSH1 0x0 MSTORE PUSH1 0x20 PUSH1 0x0 KECCAK256 SWAP1 DUP2 ADD SWAP3 DUP3 ISZERO PUSH2 0x39C9 JUMPI SWAP2 PUSH1 0x20 MUL DUP3 ADD JUMPDEST DUP3 DUP2 GT ISZERO PUSH2 0x39C8 JUMPI DUP3 MLOAD DUP3 PUSH1 0x0 PUSH2 0x100 EXP DUP2 SLOAD DUP2 PUSH20 0xFFFFFFFFFFFFFFFFFFFFFFFFFFFFFFFFFFFFFFFF MUL NOT AND SWAP1 DUP4 PUSH20 0xFFFFFFFFFFFFFFFFFFFFFFFFFFFFFFFFFFFFFFFF AND MUL OR SWAP1 SSTORE POP SWAP2 PUSH1 0x20 ADD SWAP2 SWAP1 PUSH1 0x1 ADD SWAP1 PUSH2 0x3970 JUMP JUMPDEST JUMPDEST POP SWAP1 POP PUSH2 0x39D6 SWAP2 SWAP1 PUSH2 0x3B0D JUMP JUMPDEST POP SWAP1 JUMP JUMPDEST DUP3 DUP1 SLOAD DUP3 DUP3 SSTORE SWAP1 PUSH1 0x0 MSTORE PUSH1 0x20 PUSH1 0x0 KECCAK256 SWAP1 DUP2 ADD SWAP3 DUP3 ISZERO PUSH2 0x3A16 JUMPI SWAP2 PUSH1 0x20 MUL DUP3 ADD JUMPDEST DUP3 DUP2 GT ISZERO PUSH2 0x3A15 JUMPI DUP3 MLOAD DUP3 SSTORE SWAP2 PUSH1 0x20 ADD SWAP2 SWAP1 PUSH1 0x1 ADD SWAP1 PUSH2 0x39FA JUMP JUMPDEST JUMPDEST POP SWAP1 POP PUSH2 0x3A23 SWAP2 SWAP1 PUSH2 0x3B50 JUMP JUMPDEST POP SWAP1 JUMP JUMPDEST DUP3 DUP1 SLOAD DUP3 DUP3 SSTORE SWAP1 PUSH1 0x0 MSTORE PUSH1 0x20 PUSH1 0x0 KECCAK256 SWAP1 DUP2 ADD SWAP3 DUP3 ISZERO PUSH2 0x3A76 JUMPI SWAP2 PUSH1 0x20 MUL DUP3 ADD JUMPDEST DUP3 DUP2 GT ISZERO PUSH2 0x3A75 JUMPI DUP3 MLOAD DUP3 SWAP1 DUP1 MLOAD SWAP1 PUSH1 0x20 ADD SWAP1 PUSH2 0x3A65 SWAP3 SWAP2 SWAP1 PUSH2 0x3B75 JUMP JUMPDEST POP SWAP2 PUSH1 0x20 ADD SWAP2 SWAP1 PUSH1 0x1 ADD SWAP1 PUSH2 0x3A47 JUMP JUMPDEST JUMPDEST POP SWAP1 POP PUSH2 0x3A83 SWAP2 SWAP1 PUSH2 0x3BF5 JUMP JUMPDEST POP SWAP1 JUMP JUMPDEST DUP3 DUP1 SLOAD DUP3 DUP3 SSTORE SWAP1 PUSH1 0x0 MSTORE PUSH1 0x20 PUSH1 0x0 KECCAK256 SWAP1 DUP2 ADD SWAP3 DUP3 ISZERO PUSH2 0x3AD6 JUMPI SWAP2 PUSH1 0x20 MUL DUP3 ADD JUMPDEST DUP3 DUP2 GT ISZERO PUSH2 0x3AD5 JUMPI DUP3 MLOAD DUP3 SWAP1 DUP1 MLOAD SWAP1 PUSH1 0x20 ADD SWAP1 PUSH2 0x3AC5 SWAP3 SWAP2 SWAP1 PUSH2 0x3C21 JUMP JUMPDEST POP SWAP2 PUSH1 0x20 ADD SWAP2 SWAP1 PUSH1 0x1 ADD SWAP1 PUSH2 0x3AA7 JUMP JUMPDEST JUMPDEST POP SWAP1 POP PUSH2 0x3AE3 SWAP2 SWAP1 PUSH2 0x3CA1 JUMP JUMPDEST POP SWAP1 JUMP JUMPDEST PUSH1 0x40 MLOAD DUP1 PUSH1 0x60 ADD PUSH1 0x40 MSTORE DUP1 PUSH1 0x0 ISZERO ISZERO DUP2 MSTORE PUSH1 0x20 ADD PUSH1 0x0 PUSH1 0xFF AND DUP2 MSTORE PUSH1 0x20 ADD PUSH1 0x0 DUP2 MSTORE POP SWAP1 JUMP JUMPDEST PUSH2 0x3B4D SWAP2 SWAP1 JUMPDEST DUP1 DUP3 GT ISZERO PUSH2 0x3B49 JUMPI PUSH1 0x0 DUP2 DUP2 PUSH2 0x100 EXP DUP2 SLOAD SWAP1 PUSH20 0xFFFFFFFFFFFFFFFFFFFFFFFFFFFFFFFFFFFFFFFF MUL NOT AND SWAP1 SSTORE POP PUSH1 0x1 ADD PUSH2 0x3B13 JUMP JUMPDEST POP SWAP1 JUMP JUMPDEST SWAP1 JUMP JUMPDEST PUSH2 0x3B72 SWAP2 SWAP1 JUMPDEST DUP1 DUP3 GT ISZERO PUSH2 0x3B6E JUMPI PUSH1 0x0 DUP2 PUSH1 0x0 SWAP1 SSTORE POP PUSH1 0x1 ADD PUSH2 0x3B56 JUMP JUMPDEST POP SWAP1 JUMP JUMPDEST SWAP1 JUMP JUMPDEST DUP3 DUP1 SLOAD PUSH1 0x1 DUP2 PUSH1 0x1 AND ISZERO PUSH2 0x100 MUL SUB AND PUSH1 0x2 SWAP1 DIV SWAP1 PUSH1 0x0 MSTORE PUSH1 0x20 PUSH1 0x0 KECCAK256 SWAP1 PUSH1 0x1F ADD PUSH1 0x20 SWAP1 DIV DUP2 ADD SWAP3 DUP3 PUSH1 0x1F LT PUSH2 0x3BB6 JUMPI DUP1 MLOAD PUSH1 0xFF NOT AND DUP4 DUP1 ADD OR DUP6 SSTORE PUSH2 0x3BE4 JUMP JUMPDEST DUP3 DUP1 ADD PUSH1 0x1 ADD DUP6 SSTORE DUP3 ISZERO PUSH2 0x3BE4 JUMPI SWAP2 DUP3 ADD JUMPDEST DUP3 DUP2 GT ISZERO PUSH2 0x3BE3 JUMPI DUP3 MLOAD DUP3 SSTORE SWAP2 PUSH1 0x20 ADD SWAP2 SWAP1 PUSH1 0x1 ADD SWAP1 PUSH2 0x3BC8 JUMP JUMPDEST JUMPDEST POP SWAP1 POP PUSH2 0x3BF1 SWAP2 SWAP1 PUSH2 0x3B50 JUMP JUMPDEST POP SWAP1 JUMP JUMPDEST PUSH2 0x3C1E SWAP2 SWAP1 JUMPDEST DUP1 DUP3 GT ISZERO PUSH2 0x3C1A JUMPI PUSH1 0x0 DUP2 DUP2 PUSH2 0x3C11 SWAP2 SWAP1 PUSH2 0x3CCD JUMP JUMPDEST POP PUSH1 0x1 ADD PUSH2 0x3BFB JUMP JUMPDEST POP SWAP1 JUMP JUMPDEST SWAP1 JUMP JUMPDEST DUP3 DUP1 SLOAD PUSH1 0x1 DUP2 PUSH1 0x1 AND ISZERO PUSH2 0x100 MUL SUB AND PUSH1 0x2 SWAP1 DIV SWAP1 PUSH1 0x0 MSTORE PUSH1 0x20 PUSH1 0x0 KECCAK256 SWAP1 PUSH1 0x1F ADD PUSH1 0x20 SWAP1 DIV DUP2 ADD SWAP3 DUP3 PUSH1 0x1F LT PUSH2 0x3C62 JUMPI DUP1 MLOAD PUSH1 0xFF NOT AND DUP4 DUP1 ADD OR DUP6 SSTORE PUSH2 0x3C90 JUMP JUMPDEST DUP3 DUP1 ADD PUSH1 0x1 ADD DUP6 SSTORE DUP3 ISZERO PUSH2 0x3C90 JUMPI SWAP2 DUP3 ADD JUMPDEST DUP3 DUP2 GT ISZERO PUSH2 0x3C8F JUMPI DUP3 MLOAD DUP3 SSTORE SWAP2 PUSH1 0x20 ADD SWAP2 SWAP1 PUSH1 0x1 ADD SWAP1 PUSH2 0x3C74 JUMP JUMPDEST JUMPDEST POP SWAP1 POP PUSH2 0x3C9D SWAP2 SWAP1 PUSH2 0x3B50 JUMP JUMPDEST POP SWAP1 JUMP JUMPDEST PUSH2 0x3CCA SWAP2 SWAP1 JUMPDEST DUP1 DUP3 GT ISZERO PUSH2 0x3CC6 JUMPI PUSH1 0x0 DUP2 DUP2 PUSH2 0x3CBD SWAP2 SWAP1 PUSH2 0x3D15 JUMP JUMPDEST POP PUSH1 0x1 ADD PUSH2 0x3CA7 JUMP JUMPDEST POP SWAP1 JUMP JUMPDEST SWAP1 JUMP JUMPDEST POP DUP1 SLOAD PUSH1 0x1 DUP2 PUSH1 0x1 AND ISZERO PUSH2 0x100 MUL SUB AND PUSH1 0x2 SWAP1 DIV PUSH1 0x0 DUP3 SSTORE DUP1 PUSH1 0x1F LT PUSH2 0x3CF3 JUMPI POP PUSH2 0x3D12 JUMP JUMPDEST PUSH1 0x1F ADD PUSH1 0x20 SWAP1 DIV SWAP1 PUSH1 0x0 MSTORE PUSH1 0x20 PUSH1 0x0 KECCAK256 SWAP1 DUP2 ADD SWAP1 PUSH2 0x3D11 SWAP2 SWAP1 PUSH2 0x3B50 JUMP JUMPDEST JUMPDEST POP JUMP JUMPDEST POP DUP1 SLOAD PUSH1 0x1 DUP2 PUSH1 0x1 AND ISZERO PUSH2 0x100 MUL SUB AND PUSH1 0x2 SWAP1 DIV PUSH1 0x0 DUP3 SSTORE DUP1 PUSH1 0x1F LT PUSH2 0x3D3B JUMPI POP PUSH2 0x3D5A JUMP JUMPDEST PUSH1 0x1F ADD PUSH1 0x20 SWAP1 DIV SWAP1 PUSH1 0x0 MSTORE PUSH1 0x20 PUSH1 0x0 KECCAK256 SWAP1 DUP2 ADD SWAP1 PUSH2 0x3D59 SWAP2 SWAP1 PUSH2 0x3B50 JUMP JUMPDEST JUMPDEST POP JUMP JUMPDEST PUSH1 0x0 DUP2 CALLDATALOAD SWAP1 POP PUSH2 0x3D6C DUP2 PUSH2 0x6B9C JUMP JUMPDEST SWAP3 SWAP2 POP POP JUMP JUMPDEST PUSH1 0x0 DUP3 PUSH1 0x1F DUP4 ADD SLT PUSH2 0x3D83 JUMPI PUSH1 0x0 DUP1 REVERT JUMPDEST DUP2 CALLDATALOAD PUSH2 0x3D96 PUSH2 0x3D91 DUP3 PUSH2 0x6733 JUMP JUMPDEST PUSH2 0x6706 JUMP JUMPDEST SWAP2 POP DUP2 DUP2 DUP4 MSTORE PUSH1 0x20 DUP5 ADD SWAP4 POP PUSH1 0x20 DUP2 ADD SWAP1 POP DUP4 DUP6 PUSH1 0x20 DUP5 MUL DUP3 ADD GT ISZERO PUSH2 0x3DBB JUMPI PUSH1 0x0 DUP1 REVERT JUMPDEST PUSH1 0x0 JUMPDEST DUP4 DUP2 LT ISZERO PUSH2 0x3DEB JUMPI DUP2 PUSH2 0x3DD1 DUP9 DUP3 PUSH2 0x3D5D JUMP JUMPDEST DUP5 MSTORE PUSH1 0x20 DUP5 ADD SWAP4 POP PUSH1 0x20 DUP4 ADD SWAP3 POP POP PUSH1 0x1 DUP2 ADD SWAP1 POP PUSH2 0x3DBE JUMP JUMPDEST POP POP POP POP SWAP3 SWAP2 POP POP JUMP JUMPDEST PUSH1 0x0 DUP3 PUSH1 0x1F DUP4 ADD SLT PUSH2 0x3E06 JUMPI PUSH1 0x0 DUP1 REVERT JUMPDEST DUP2 CALLDATALOAD PUSH2 0x3E19 PUSH2 0x3E14 DUP3 PUSH2 0x675B JUMP JUMPDEST PUSH2 0x6706 JUMP JUMPDEST SWAP2 POP DUP2 DUP2 DUP4 MSTORE PUSH1 0x20 DUP5 ADD SWAP4 POP PUSH1 0x20 DUP2 ADD SWAP1 POP DUP4 PUSH1 0x0 JUMPDEST DUP4 DUP2 LT ISZERO PUSH2 0x3E5F JUMPI DUP2 CALLDATALOAD DUP7 ADD PUSH2 0x3E45 DUP9 DUP3 PUSH2 0x3F9F JUMP JUMPDEST DUP5 MSTORE PUSH1 0x20 DUP5 ADD SWAP4 POP PUSH1 0x20 DUP4 ADD SWAP3 POP POP PUSH1 0x1 DUP2 ADD SWAP1 POP PUSH2 0x3E2F JUMP JUMPDEST POP POP POP POP SWAP3 SWAP2 POP POP JUMP JUMPDEST PUSH1 0x0 DUP3 PUSH1 0x1F DUP4 ADD SLT PUSH2 0x3E7A JUMPI PUSH1 0x0 DUP1 REVERT JUMPDEST DUP2 CALLDATALOAD PUSH2 0x3E8D PUSH2 0x3E88 DUP3 PUSH2 0x6783 JUMP JUMPDEST PUSH2 0x6706 JUMP JUMPDEST SWAP2 POP DUP2 DUP2 DUP4 MSTORE PUSH1 0x20 DUP5 ADD SWAP4 POP PUSH1 0x20 DUP2 ADD SWAP1 POP DUP4 PUSH1 0x0 JUMPDEST DUP4 DUP2 LT ISZERO PUSH2 0x3ED3 JUMPI DUP2 CALLDATALOAD DUP7 ADD PUSH2 0x3EB9 DUP9 DUP3 PUSH2 0x4091 JUMP JUMPDEST DUP5 MSTORE PUSH1 0x20 DUP5 ADD SWAP4 POP PUSH1 0x20 DUP4 ADD SWAP3 POP POP PUSH1 0x1 DUP2 ADD SWAP1 POP PUSH2 0x3EA3 JUMP JUMPDEST POP POP POP POP SWAP3 SWAP2 POP POP JUMP JUMPDEST PUSH1 0x0 DUP3 PUSH1 0x1F DUP4 ADD SLT PUSH2 0x3EEE JUMPI PUSH1 0x0 DUP1 REVERT JUMPDEST DUP2 CALLDATALOAD PUSH2 0x3F01 PUSH2 0x3EFC DUP3 PUSH2 0x67AB JUMP JUMPDEST PUSH2 0x6706 JUMP JUMPDEST SWAP2 POP DUP2 DUP2 DUP4 MSTORE PUSH1 0x20 DUP5 ADD SWAP4 POP PUSH1 0x20 DUP2 ADD SWAP1 POP DUP4 DUP6 PUSH1 0x20 DUP5 MUL DUP3 ADD GT ISZERO PUSH2 0x3F26 JUMPI PUSH1 0x0 DUP1 REVERT JUMPDEST PUSH1 0x0 JUMPDEST DUP4 DUP2 LT ISZERO PUSH2 0x3F56 JUMPI DUP2 PUSH2 0x3F3C DUP9 DUP3 PUSH2 0x4139 JUMP JUMPDEST DUP5 MSTORE PUSH1 0x20 DUP5 ADD SWAP4 POP PUSH1 0x20 DUP4 ADD SWAP3 POP POP PUSH1 0x1 DUP2 ADD SWAP1 POP PUSH2 0x3F29 JUMP JUMPDEST POP POP POP POP SWAP3 SWAP2 POP POP JUMP JUMPDEST PUSH1 0x0 DUP2 MLOAD SWAP1 POP PUSH2 0x3F6F DUP2 PUSH2 0x6BB3 JUMP JUMPDEST SWAP3 SWAP2 POP POP JUMP JUMPDEST PUSH1 0x0 DUP2 CALLDATALOAD SWAP1 POP PUSH2 0x3F84 DUP2 PUSH2 0x6BCA JUMP JUMPDEST SWAP3 SWAP2 POP POP JUMP JUMPDEST PUSH1 0x0 DUP2 MLOAD SWAP1 POP PUSH2 0x3F99 DUP2 PUSH2 0x6BCA JUMP JUMPDEST SWAP3 SWAP2 POP POP JUMP JUMPDEST PUSH1 0x0 DUP3 PUSH1 0x1F DUP4 ADD SLT PUSH2 0x3FB0 JUMPI PUSH1 0x0 DUP1 REVERT JUMPDEST DUP2 CALLDATALOAD PUSH2 0x3FC3 PUSH2 0x3FBE DUP3 PUSH2 0x67D3 JUMP JUMPDEST PUSH2 0x6706 JUMP JUMPDEST SWAP2 POP DUP1 DUP3 MSTORE PUSH1 0x20 DUP4 ADD PUSH1 0x20 DUP4 ADD DUP6 DUP4 DUP4 ADD GT ISZERO PUSH2 0x3FDF JUMPI PUSH1 0x0 DUP1 REVERT JUMPDEST PUSH2 0x3FEA DUP4 DUP3 DUP5 PUSH2 0x6B32 JUMP JUMPDEST POP POP POP SWAP3 SWAP2 POP POP JUMP JUMPDEST PUSH1 0x0 DUP3 PUSH1 0x1F DUP4 ADD SLT PUSH2 0x4004 JUMPI PUSH1 0x0 DUP1 REVERT JUMPDEST DUP2 MLOAD PUSH2 0x4017 PUSH2 0x4012 DUP3 PUSH2 0x67FF JUMP JUMPDEST PUSH2 0x6706 JUMP JUMPDEST SWAP2 POP DUP1 DUP3 MSTORE PUSH1 0x20 DUP4 ADD PUSH1 0x20 DUP4 ADD DUP6 DUP4 DUP4 ADD GT ISZERO PUSH2 0x4033 JUMPI PUSH1 0x0 DUP1 REVERT JUMPDEST PUSH2 0x403E DUP4 DUP3 DUP5 PUSH2 0x6B41 JUMP JUMPDEST POP POP POP SWAP3 SWAP2 POP POP JUMP JUMPDEST PUSH1 0x0 DUP1 DUP4 PUSH1 0x1F DUP5 ADD SLT PUSH2 0x4059 JUMPI PUSH1 0x0 DUP1 REVERT JUMPDEST DUP3 CALLDATALOAD SWAP1 POP PUSH8 0xFFFFFFFFFFFFFFFF DUP2 GT ISZERO PUSH2 0x4072 JUMPI PUSH1 0x0 DUP1 REVERT JUMPDEST PUSH1 0x20 DUP4 ADD SWAP2 POP DUP4 PUSH1 0x1 DUP3 MUL DUP4 ADD GT ISZERO PUSH2 0x408A JUMPI PUSH1 0x0 DUP1 REVERT JUMPDEST SWAP3 POP SWAP3 SWAP1 POP JUMP JUMPDEST PUSH1 0x0 DUP3 PUSH1 0x1F DUP4 ADD SLT PUSH2 0x40A2 JUMPI PUSH1 0x0 DUP1 REVERT JUMPDEST DUP2 CALLDATALOAD PUSH2 0x40B5 PUSH2 0x40B0 DUP3 PUSH2 0x682B JUMP JUMPDEST PUSH2 0x6706 JUMP JUMPDEST SWAP2 POP DUP1 DUP3 MSTORE PUSH1 0x20 DUP4 ADD PUSH1 0x20 DUP4 ADD DUP6 DUP4 DUP4 ADD GT ISZERO PUSH2 0x40D1 JUMPI PUSH1 0x0 DUP1 REVERT JUMPDEST PUSH2 0x40DC DUP4 DUP3 DUP5 PUSH2 0x6B32 JUMP JUMPDEST POP POP POP SWAP3 SWAP2 POP POP JUMP JUMPDEST PUSH1 0x0 DUP3 PUSH1 0x1F DUP4 ADD SLT PUSH2 0x40F6 JUMPI PUSH1 0x0 DUP1 REVERT JUMPDEST DUP2 CALLDATALOAD PUSH2 0x4109 PUSH2 0x4104 DUP3 PUSH2 0x6857 JUMP JUMPDEST PUSH2 0x6706 JUMP JUMPDEST SWAP2 POP DUP1 DUP3 MSTORE PUSH1 0x20 DUP4 ADD PUSH1 0x20 DUP4 ADD DUP6 DUP4 DUP4 ADD GT ISZERO PUSH2 0x4125 JUMPI PUSH1 0x0 DUP1 REVERT JUMPDEST PUSH2 0x4130 DUP4 DUP3 DUP5 PUSH2 0x6B32 JUMP JUMPDEST POP POP POP SWAP3 SWAP2 POP POP JUMP JUMPDEST PUSH1 0x0 DUP2 CALLDATALOAD SWAP1 POP PUSH2 0x4148 DUP2 PUSH2 0x6BE1 JUMP JUMPDEST SWAP3 SWAP2 POP POP JUMP JUMPDEST PUSH1 0x0 DUP2 MLOAD SWAP1 POP PUSH2 0x415D DUP2 PUSH2 0x6BE1 JUMP JUMPDEST SWAP3 SWAP2 POP POP JUMP JUMPDEST PUSH1 0x0 DUP2 CALLDATALOAD SWAP1 POP PUSH2 0x4172 DUP2 PUSH2 0x6BF8 JUMP JUMPDEST SWAP3 SWAP2 POP POP JUMP JUMPDEST PUSH1 0x0 PUSH1 0x20 DUP3 DUP5 SUB SLT ISZERO PUSH2 0x418A JUMPI PUSH1 0x0 DUP1 REVERT JUMPDEST PUSH1 0x0 PUSH2 0x4198 DUP5 DUP3 DUP6 ADD PUSH2 0x3D5D JUMP JUMPDEST SWAP2 POP POP SWAP3 SWAP2 POP POP JUMP JUMPDEST PUSH1 0x0 DUP1 PUSH1 0x0 DUP1 PUSH1 0x0 DUP1 PUSH1 0xC0 DUP8 DUP10 SUB SLT ISZERO PUSH2 0x41BA JUMPI PUSH1 0x0 DUP1 REVERT JUMPDEST PUSH1 0x0 PUSH2 0x41C8 DUP10 DUP3 DUP11 ADD PUSH2 0x3D5D JUMP JUMPDEST SWAP7 POP POP PUSH1 0x20 PUSH2 0x41D9 DUP10 DUP3 DUP11 ADD PUSH2 0x3D5D JUMP JUMPDEST SWAP6 POP POP PUSH1 0x40 PUSH2 0x41EA DUP10 DUP3 DUP11 ADD PUSH2 0x3D5D JUMP JUMPDEST SWAP5 POP POP PUSH1 0x60 PUSH2 0x41FB DUP10 DUP3 DUP11 ADD PUSH2 0x4139 JUMP JUMPDEST SWAP4 POP POP PUSH1 0x80 PUSH2 0x420C DUP10 DUP3 DUP11 ADD PUSH2 0x4139 JUMP JUMPDEST SWAP3 POP POP PUSH1 0xA0 PUSH2 0x421D DUP10 DUP3 DUP11 ADD PUSH2 0x4139 JUMP JUMPDEST SWAP2 POP POP SWAP3 SWAP6 POP SWAP3 SWAP6 POP SWAP3 SWAP6 JUMP JUMPDEST PUSH1 0x0 DUP1 PUSH1 0x0 DUP1 PUSH1 0x0 PUSH1 0xA0 DUP7 DUP9 SUB SLT ISZERO PUSH2 0x4242 JUMPI PUSH1 0x0 DUP1 REVERT JUMPDEST PUSH1 0x0 DUP7 ADD CALLDATALOAD PUSH8 0xFFFFFFFFFFFFFFFF DUP2 GT ISZERO PUSH2 0x425C JUMPI PUSH1 0x0 DUP1 REVERT JUMPDEST PUSH2 0x4268 DUP9 DUP3 DUP10 ADD PUSH2 0x3D72 JUMP JUMPDEST SWAP6 POP POP PUSH1 0x20 DUP7 ADD CALLDATALOAD PUSH8 0xFFFFFFFFFFFFFFFF DUP2 GT ISZERO PUSH2 0x4285 JUMPI PUSH1 0x0 DUP1 REVERT JUMPDEST PUSH2 0x4291 DUP9 DUP3 DUP10 ADD PUSH2 0x3EDD JUMP JUMPDEST SWAP5 POP POP PUSH1 0x40 DUP7 ADD CALLDATALOAD PUSH8 0xFFFFFFFFFFFFFFFF DUP2 GT ISZERO PUSH2 0x42AE JUMPI PUSH1 0x0 DUP1 REVERT JUMPDEST PUSH2 0x42BA DUP9 DUP3 DUP10 ADD PUSH2 0x3E69 JUMP JUMPDEST SWAP4 POP POP PUSH1 0x60 DUP7 ADD CALLDATALOAD PUSH8 0xFFFFFFFFFFFFFFFF DUP2 GT ISZERO PUSH2 0x42D7 JUMPI PUSH1 0x0 DUP1 REVERT JUMPDEST PUSH2 0x42E3 DUP9 DUP3 DUP10 ADD PUSH2 0x3DF5 JUMP JUMPDEST SWAP3 POP POP PUSH1 0x80 DUP7 ADD CALLDATALOAD PUSH8 0xFFFFFFFFFFFFFFFF DUP2 GT ISZERO PUSH2 0x4300 JUMPI PUSH1 0x0 DUP1 REVERT JUMPDEST PUSH2 0x430C DUP9 DUP3 DUP10 ADD PUSH2 0x40E5 JUMP JUMPDEST SWAP2 POP POP SWAP3 SWAP6 POP SWAP3 SWAP6 SWAP1 SWAP4 POP JUMP JUMPDEST PUSH1 0x0 PUSH1 0x20 DUP3 DUP5 SUB SLT ISZERO PUSH2 0x432B JUMPI PUSH1 0x0 DUP1 REVERT JUMPDEST PUSH1 0x0 PUSH2 0x4339 DUP5 DUP3 DUP6 ADD PUSH2 0x3F60 JUMP JUMPDEST SWAP2 POP POP SWAP3 SWAP2 POP POP JUMP JUMPDEST PUSH1 0x0 PUSH1 0x20 DUP3 DUP5 SUB SLT ISZERO PUSH2 0x4354 JUMPI PUSH1 0x0 DUP1 REVERT JUMPDEST PUSH1 0x0 PUSH2 0x4362 DUP5 DUP3 DUP6 ADD PUSH2 0x3F8A JUMP JUMPDEST SWAP2 POP POP SWAP3 SWAP2 POP POP JUMP JUMPDEST PUSH1 0x0 PUSH1 0x20 DUP3 DUP5 SUB SLT ISZERO PUSH2 0x437D JUMPI PUSH1 0x0 DUP1 REVERT JUMPDEST PUSH1 0x0 DUP3 ADD MLOAD PUSH8 0xFFFFFFFFFFFFFFFF DUP2 GT ISZERO PUSH2 0x4397 JUMPI PUSH1 0x0 DUP1 REVERT JUMPDEST PUSH2 0x43A3 DUP5 DUP3 DUP6 ADD PUSH2 0x3FF3 JUMP JUMPDEST SWAP2 POP POP SWAP3 SWAP2 POP POP JUMP JUMPDEST PUSH1 0x0 PUSH1 0x20 DUP3 DUP5 SUB SLT ISZERO PUSH2 0x43BE JUMPI PUSH1 0x0 DUP1 REVERT JUMPDEST PUSH1 0x0 PUSH2 0x43CC DUP5 DUP3 DUP6 ADD PUSH2 0x4139 JUMP JUMPDEST SWAP2 POP POP SWAP3 SWAP2 POP POP JUMP JUMPDEST PUSH1 0x0 PUSH1 0x20 DUP3 DUP5 SUB SLT ISZERO PUSH2 0x43E7 JUMPI PUSH1 0x0 DUP1 REVERT JUMPDEST PUSH1 0x0 PUSH2 0x43F5 DUP5 DUP3 DUP6 ADD PUSH2 0x414E JUMP JUMPDEST SWAP2 POP POP SWAP3 SWAP2 POP POP JUMP JUMPDEST PUSH1 0x0 DUP1 PUSH1 0x40 DUP4 DUP6 SUB SLT ISZERO PUSH2 0x4411 JUMPI PUSH1 0x0 DUP1 REVERT JUMPDEST PUSH1 0x0 PUSH2 0x441F DUP6 DUP3 DUP7 ADD PUSH2 0x4139 JUMP JUMPDEST SWAP3 POP POP PUSH1 0x20 PUSH2 0x4430 DUP6 DUP3 DUP7 ADD PUSH2 0x3D5D JUMP JUMPDEST SWAP2 POP POP SWAP3 POP SWAP3 SWAP1 POP JUMP JUMPDEST PUSH1 0x0 DUP1 PUSH1 0x40 DUP4 DUP6 SUB SLT ISZERO PUSH2 0x444D JUMPI PUSH1 0x0 DUP1 REVERT JUMPDEST PUSH1 0x0 PUSH2 0x445B DUP6 DUP3 DUP7 ADD PUSH2 0x4139 JUMP JUMPDEST SWAP3 POP POP PUSH1 0x20 PUSH2 0x446C DUP6 DUP3 DUP7 ADD PUSH2 0x4163 JUMP JUMPDEST SWAP2 POP POP SWAP3 POP SWAP3 SWAP1 POP JUMP JUMPDEST PUSH1 0x0 DUP1 PUSH1 0x0 DUP1 PUSH1 0x60 DUP6 DUP8 SUB SLT ISZERO PUSH2 0x448C JUMPI PUSH1 0x0 DUP1 REVERT JUMPDEST PUSH1 0x0 PUSH2 0x449A DUP8 DUP3 DUP9 ADD PUSH2 0x4139 JUMP JUMPDEST SWAP5 POP POP PUSH1 0x20 PUSH2 0x44AB DUP8 DUP3 DUP9 ADD PUSH2 0x4163 JUMP JUMPDEST SWAP4 POP POP PUSH1 0x40 DUP6 ADD CALLDATALOAD PUSH8 0xFFFFFFFFFFFFFFFF DUP2 GT ISZERO PUSH2 0x44C8 JUMPI PUSH1 0x0 DUP1 REVERT JUMPDEST PUSH2 0x44D4 DUP8 DUP3 DUP9 ADD PUSH2 0x4047 JUMP JUMPDEST SWAP3 POP SWAP3 POP POP SWAP3 SWAP6 SWAP2 SWAP5 POP SWAP3 POP JUMP JUMPDEST PUSH1 0x0 DUP1 PUSH1 0x0 DUP1 PUSH1 0x0 PUSH1 0xA0 DUP7 DUP9 SUB SLT ISZERO PUSH2 0x44FA JUMPI PUSH1 0x0 DUP1 REVERT JUMPDEST PUSH1 0x0 PUSH2 0x4508 DUP9 DUP3 DUP10 ADD PUSH2 0x4139 JUMP JUMPDEST SWAP6 POP POP PUSH1 0x20 PUSH2 0x4519 DUP9 DUP3 DUP10 ADD PUSH2 0x4163 JUMP JUMPDEST SWAP5 POP POP PUSH1 0x40 PUSH2 0x452A DUP9 DUP3 DUP10 ADD PUSH2 0x4163 JUMP JUMPDEST SWAP4 POP POP PUSH1 0x60 PUSH2 0x453B DUP9 DUP3 DUP10 ADD PUSH2 0x3F75 JUMP JUMPDEST SWAP3 POP POP PUSH1 0x80 PUSH2 0x454C DUP9 DUP3 DUP10 ADD PUSH2 0x3F75 JUMP JUMPDEST SWAP2 POP POP SWAP3 SWAP6 POP SWAP3 SWAP6 SWAP1 SWAP4 POP JUMP JUMPDEST PUSH1 0x0 PUSH2 0x4565 DUP4 DUP4 PUSH2 0x45C0 JUMP JUMPDEST PUSH1 0x20 DUP4 ADD SWAP1 POP SWAP3 SWAP2 POP POP JUMP JUMPDEST PUSH1 0x0 PUSH2 0x457D DUP4 DUP4 PUSH2 0x4801 JUMP JUMPDEST SWAP1 POP SWAP3 SWAP2 POP POP JUMP JUMPDEST PUSH1 0x0 PUSH2 0x4591 DUP4 DUP4 PUSH2 0x496B JUMP JUMPDEST SWAP1 POP SWAP3 SWAP2 POP POP JUMP JUMPDEST PUSH1 0x0 PUSH2 0x45A5 DUP4 DUP4 PUSH2 0x5BF6 JUMP JUMPDEST PUSH1 0x20 DUP4 ADD SWAP1 POP SWAP3 SWAP2 POP POP JUMP JUMPDEST PUSH2 0x45BA DUP2 PUSH2 0x6A7E JUMP JUMPDEST DUP3 MSTORE POP POP JUMP JUMPDEST PUSH2 0x45C9 DUP2 PUSH2 0x6A0C JUMP JUMPDEST DUP3 MSTORE POP POP JUMP JUMPDEST PUSH2 0x45D8 DUP2 PUSH2 0x6A0C JUMP JUMPDEST DUP3 MSTORE POP POP JUMP JUMPDEST PUSH1 0x0 PUSH2 0x45E9 DUP3 PUSH2 0x68ED JUMP JUMPDEST PUSH2 0x45F3 DUP2 DUP6 PUSH2 0x6979 JUMP JUMPDEST SWAP4 POP PUSH2 0x45FE DUP4 PUSH2 0x6883 JUMP JUMPDEST DUP1 PUSH1 0x0 JUMPDEST DUP4 DUP2 LT ISZERO PUSH2 0x462F JUMPI DUP2 MLOAD PUSH2 0x4616 DUP9 DUP3 PUSH2 0x4559 JUMP JUMPDEST SWAP8 POP PUSH2 0x4621 DUP4 PUSH2 0x6945 JUMP JUMPDEST SWAP3 POP POP PUSH1 0x1 DUP2 ADD SWAP1 POP PUSH2 0x4602 JUMP JUMPDEST POP DUP6 SWAP4 POP POP POP POP SWAP3 SWAP2 POP POP JUMP JUMPDEST PUSH1 0x0 PUSH2 0x4647 DUP3 PUSH2 0x68F8 JUMP JUMPDEST PUSH2 0x4651 DUP2 DUP6 PUSH2 0x698A JUMP JUMPDEST SWAP4 POP DUP4 PUSH1 0x20 DUP3 MUL DUP6 ADD PUSH2 0x4663 DUP6 PUSH2 0x6893 JUMP JUMPDEST DUP1 PUSH1 0x0 JUMPDEST DUP6 DUP2 LT ISZERO PUSH2 0x469F JUMPI DUP5 DUP5 SUB DUP10 MSTORE DUP2 MLOAD PUSH2 0x4680 DUP6 DUP3 PUSH2 0x4571 JUMP JUMPDEST SWAP5 POP PUSH2 0x468B DUP4 PUSH2 0x6952 JUMP JUMPDEST SWAP3 POP PUSH1 0x20 DUP11 ADD SWAP10 POP POP PUSH1 0x1 DUP2 ADD SWAP1 POP PUSH2 0x4667 JUMP JUMPDEST POP DUP3 SWAP8 POP DUP8 SWAP6 POP POP POP POP POP POP SWAP3 SWAP2 POP POP JUMP JUMPDEST PUSH1 0x0 PUSH2 0x46BC DUP3 PUSH2 0x6903 JUMP JUMPDEST PUSH2 0x46C6 DUP2 DUP6 PUSH2 0x699B JUMP JUMPDEST SWAP4 POP DUP4 PUSH1 0x20 DUP3 MUL DUP6 ADD PUSH2 0x46D8 DUP6 PUSH2 0x68A3 JUMP JUMPDEST DUP1 PUSH1 0x0 JUMPDEST DUP6 DUP2 LT ISZERO PUSH2 0x4714 JUMPI DUP5 DUP5 SUB DUP10 MSTORE DUP2 MLOAD PUSH2 0x46F5 DUP6 DUP3 PUSH2 0x4585 JUMP JUMPDEST SWAP5 POP PUSH2 0x4700 DUP4 PUSH2 0x695F JUMP JUMPDEST SWAP3 POP PUSH1 0x20 DUP11 ADD SWAP10 POP POP PUSH1 0x1 DUP2 ADD SWAP1 POP PUSH2 0x46DC JUMP JUMPDEST POP DUP3 SWAP8 POP DUP8 SWAP6 POP POP POP POP POP POP SWAP3 SWAP2 POP POP JUMP JUMPDEST PUSH1 0x0 PUSH2 0x4731 DUP3 PUSH2 0x690E JUMP JUMPDEST PUSH2 0x473B DUP2 DUP6 PUSH2 0x69AC JUMP JUMPDEST SWAP4 POP PUSH2 0x4746 DUP4 PUSH2 0x68B3 JUMP JUMPDEST DUP1 PUSH1 0x0 JUMPDEST DUP4 DUP2 LT ISZERO PUSH2 0x4777 JUMPI DUP2 MLOAD PUSH2 0x475E DUP9 DUP3 PUSH2 0x4599 JUMP JUMPDEST SWAP8 POP PUSH2 0x4769 DUP4 PUSH2 0x696C JUMP JUMPDEST SWAP3 POP POP PUSH1 0x1 DUP2 ADD SWAP1 POP PUSH2 0x474A JUMP JUMPDEST POP DUP6 SWAP4 POP POP POP POP SWAP3 SWAP2 POP POP JUMP JUMPDEST PUSH2 0x478D DUP2 PUSH2 0x6A1E JUMP JUMPDEST DUP3 MSTORE POP POP JUMP JUMPDEST PUSH2 0x479C DUP2 PUSH2 0x6A1E JUMP JUMPDEST DUP3 MSTORE POP POP JUMP JUMPDEST PUSH2 0x47AB DUP2 PUSH2 0x6A2A JUMP JUMPDEST DUP3 MSTORE POP POP JUMP JUMPDEST PUSH2 0x47C2 PUSH2 0x47BD DUP3 PUSH2 0x6A2A JUMP JUMPDEST PUSH2 0x6B74 JUMP JUMPDEST DUP3 MSTORE POP POP JUMP JUMPDEST PUSH1 0x0 PUSH2 0x47D3 DUP3 PUSH2 0x6924 JUMP JUMPDEST PUSH2 0x47DD DUP2 DUP6 PUSH2 0x69CE JUMP JUMPDEST SWAP4 POP PUSH2 0x47ED DUP2 DUP6 PUSH1 0x20 DUP7 ADD PUSH2 0x6B41 JUMP JUMPDEST PUSH2 0x47F6 DUP2 PUSH2 0x6B7E JUMP JUMPDEST DUP5 ADD SWAP2 POP POP SWAP3 SWAP2 POP POP JUMP JUMPDEST PUSH1 0x0 PUSH2 0x480C DUP3 PUSH2 0x6919 JUMP JUMPDEST PUSH2 0x4816 DUP2 DUP6 PUSH2 0x69BD JUMP JUMPDEST SWAP4 POP PUSH2 0x4826 DUP2 DUP6 PUSH1 0x20 DUP7 ADD PUSH2 0x6B41 JUMP JUMPDEST PUSH2 0x482F DUP2 PUSH2 0x6B7E JUMP JUMPDEST DUP5 ADD SWAP2 POP POP SWAP3 SWAP2 POP POP JUMP JUMPDEST PUSH1 0x0 DUP2 SLOAD PUSH1 0x1 DUP2 AND PUSH1 0x0 DUP2 EQ PUSH2 0x4857 JUMPI PUSH1 0x1 DUP2 EQ PUSH2 0x487D JUMPI PUSH2 0x48C1 JUMP JUMPDEST PUSH1 0x7F PUSH1 0x2 DUP4 DIV AND PUSH2 0x4868 DUP2 DUP8 PUSH2 0x69CE JUMP JUMPDEST SWAP6 POP PUSH1 0xFF NOT DUP4 AND DUP7 MSTORE PUSH1 0x20 DUP7 ADD SWAP4 POP POP PUSH2 0x48C1 JUMP JUMPDEST PUSH1 0x2 DUP3 DIV PUSH2 0x488B DUP2 DUP8 PUSH2 0x69CE JUMP JUMPDEST SWAP6 POP PUSH2 0x4896 DUP6 PUSH2 0x68C3 JUMP JUMPDEST PUSH1 0x0 JUMPDEST DUP3 DUP2 LT ISZERO PUSH2 0x48B8 JUMPI DUP2 SLOAD DUP2 DUP10 ADD MSTORE PUSH1 0x1 DUP3 ADD SWAP2 POP PUSH1 0x20 DUP2 ADD SWAP1 POP PUSH2 0x4899 JUMP JUMPDEST DUP1 DUP9 ADD SWAP6 POP POP POP POP JUMPDEST POP POP SWAP3 SWAP2 POP POP JUMP JUMPDEST PUSH2 0x48D2 DUP2 PUSH2 0x6A90 JUMP JUMPDEST DUP3 MSTORE POP POP JUMP JUMPDEST PUSH2 0x48E1 DUP2 PUSH2 0x6AB4 JUMP JUMPDEST DUP3 MSTORE POP POP JUMP JUMPDEST PUSH2 0x48F0 DUP2 PUSH2 0x6AD8 JUMP JUMPDEST DUP3 MSTORE POP POP JUMP JUMPDEST PUSH2 0x48FF DUP2 PUSH2 0x6AFC JUMP JUMPDEST DUP3 MSTORE POP POP JUMP JUMPDEST PUSH1 0x0 PUSH2 0x4911 DUP4 DUP6 PUSH2 0x69F0 JUMP JUMPDEST SWAP4 POP PUSH2 0x491E DUP4 DUP6 DUP5 PUSH2 0x6B32 JUMP JUMPDEST PUSH2 0x4927 DUP4 PUSH2 0x6B7E JUMP JUMPDEST DUP5 ADD SWAP1 POP SWAP4 SWAP3 POP POP POP JUMP JUMPDEST PUSH1 0x0 PUSH2 0x493D DUP3 PUSH2 0x693A JUMP JUMPDEST PUSH2 0x4947 DUP2 DUP6 PUSH2 0x69F0 JUMP JUMPDEST SWAP4 POP PUSH2 0x4957 DUP2 DUP6 PUSH1 0x20 DUP7 ADD PUSH2 0x6B41 JUMP JUMPDEST PUSH2 0x4960 DUP2 PUSH2 0x6B7E JUMP JUMPDEST DUP5 ADD SWAP2 POP POP SWAP3 SWAP2 POP POP JUMP JUMPDEST PUSH1 0x0 PUSH2 0x4976 DUP3 PUSH2 0x692F JUMP JUMPDEST PUSH2 0x4980 DUP2 DUP6 PUSH2 0x69DF JUMP JUMPDEST SWAP4 POP PUSH2 0x4990 DUP2 DUP6 PUSH1 0x20 DUP7 ADD PUSH2 0x6B41 JUMP JUMPDEST PUSH2 0x4999 DUP2 PUSH2 0x6B7E JUMP JUMPDEST DUP5 ADD SWAP2 POP POP SWAP3 SWAP2 POP POP JUMP JUMPDEST PUSH1 0x0 PUSH2 0x49AF DUP3 PUSH2 0x692F JUMP JUMPDEST PUSH2 0x49B9 DUP2 DUP6 PUSH2 0x69F0 JUMP JUMPDEST SWAP4 POP PUSH2 0x49C9 DUP2 DUP6 PUSH1 0x20 DUP7 ADD PUSH2 0x6B41 JUMP JUMPDEST PUSH2 0x49D2 DUP2 PUSH2 0x6B7E JUMP JUMPDEST DUP5 ADD SWAP2 POP POP SWAP3 SWAP2 POP POP JUMP JUMPDEST PUSH1 0x0 DUP2 SLOAD PUSH1 0x1 DUP2 AND PUSH1 0x0 DUP2 EQ PUSH2 0x49FA JUMPI PUSH1 0x1 DUP2 EQ PUSH2 0x4A20 JUMPI PUSH2 0x4A64 JUMP JUMPDEST PUSH1 0x7F PUSH1 0x2 DUP4 DIV AND PUSH2 0x4A0B DUP2 DUP8 PUSH2 0x69F0 JUMP JUMPDEST SWAP6 POP PUSH1 0xFF NOT DUP4 AND DUP7 MSTORE PUSH1 0x20 DUP7 ADD SWAP4 POP POP PUSH2 0x4A64 JUMP JUMPDEST PUSH1 0x2 DUP3 DIV PUSH2 0x4A2E DUP2 DUP8 PUSH2 0x69F0 JUMP JUMPDEST SWAP6 POP PUSH2 0x4A39 DUP6 PUSH2 0x68D8 JUMP JUMPDEST PUSH1 0x0 JUMPDEST DUP3 DUP2 LT ISZERO PUSH2 0x4A5B JUMPI DUP2 SLOAD DUP2 DUP10 ADD MSTORE PUSH1 0x1 DUP3 ADD SWAP2 POP PUSH1 0x20 DUP2 ADD SWAP1 POP PUSH2 0x4A3C JUMP JUMPDEST DUP1 DUP9 ADD SWAP6 POP POP POP POP JUMPDEST POP POP SWAP3 SWAP2 POP POP JUMP JUMPDEST PUSH1 0x0 PUSH2 0x4A79 PUSH1 0x30 DUP4 PUSH2 0x69F0 JUMP JUMPDEST SWAP2 POP PUSH32 0x476F7665726E6F724F484D6567613A3A696E697469616C697A653A20696E7661 PUSH1 0x0 DUP4 ADD MSTORE PUSH32 0x6C696420674F484D206164647265737300000000000000000000000000000000 PUSH1 0x20 DUP4 ADD MSTORE PUSH1 0x40 DUP3 ADD SWAP1 POP SWAP2 SWAP1 POP JUMP JUMPDEST PUSH1 0x0 PUSH2 0x4ADF PUSH1 0x2C DUP4 PUSH2 0x69F0 JUMP JUMPDEST SWAP2 POP PUSH32 0x476F7665726E6F724F484D6567613A3A5F736574566F74696E67506572696F64 PUSH1 0x0 DUP4 ADD MSTORE PUSH32 0x3A2061646D696E206F6E6C790000000000000000000000000000000000000000 PUSH1 0x20 DUP4 ADD MSTORE PUSH1 0x40 DUP3 ADD SWAP1 POP SWAP2 SWAP1 POP JUMP JUMPDEST PUSH1 0x0 PUSH2 0x4B45 PUSH1 0x2F DUP4 PUSH2 0x69F0 JUMP JUMPDEST SWAP2 POP PUSH32 0x476F7665726E6F724F484D6567613A5F61636365707441646D696E3A2070656E PUSH1 0x0 DUP4 ADD MSTORE PUSH32 0x64696E672061646D696E206F6E6C790000000000000000000000000000000000 PUSH1 0x20 DUP4 ADD MSTORE PUSH1 0x40 DUP3 ADD SWAP1 POP SWAP2 SWAP1 POP JUMP JUMPDEST PUSH1 0x0 PUSH2 0x4BAB PUSH1 0x40 DUP4 PUSH2 0x69F0 JUMP JUMPDEST SWAP2 POP PUSH32 0x476F7665726E6F724F484D6567613A3A70726F706F73653A2070726F706F7365 PUSH1 0x0 DUP4 ADD MSTORE PUSH32 0x7220766F7465732062656C6F772070726F706F73616C207468726573686F6C64 PUSH1 0x20 DUP4 ADD MSTORE PUSH1 0x40 DUP3 ADD SWAP1 POP SWAP2 SWAP1 POP JUMP JUMPDEST PUSH1 0x0 PUSH2 0x4C11 PUSH1 0x28 DUP4 PUSH2 0x6A01 JUMP JUMPDEST SWAP2 POP PUSH32 0x42616C6C6F742875696E743235362070726F706F73616C49642C75696E743820 PUSH1 0x0 DUP4 ADD MSTORE PUSH32 0x737570706F727429000000000000000000000000000000000000000000000000 PUSH1 0x20 DUP4 ADD MSTORE PUSH1 0x28 DUP3 ADD SWAP1 POP SWAP2 SWAP1 POP JUMP JUMPDEST PUSH1 0x0 PUSH2 0x4C77 PUSH1 0x45 DUP4 PUSH2 0x69F0 JUMP JUMPDEST SWAP2 POP PUSH32 0x476F7665726E6F724F484D6567613A3A71756575653A2070726F706F73616C20 PUSH1 0x0 DUP4 ADD MSTORE PUSH32 0x63616E206F6E6C79206265207175657565642069662069742069732073756363 PUSH1 0x20 DUP4 ADD MSTORE PUSH32 0x6565646564000000000000000000000000000000000000000000000000000000 PUSH1 0x40 DUP4 ADD MSTORE PUSH1 0x60 DUP3 ADD SWAP1 POP SWAP2 SWAP1 POP JUMP JUMPDEST PUSH1 0x0 PUSH2 0x4D03 PUSH1 0x2 DUP4 PUSH2 0x6A01 JUMP JUMPDEST SWAP2 POP PUSH32 0x1901000000000000000000000000000000000000000000000000000000000000 PUSH1 0x0 DUP4 ADD MSTORE PUSH1 0x2 DUP3 ADD SWAP1 POP SWAP2 SWAP1 POP JUMP JUMPDEST PUSH1 0x0 PUSH2 0x4D43 PUSH1 0x30 DUP4 PUSH2 0x69F0 JUMP JUMPDEST SWAP2 POP PUSH32 0x476F7665726E6F724F484D6567613A3A696E697469616C697A653A20696E7661 PUSH1 0x0 DUP4 ADD MSTORE PUSH32 0x6C696420766F74696E672064656C617900000000000000000000000000000000 PUSH1 0x20 DUP4 ADD MSTORE PUSH1 0x40 DUP3 ADD SWAP1 POP SWAP2 SWAP1 POP JUMP JUMPDEST PUSH1 0x0 PUSH2 0x4DA9 PUSH1 0x17 DUP4 PUSH2 0x69F0 JUMP JUMPDEST SWAP2 POP PUSH32 0x6D756C7469706C69636174696F6E206F766572666C6F77000000000000000000 PUSH1 0x0 DUP4 ADD MSTORE PUSH1 0x20 DUP3 ADD SWAP1 POP SWAP2 SWAP1 POP JUMP JUMPDEST PUSH1 0x0 PUSH2 0x4DE9 PUSH1 0x35 DUP4 PUSH2 0x69F0 JUMP JUMPDEST SWAP2 POP PUSH32 0x476F7665726E6F724F484D6567613A3A5F736574566F74696E6744656C61793A PUSH1 0x0 DUP4 ADD MSTORE PUSH32 0x20696E76616C696420766F74696E672064656C61790000000000000000000000 PUSH1 0x20 DUP4 ADD MSTORE PUSH1 0x40 DUP3 ADD SWAP1 POP SWAP2 SWAP1 POP JUMP JUMPDEST PUSH1 0x0 PUSH2 0x4E4F PUSH1 0x5A DUP4 PUSH2 0x69F0 JUMP JUMPDEST SWAP2 POP PUSH32 0x476F7665726E6F724F484D6567613A3A70726F706F73653A206F6E65206C6976 PUSH1 0x0 DUP4 ADD MSTORE PUSH32 0x652070726F706F73616C207065722070726F706F7365722C20666F756E642061 PUSH1 0x20 DUP4 ADD MSTORE PUSH32 0x6E20616C72656164792070656E64696E672070726F706F73616C000000000000 PUSH1 0x40 DUP4 ADD MSTORE PUSH1 0x60 DUP3 ADD SWAP1 POP SWAP2 SWAP1 POP JUMP JUMPDEST PUSH1 0x0 PUSH2 0x4EDB PUSH1 0x2B DUP4 PUSH2 0x69F0 JUMP JUMPDEST SWAP2 POP PUSH32 0x476F7665726E6F724F484D6567613A5F73657450656E64696E6741646D696E3A PUSH1 0x0 DUP4 ADD MSTORE PUSH32 0x2061646D696E206F6E6C79000000000000000000000000000000000000000000 PUSH1 0x20 DUP4 ADD MSTORE PUSH1 0x40 DUP3 ADD SWAP1 POP SWAP2 SWAP1 POP JUMP JUMPDEST PUSH1 0x0 PUSH2 0x4F41 PUSH1 0x33 DUP4 PUSH2 0x69F0 JUMP JUMPDEST SWAP2 POP PUSH32 0x476F7665726E6F724F484D6567613A3A70726F706F73653A20476F7665726E6F PUSH1 0x0 DUP4 ADD MSTORE PUSH32 0x72204F484D656761206E6F742061637469766500000000000000000000000000 PUSH1 0x20 DUP4 ADD MSTORE PUSH1 0x40 DUP3 ADD SWAP1 POP SWAP2 SWAP1 POP JUMP JUMPDEST PUSH1 0x0 PUSH2 0x4FA7 PUSH1 0x2B DUP4 PUSH2 0x69F0 JUMP JUMPDEST SWAP2 POP PUSH32 0x476F7665726E6F724F484D6567613A3A5F736574566F74696E6744656C61793A PUSH1 0x0 DUP4 ADD MSTORE PUSH32 0x2061646D696E206F6E6C79000000000000000000000000000000000000000000 PUSH1 0x20 DUP4 ADD MSTORE PUSH1 0x40 DUP3 ADD SWAP1 POP SWAP2 SWAP1 POP JUMP JUMPDEST PUSH1 0x0 PUSH2 0x500D PUSH1 0x37 DUP4 PUSH2 0x69F0 JUMP JUMPDEST SWAP2 POP PUSH32 0x476F7665726E6F724F484D6567613A3A63616E63656C3A2063616E6E6F742063 PUSH1 0x0 DUP4 ADD MSTORE PUSH32 0x616E63656C2065786563757465642070726F706F73616C000000000000000000 PUSH1 0x20 DUP4 ADD MSTORE PUSH1 0x40 DUP3 ADD SWAP1 POP SWAP2 SWAP1 POP JUMP JUMPDEST PUSH1 0x0 PUSH2 0x5073 PUSH1 0x33 DUP4 PUSH2 0x69F0 JUMP JUMPDEST SWAP2 POP PUSH32 0x476F7665726E6F724F484D6567613A3A63617374566F7465496E7465726E616C PUSH1 0x0 DUP4 ADD MSTORE PUSH32 0x3A20696E76616C696420766F7465207479706500000000000000000000000000 PUSH1 0x20 DUP4 ADD MSTORE PUSH1 0x40 DUP3 ADD SWAP1 POP SWAP2 SWAP1 POP JUMP JUMPDEST PUSH1 0x0 PUSH2 0x50D9 PUSH1 0x29 DUP4 PUSH2 0x69F0 JUMP JUMPDEST SWAP2 POP PUSH32 0x476F7665726E6F724F484D6567613A3A70726F706F73653A20746F6F206D616E PUSH1 0x0 DUP4 ADD MSTORE PUSH32 0x7920616374696F6E730000000000000000000000000000000000000000000000 PUSH1 0x20 DUP4 ADD MSTORE PUSH1 0x40 DUP3 ADD SWAP1 POP SWAP2 SWAP1 POP JUMP JUMPDEST PUSH1 0x0 PUSH2 0x513F PUSH1 0x45 DUP4 PUSH2 0x69F0 JUMP JUMPDEST SWAP2 POP PUSH32 0x476F7665726E6F724F484D6567613A3A70726F706F73653A2070726F706F7361 PUSH1 0x0 DUP4 ADD MSTORE PUSH32 0x6C2066756E6374696F6E20696E666F726D6174696F6E206172697479206D6973 PUSH1 0x20 DUP4 ADD MSTORE PUSH32 0x6D61746368000000000000000000000000000000000000000000000000000000 PUSH1 0x40 DUP4 ADD MSTORE PUSH1 0x60 DUP3 ADD SWAP1 POP SWAP2 SWAP1 POP JUMP JUMPDEST PUSH1 0x0 PUSH2 0x51CB PUSH1 0x30 DUP4 PUSH2 0x69F0 JUMP JUMPDEST SWAP2 POP PUSH32 0x476F7665726E6F724F484D6567613A3A63616E63656C3A2070726F706F736572 PUSH1 0x0 DUP4 ADD MSTORE PUSH32 0x2061626F7665207468726573686F6C6400000000000000000000000000000000 PUSH1 0x20 DUP4 ADD MSTORE PUSH1 0x40 DUP3 ADD SWAP1 POP SWAP2 SWAP1 POP JUMP JUMPDEST PUSH1 0x0 PUSH2 0x5231 PUSH1 0x30 DUP4 PUSH2 0x69F0 JUMP JUMPDEST SWAP2 POP PUSH32 0x476F7665726E6F724F484D6567613A3A696E697469616C697A653A20696E7661 PUSH1 0x0 DUP4 ADD MSTORE PUSH32 0x6C696420734F484D206164647265737300000000000000000000000000000000 PUSH1 0x20 DUP4 ADD MSTORE PUSH1 0x40 DUP3 ADD SWAP1 POP SWAP2 SWAP1 POP JUMP JUMPDEST PUSH1 0x0 PUSH2 0x5297 PUSH1 0x35 DUP4 PUSH2 0x69F0 JUMP JUMPDEST SWAP2 POP PUSH32 0x476F7665726E6F724F484D6567613A3A63617374566F7465496E7465726E616C PUSH1 0x0 DUP4 ADD MSTORE PUSH32 0x3A20766F74657220616C726561647920766F7465640000000000000000000000 PUSH1 0x20 DUP4 ADD MSTORE PUSH1 0x40 DUP3 ADD SWAP1 POP SWAP2 SWAP1 POP JUMP JUMPDEST PUSH1 0x0 PUSH2 0x52FD PUSH1 0x34 DUP4 PUSH2 0x69F0 JUMP JUMPDEST SWAP2 POP PUSH32 0x476F7665726E6F724F484D6567613A3A696E697469616C697A653A2063616E20 PUSH1 0x0 DUP4 ADD MSTORE PUSH32 0x6F6E6C7920696E697469616C697A65206F6E6365000000000000000000000000 PUSH1 0x20 DUP4 ADD MSTORE PUSH1 0x40 DUP3 ADD SWAP1 POP SWAP2 SWAP1 POP JUMP JUMPDEST PUSH1 0x0 PUSH2 0x5363 PUSH1 0x56 DUP4 PUSH2 0x69F0 JUMP JUMPDEST SWAP2 POP PUSH32 0x476F7665726E6F724F484D6567613A3A71756575654F72526576657274496E74 PUSH1 0x0 DUP4 ADD MSTORE PUSH32 0x65726E616C3A206964656E746963616C2070726F706F73616C20616374696F6E PUSH1 0x20 DUP4 ADD MSTORE PUSH32 0x20616C7265616479207175657565642061742065746100000000000000000000 PUSH1 0x40 DUP4 ADD MSTORE PUSH1 0x60 DUP3 ADD SWAP1 POP SWAP2 SWAP1 POP JUMP JUMPDEST PUSH1 0x0 PUSH2 0x53EF PUSH1 0x34 DUP4 PUSH2 0x69F0 JUMP JUMPDEST SWAP2 POP PUSH32 0x476F7665726E6F724F484D6567613A3A696E697469616C697A653A20696E7661 PUSH1 0x0 DUP4 ADD MSTORE PUSH32 0x6C69642074696D656C6F636B2061646472657373000000000000000000000000 PUSH1 0x20 DUP4 ADD MSTORE PUSH1 0x40 DUP3 ADD SWAP1 POP SWAP2 SWAP1 POP JUMP JUMPDEST PUSH1 0x0 PUSH2 0x5455 PUSH1 0x11 DUP4 PUSH2 0x69F0 JUMP JUMPDEST SWAP2 POP PUSH32 0x6164646974696F6E206F766572666C6F77000000000000000000000000000000 PUSH1 0x0 DUP4 ADD MSTORE PUSH1 0x20 DUP3 ADD SWAP1 POP SWAP2 SWAP1 POP JUMP JUMPDEST PUSH1 0x0 PUSH2 0x5495 PUSH1 0x43 DUP4 PUSH2 0x6A01 JUMP JUMPDEST SWAP2 POP PUSH32 0x454950373132446F6D61696E28737472696E67206E616D652C75696E74323536 PUSH1 0x0 DUP4 ADD MSTORE PUSH32 0x20636861696E49642C6164647265737320766572696679696E67436F6E747261 PUSH1 0x20 DUP4 ADD MSTORE PUSH32 0x6374290000000000000000000000000000000000000000000000000000000000 PUSH1 0x40 DUP4 ADD MSTORE PUSH1 0x43 DUP3 ADD SWAP1 POP SWAP2 SWAP1 POP JUMP JUMPDEST PUSH1 0x0 PUSH2 0x5521 PUSH1 0x31 DUP4 PUSH2 0x69F0 JUMP JUMPDEST SWAP2 POP PUSH32 0x476F7665726E6F724F484D6567613A3A696E697469616C697A653A20696E7661 PUSH1 0x0 DUP4 ADD MSTORE PUSH32 0x6C696420766F74696E6720706572696F64000000000000000000000000000000 PUSH1 0x20 DUP4 ADD MSTORE PUSH1 0x40 DUP3 ADD SWAP1 POP SWAP2 SWAP1 POP JUMP JUMPDEST PUSH1 0x0 PUSH2 0x5587 PUSH1 0x41 DUP4 PUSH2 0x69F0 JUMP JUMPDEST SWAP2 POP PUSH32 0x476F7665726E6F724F484D6567613A3A5F73657450726F706F73616C54687265 PUSH1 0x0 DUP4 ADD MSTORE PUSH32 0x73686F6C643A20696E76616C69642070726F706F73616C207468726573686F6C PUSH1 0x20 DUP4 ADD MSTORE PUSH32 0x6400000000000000000000000000000000000000000000000000000000000000 PUSH1 0x40 DUP4 ADD MSTORE PUSH1 0x60 DUP3 ADD SWAP1 POP SWAP2 SWAP1 POP JUMP JUMPDEST PUSH1 0x0 PUSH2 0x5613 PUSH1 0x30 DUP4 PUSH2 0x69F0 JUMP JUMPDEST SWAP2 POP PUSH32 0x476F7665726E6F724F484D6567613A3A63617374566F746542795369673A2069 PUSH1 0x0 DUP4 ADD MSTORE PUSH32 0x6E76616C6964207369676E617475726500000000000000000000000000000000 PUSH1 0x20 DUP4 ADD MSTORE PUSH1 0x40 DUP3 ADD SWAP1 POP SWAP2 SWAP1 POP JUMP JUMPDEST PUSH1 0x0 PUSH2 0x5679 PUSH1 0x46 DUP4 PUSH2 0x69F0 JUMP JUMPDEST SWAP2 POP PUSH32 0x476F7665726E6F724F484D6567613A3A657865637574653A2070726F706F7361 PUSH1 0x0 DUP4 ADD MSTORE PUSH32 0x6C2063616E206F6E6C7920626520657865637574656420696620697420697320 PUSH1 0x20 DUP4 ADD MSTORE PUSH32 0x7175657565640000000000000000000000000000000000000000000000000000 PUSH1 0x40 DUP4 ADD MSTORE PUSH1 0x60 DUP3 ADD SWAP1 POP SWAP2 SWAP1 POP JUMP JUMPDEST PUSH1 0x0 PUSH2 0x5705 PUSH1 0x31 DUP4 PUSH2 0x69F0 JUMP JUMPDEST SWAP2 POP PUSH32 0x476F7665726E6F724F484D6567613A3A5F73657450726F706F73616C54687265 PUSH1 0x0 DUP4 ADD MSTORE PUSH32 0x73686F6C643A2061646D696E206F6E6C79000000000000000000000000000000 PUSH1 0x20 DUP4 ADD MSTORE PUSH1 0x40 DUP3 ADD SWAP1 POP SWAP2 SWAP1 POP JUMP JUMPDEST PUSH1 0x0 PUSH2 0x576B PUSH1 0x2A DUP4 PUSH2 0x69F0 JUMP JUMPDEST SWAP2 POP PUSH32 0x476F7665726E6F724F484D6567613A3A73746174653A20696E76616C69642070 PUSH1 0x0 DUP4 ADD MSTORE PUSH32 0x726F706F73616C20696400000000000000000000000000000000000000000000 PUSH1 0x20 DUP4 ADD MSTORE PUSH1 0x40 DUP3 ADD SWAP1 POP SWAP2 SWAP1 POP JUMP JUMPDEST PUSH1 0x0 PUSH2 0x57D1 PUSH1 0x25 DUP4 PUSH2 0x69F0 JUMP JUMPDEST SWAP2 POP PUSH32 0x476F7665726E6F724F484D6567613A3A5F696E6974696174653A2061646D696E PUSH1 0x0 DUP4 ADD MSTORE PUSH32 0x206F6E6C79000000000000000000000000000000000000000000000000000000 PUSH1 0x20 DUP4 ADD MSTORE PUSH1 0x40 DUP3 ADD SWAP1 POP SWAP2 SWAP1 POP JUMP JUMPDEST PUSH1 0x0 PUSH2 0x5837 PUSH1 0x2D DUP4 PUSH2 0x69F0 JUMP JUMPDEST SWAP2 POP PUSH32 0x476F7665726E6F724F484D6567613A3A70726F706F73653A206D757374207072 PUSH1 0x0 DUP4 ADD MSTORE PUSH32 0x6F7669646520616374696F6E7300000000000000000000000000000000000000 PUSH1 0x20 DUP4 ADD MSTORE PUSH1 0x40 DUP3 ADD SWAP1 POP SWAP2 SWAP1 POP JUMP JUMPDEST PUSH1 0x0 PUSH2 0x589D PUSH1 0x32 DUP4 PUSH2 0x69F0 JUMP JUMPDEST SWAP2 POP PUSH32 0x476F7665726E6F724F484D6567613A3A63617374566F7465496E7465726E616C PUSH1 0x0 DUP4 ADD MSTORE PUSH32 0x3A20766F74696E6720697320636C6F7365640000000000000000000000000000 PUSH1 0x20 DUP4 ADD MSTORE PUSH1 0x40 DUP3 ADD SWAP1 POP SWAP2 SWAP1 POP JUMP JUMPDEST PUSH1 0x0 PUSH2 0x5903 PUSH1 0x0 DUP4 PUSH2 0x69F0 JUMP JUMPDEST SWAP2 POP PUSH1 0x0 DUP3 ADD SWAP1 POP SWAP2 SWAP1 POP JUMP JUMPDEST PUSH1 0x0 PUSH2 0x591D PUSH1 0x10 DUP4 PUSH2 0x69F0 JUMP JUMPDEST SWAP2 POP PUSH32 0x6469766973696F6E206279207A65726F00000000000000000000000000000000 PUSH1 0x0 DUP4 ADD MSTORE PUSH1 0x20 DUP3 ADD SWAP1 POP SWAP2 SWAP1 POP JUMP JUMPDEST PUSH1 0x0 PUSH2 0x595D PUSH1 0x27 DUP4 PUSH2 0x69F0 JUMP JUMPDEST SWAP2 POP PUSH32 0x20476F7665726E6F724F484D6567613A3A696E697469616C697A653A2061646D PUSH1 0x0 DUP4 ADD MSTORE PUSH32 0x696E206F6E6C7900000000000000000000000000000000000000000000000000 PUSH1 0x20 DUP4 ADD MSTORE PUSH1 0x40 DUP3 ADD SWAP1 POP SWAP2 SWAP1 POP JUMP JUMPDEST PUSH1 0x0 PUSH2 0x59C3 PUSH1 0x59 DUP4 PUSH2 0x69F0 JUMP JUMPDEST SWAP2 POP PUSH32 0x476F7665726E6F724F484D6567613A3A70726F706F73653A206F6E65206C6976 PUSH1 0x0 DUP4 ADD MSTORE PUSH32 0x652070726F706F73616C207065722070726F706F7365722C20666F756E642061 PUSH1 0x20 DUP4 ADD MSTORE PUSH32 0x6E20616C7265616479206163746976652070726F706F73616C00000000000000 PUSH1 0x40 DUP4 ADD MSTORE PUSH1 0x60 DUP3 ADD SWAP1 POP SWAP2 SWAP1 POP JUMP JUMPDEST PUSH1 0x0 PUSH2 0x5A4F PUSH1 0x37 DUP4 PUSH2 0x69F0 JUMP JUMPDEST SWAP2 POP PUSH32 0x476F7665726E6F724F484D6567613A3A5F736574566F74696E67506572696F64 PUSH1 0x0 DUP4 ADD MSTORE PUSH32 0x3A20696E76616C696420766F74696E6720706572696F64000000000000000000 PUSH1 0x20 DUP4 ADD MSTORE PUSH1 0x40 DUP3 ADD SWAP1 POP SWAP2 SWAP1 POP JUMP JUMPDEST PUSH1 0x0 PUSH2 0x5AB5 PUSH1 0x31 DUP4 PUSH2 0x69F0 JUMP JUMPDEST SWAP2 POP PUSH32 0x476F7665726E6F724F484D6567613A3A5F696E6974696174653A2063616E206F PUSH1 0x0 DUP4 ADD MSTORE PUSH32 0x6E6C7920696E697469617465206F6E6365000000000000000000000000000000 PUSH1 0x20 DUP4 ADD MSTORE PUSH1 0x40 DUP3 ADD SWAP1 POP SWAP2 SWAP1 POP JUMP JUMPDEST PUSH1 0x0 PUSH2 0x5B1B PUSH1 0x36 DUP4 PUSH2 0x69F0 JUMP JUMPDEST SWAP2 POP PUSH32 0x476F7665726E6F724F484D6567613A3A696E697469616C697A653A20696E7661 PUSH1 0x0 DUP4 ADD MSTORE PUSH32 0x6C69642070726F706F73616C207468726573686F6C6400000000000000000000 PUSH1 0x20 DUP4 ADD MSTORE PUSH1 0x40 DUP3 ADD SWAP1 POP SWAP2 SWAP1 POP JUMP JUMPDEST PUSH1 0x0 PUSH2 0x5B81 PUSH1 0x15 DUP4 PUSH2 0x69F0 JUMP JUMPDEST SWAP2 POP PUSH32 0x7375627472616374696F6E20756E646572666C6F770000000000000000000000 PUSH1 0x0 DUP4 ADD MSTORE PUSH1 0x20 DUP3 ADD SWAP1 POP SWAP2 SWAP1 POP JUMP JUMPDEST PUSH1 0x60 DUP3 ADD PUSH1 0x0 DUP3 ADD MLOAD PUSH2 0x5BCA PUSH1 0x0 DUP6 ADD DUP3 PUSH2 0x4784 JUMP JUMPDEST POP PUSH1 0x20 DUP3 ADD MLOAD PUSH2 0x5BDD PUSH1 0x20 DUP6 ADD DUP3 PUSH2 0x5C14 JUMP JUMPDEST POP PUSH1 0x40 DUP3 ADD MLOAD PUSH2 0x5BF0 PUSH1 0x40 DUP6 ADD DUP3 PUSH2 0x5BF6 JUMP JUMPDEST POP POP POP POP JUMP JUMPDEST PUSH2 0x5BFF DUP2 PUSH2 0x6A67 JUMP JUMPDEST DUP3 MSTORE POP POP JUMP JUMPDEST PUSH2 0x5C0E DUP2 PUSH2 0x6A67 JUMP JUMPDEST DUP3 MSTORE POP POP JUMP JUMPDEST PUSH2 0x5C1D DUP2 PUSH2 0x6A71 JUMP JUMPDEST DUP3 MSTORE POP POP JUMP JUMPDEST PUSH2 0x5C2C DUP2 PUSH2 0x6A71 JUMP JUMPDEST DUP3 MSTORE POP POP JUMP JUMPDEST PUSH1 0x0 PUSH2 0x5C3D DUP3 PUSH2 0x4C04 JUMP JUMPDEST SWAP2 POP DUP2 SWAP1 POP SWAP2 SWAP1 POP JUMP JUMPDEST PUSH1 0x0 PUSH2 0x5C52 DUP3 PUSH2 0x4CF6 JUMP JUMPDEST SWAP2 POP PUSH2 0x5C5E DUP3 DUP6 PUSH2 0x47B1 JUMP JUMPDEST PUSH1 0x20 DUP3 ADD SWAP2 POP PUSH2 0x5C6E DUP3 DUP5 PUSH2 0x47B1 JUMP JUMPDEST PUSH1 0x20 DUP3 ADD SWAP2 POP DUP2 SWAP1 POP SWAP4 SWAP3 POP POP POP JUMP JUMPDEST PUSH1 0x0 PUSH2 0x5C89 DUP3 PUSH2 0x5488 JUMP JUMPDEST SWAP2 POP DUP2 SWAP1 POP SWAP2 SWAP1 POP JUMP JUMPDEST PUSH1 0x0 PUSH1 0x20 DUP3 ADD SWAP1 POP PUSH2 0x5CA8 PUSH1 0x0 DUP4 ADD DUP5 PUSH2 0x45CF JUMP JUMPDEST SWAP3 SWAP2 POP POP JUMP JUMPDEST PUSH1 0x0 PUSH1 0x40 DUP3 ADD SWAP1 POP PUSH2 0x5CC3 PUSH1 0x0 DUP4 ADD DUP6 PUSH2 0x45B1 JUMP JUMPDEST PUSH2 0x5CD0 PUSH1 0x20 DUP4 ADD DUP5 PUSH2 0x5C05 JUMP JUMPDEST SWAP4 SWAP3 POP POP POP JUMP JUMPDEST PUSH1 0x0 PUSH1 0x40 DUP3 ADD SWAP1 POP PUSH2 0x5CEC PUSH1 0x0 DUP4 ADD DUP6 PUSH2 0x45CF JUMP JUMPDEST PUSH2 0x5CF9 PUSH1 0x20 DUP4 ADD DUP5 PUSH2 0x45CF JUMP JUMPDEST SWAP4 SWAP3 POP POP POP JUMP JUMPDEST PUSH1 0x0 PUSH1 0x40 DUP3 ADD SWAP1 POP PUSH2 0x5D15 PUSH1 0x0 DUP4 ADD DUP6 PUSH2 0x45CF JUMP JUMPDEST PUSH2 0x5D22 PUSH1 0x20 DUP4 ADD DUP5 PUSH2 0x5C05 JUMP JUMPDEST SWAP4 SWAP3 POP POP POP JUMP JUMPDEST PUSH1 0x0 PUSH1 0xA0 DUP3 ADD SWAP1 POP PUSH2 0x5D3E PUSH1 0x0 DUP4 ADD DUP9 PUSH2 0x45CF JUMP JUMPDEST PUSH2 0x5D4B PUSH1 0x20 DUP4 ADD DUP8 PUSH2 0x5C05 JUMP JUMPDEST DUP2 DUP2 SUB PUSH1 0x40 DUP4 ADD MSTORE PUSH2 0x5D5D DUP2 DUP7 PUSH2 0x4932 JUMP JUMPDEST SWAP1 POP DUP2 DUP2 SUB PUSH1 0x60 DUP4 ADD MSTORE PUSH2 0x5D71 DUP2 DUP6 PUSH2 0x47C8 JUMP JUMPDEST SWAP1 POP PUSH2 0x5D80 PUSH1 0x80 DUP4 ADD DUP5 PUSH2 0x5C05 JUMP JUMPDEST SWAP7 SWAP6 POP POP POP POP POP POP JUMP JUMPDEST PUSH1 0x0 PUSH1 0xA0 DUP3 ADD SWAP1 POP PUSH2 0x5D9F PUSH1 0x0 DUP4 ADD DUP9 PUSH2 0x45CF JUMP JUMPDEST PUSH2 0x5DAC PUSH1 0x20 DUP4 ADD DUP8 PUSH2 0x5C05 JUMP JUMPDEST DUP2 DUP2 SUB PUSH1 0x40 DUP4 ADD MSTORE PUSH2 0x5DBE DUP2 DUP7 PUSH2 0x49DD JUMP JUMPDEST SWAP1 POP DUP2 DUP2 SUB PUSH1 0x60 DUP4 ADD MSTORE PUSH2 0x5DD2 DUP2 DUP6 PUSH2 0x483A JUMP JUMPDEST SWAP1 POP PUSH2 0x5DE1 PUSH1 0x80 DUP4 ADD DUP5 PUSH2 0x5C05 JUMP JUMPDEST SWAP7 SWAP6 POP POP POP POP POP POP JUMP JUMPDEST PUSH1 0x0 PUSH1 0x80 DUP3 ADD SWAP1 POP DUP2 DUP2 SUB PUSH1 0x0 DUP4 ADD MSTORE PUSH2 0x5E05 DUP2 DUP8 PUSH2 0x45DE JUMP JUMPDEST SWAP1 POP DUP2 DUP2 SUB PUSH1 0x20 DUP4 ADD MSTORE PUSH2 0x5E19 DUP2 DUP7 PUSH2 0x4726 JUMP JUMPDEST SWAP1 POP DUP2 DUP2 SUB PUSH1 0x40 DUP4 ADD MSTORE PUSH2 0x5E2D DUP2 DUP6 PUSH2 0x46B1 JUMP JUMPDEST SWAP1 POP DUP2 DUP2 SUB PUSH1 0x60 DUP4 ADD MSTORE PUSH2 0x5E41 DUP2 DUP5 PUSH2 0x463C JUMP JUMPDEST SWAP1 POP SWAP6 SWAP5 POP POP POP POP POP JUMP JUMPDEST PUSH1 0x0 PUSH1 0x20 DUP3 ADD SWAP1 POP PUSH2 0x5E61 PUSH1 0x0 DUP4 ADD DUP5 PUSH2 0x47A2 JUMP JUMPDEST SWAP3 SWAP2 POP POP JUMP JUMPDEST PUSH1 0x0 PUSH1 0x80 DUP3 ADD SWAP1 POP PUSH2 0x5E7C PUSH1 0x0 DUP4 ADD DUP8 PUSH2 0x47A2 JUMP JUMPDEST PUSH2 0x5E89 PUSH1 0x20 DUP4 ADD DUP7 PUSH2 0x47A2 JUMP JUMPDEST PUSH2 0x5E96 PUSH1 0x40 DUP4 ADD DUP6 PUSH2 0x5C05 JUMP JUMPDEST PUSH2 0x5EA3 PUSH1 0x60 DUP4 ADD DUP5 PUSH2 0x45CF JUMP JUMPDEST SWAP6 SWAP5 POP POP POP POP POP JUMP JUMPDEST PUSH1 0x0 PUSH1 0x60 DUP3 ADD SWAP1 POP PUSH2 0x5EC1 PUSH1 0x0 DUP4 ADD DUP7 PUSH2 0x47A2 JUMP JUMPDEST PUSH2 0x5ECE PUSH1 0x20 DUP4 ADD DUP6 PUSH2 0x5C05 JUMP JUMPDEST PUSH2 0x5EDB PUSH1 0x40 DUP4 ADD DUP5 PUSH2 0x5C23 JUMP JUMPDEST SWAP5 SWAP4 POP POP POP POP JUMP JUMPDEST PUSH1 0x0 PUSH1 0x80 DUP3 ADD SWAP1 POP PUSH2 0x5EF8 PUSH1 0x0 DUP4 ADD DUP8 PUSH2 0x47A2 JUMP JUMPDEST PUSH2 0x5F05 PUSH1 0x20 DUP4 ADD DUP7 PUSH2 0x5C23 JUMP JUMPDEST PUSH2 0x5F12 PUSH1 0x40 DUP4 ADD DUP6 PUSH2 0x47A2 JUMP JUMPDEST PUSH2 0x5F1F PUSH1 0x60 DUP4 ADD DUP5 PUSH2 0x47A2 JUMP JUMPDEST SWAP6 SWAP5 POP POP POP POP POP JUMP JUMPDEST PUSH1 0x0 PUSH1 0x20 DUP3 ADD SWAP1 POP PUSH2 0x5F3D PUSH1 0x0 DUP4 ADD DUP5 PUSH2 0x48C9 JUMP JUMPDEST SWAP3 SWAP2 POP POP JUMP JUMPDEST PUSH1 0x0 PUSH1 0x20 DUP3 ADD SWAP1 POP PUSH2 0x5F58 PUSH1 0x0 DUP4 ADD DUP5 PUSH2 0x48D8 JUMP JUMPDEST SWAP3 SWAP2 POP POP JUMP JUMPDEST PUSH1 0x0 PUSH1 0x20 DUP3 ADD SWAP1 POP PUSH2 0x5F73 PUSH1 0x0 DUP4 ADD DUP5 PUSH2 0x48E7 JUMP JUMPDEST SWAP3 SWAP2 POP POP JUMP JUMPDEST PUSH1 0x0 PUSH1 0x20 DUP3 ADD SWAP1 POP PUSH2 0x5F8E PUSH1 0x0 DUP4 ADD DUP5 PUSH2 0x48F6 JUMP JUMPDEST SWAP3 SWAP2 POP POP JUMP JUMPDEST PUSH1 0x0 PUSH1 0x20 DUP3 ADD SWAP1 POP DUP2 DUP2 SUB PUSH1 0x0 DUP4 ADD MSTORE PUSH2 0x5FAE DUP2 DUP5 PUSH2 0x49A4 JUMP JUMPDEST SWAP1 POP SWAP3 SWAP2 POP POP JUMP JUMPDEST PUSH1 0x0 PUSH1 0x20 DUP3 ADD SWAP1 POP DUP2 DUP2 SUB PUSH1 0x0 DUP4 ADD MSTORE PUSH2 0x5FCF DUP2 PUSH2 0x4A6C JUMP JUMPDEST SWAP1 POP SWAP2 SWAP1 POP JUMP JUMPDEST PUSH1 0x0 PUSH1 0x20 DUP3 ADD SWAP1 POP DUP2 DUP2 SUB PUSH1 0x0 DUP4 ADD MSTORE PUSH2 0x5FEF DUP2 PUSH2 0x4AD2 JUMP JUMPDEST SWAP1 POP SWAP2 SWAP1 POP JUMP JUMPDEST PUSH1 0x0 PUSH1 0x20 DUP3 ADD SWAP1 POP DUP2 DUP2 SUB PUSH1 0x0 DUP4 ADD MSTORE PUSH2 0x600F DUP2 PUSH2 0x4B38 JUMP JUMPDEST SWAP1 POP SWAP2 SWAP1 POP JUMP JUMPDEST PUSH1 0x0 PUSH1 0x20 DUP3 ADD SWAP1 POP DUP2 DUP2 SUB PUSH1 0x0 DUP4 ADD MSTORE PUSH2 0x602F DUP2 PUSH2 0x4B9E JUMP JUMPDEST SWAP1 POP SWAP2 SWAP1 POP JUMP JUMPDEST PUSH1 0x0 PUSH1 0x20 DUP3 ADD SWAP1 POP DUP2 DUP2 SUB PUSH1 0x0 DUP4 ADD MSTORE PUSH2 0x604F DUP2 PUSH2 0x4C6A JUMP JUMPDEST SWAP1 POP SWAP2 SWAP1 POP JUMP JUMPDEST PUSH1 0x0 PUSH1 0x20 DUP3 ADD SWAP1 POP DUP2 DUP2 SUB PUSH1 0x0 DUP4 ADD MSTORE PUSH2 0x606F DUP2 PUSH2 0x4D36 JUMP JUMPDEST SWAP1 POP SWAP2 SWAP1 POP JUMP JUMPDEST PUSH1 0x0 PUSH1 0x20 DUP3 ADD SWAP1 POP DUP2 DUP2 SUB PUSH1 0x0 DUP4 ADD MSTORE PUSH2 0x608F DUP2 PUSH2 0x4D9C JUMP JUMPDEST SWAP1 POP SWAP2 SWAP1 POP JUMP JUMPDEST PUSH1 0x0 PUSH1 0x20 DUP3 ADD SWAP1 POP DUP2 DUP2 SUB PUSH1 0x0 DUP4 ADD MSTORE PUSH2 0x60AF DUP2 PUSH2 0x4DDC JUMP JUMPDEST SWAP1 POP SWAP2 SWAP1 POP JUMP JUMPDEST PUSH1 0x0 PUSH1 0x20 DUP3 ADD SWAP1 POP DUP2 DUP2 SUB PUSH1 0x0 DUP4 ADD MSTORE PUSH2 0x60CF DUP2 PUSH2 0x4E42 JUMP JUMPDEST SWAP1 POP SWAP2 SWAP1 POP JUMP JUMPDEST PUSH1 0x0 PUSH1 0x20 DUP3 ADD SWAP1 POP DUP2 DUP2 SUB PUSH1 0x0 DUP4 ADD MSTORE PUSH2 0x60EF DUP2 PUSH2 0x4ECE JUMP JUMPDEST SWAP1 POP SWAP2 SWAP1 POP JUMP JUMPDEST PUSH1 0x0 PUSH1 0x20 DUP3 ADD SWAP1 POP DUP2 DUP2 SUB PUSH1 0x0 DUP4 ADD MSTORE PUSH2 0x610F DUP2 PUSH2 0x4F34 JUMP JUMPDEST SWAP1 POP SWAP2 SWAP1 POP JUMP JUMPDEST PUSH1 0x0 PUSH1 0x20 DUP3 ADD SWAP1 POP DUP2 DUP2 SUB PUSH1 0x0 DUP4 ADD MSTORE PUSH2 0x612F DUP2 PUSH2 0x4F9A JUMP JUMPDEST SWAP1 POP SWAP2 SWAP1 POP JUMP JUMPDEST PUSH1 0x0 PUSH1 0x20 DUP3 ADD SWAP1 POP DUP2 DUP2 SUB PUSH1 0x0 DUP4 ADD MSTORE PUSH2 0x614F DUP2 PUSH2 0x5000 JUMP JUMPDEST SWAP1 POP SWAP2 SWAP1 POP JUMP JUMPDEST PUSH1 0x0 PUSH1 0x20 DUP3 ADD SWAP1 POP DUP2 DUP2 SUB PUSH1 0x0 DUP4 ADD MSTORE PUSH2 0x616F DUP2 PUSH2 0x5066 JUMP JUMPDEST SWAP1 POP SWAP2 SWAP1 POP JUMP JUMPDEST PUSH1 0x0 PUSH1 0x20 DUP3 ADD SWAP1 POP DUP2 DUP2 SUB PUSH1 0x0 DUP4 ADD MSTORE PUSH2 0x618F DUP2 PUSH2 0x50CC JUMP JUMPDEST SWAP1 POP SWAP2 SWAP1 POP JUMP JUMPDEST PUSH1 0x0 PUSH1 0x20 DUP3 ADD SWAP1 POP DUP2 DUP2 SUB PUSH1 0x0 DUP4 ADD MSTORE PUSH2 0x61AF DUP2 PUSH2 0x5132 JUMP JUMPDEST SWAP1 POP SWAP2 SWAP1 POP JUMP JUMPDEST PUSH1 0x0 PUSH1 0x20 DUP3 ADD SWAP1 POP DUP2 DUP2 SUB PUSH1 0x0 DUP4 ADD MSTORE PUSH2 0x61CF DUP2 PUSH2 0x51BE JUMP JUMPDEST SWAP1 POP SWAP2 SWAP1 POP JUMP JUMPDEST PUSH1 0x0 PUSH1 0x20 DUP3 ADD SWAP1 POP DUP2 DUP2 SUB PUSH1 0x0 DUP4 ADD MSTORE PUSH2 0x61EF DUP2 PUSH2 0x5224 JUMP JUMPDEST SWAP1 POP SWAP2 SWAP1 POP JUMP JUMPDEST PUSH1 0x0 PUSH1 0x20 DUP3 ADD SWAP1 POP DUP2 DUP2 SUB PUSH1 0x0 DUP4 ADD MSTORE PUSH2 0x620F DUP2 PUSH2 0x528A JUMP JUMPDEST SWAP1 POP SWAP2 SWAP1 POP JUMP JUMPDEST PUSH1 0x0 PUSH1 0x20 DUP3 ADD SWAP1 POP DUP2 DUP2 SUB PUSH1 0x0 DUP4 ADD MSTORE PUSH2 0x622F DUP2 PUSH2 0x52F0 JUMP JUMPDEST SWAP1 POP SWAP2 SWAP1 POP JUMP JUMPDEST PUSH1 0x0 PUSH1 0x20 DUP3 ADD SWAP1 POP DUP2 DUP2 SUB PUSH1 0x0 DUP4 ADD MSTORE PUSH2 0x624F DUP2 PUSH2 0x5356 JUMP JUMPDEST SWAP1 POP SWAP2 SWAP1 POP JUMP JUMPDEST PUSH1 0x0 PUSH1 0x20 DUP3 ADD SWAP1 POP DUP2 DUP2 SUB PUSH1 0x0 DUP4 ADD MSTORE PUSH2 0x626F DUP2 PUSH2 0x53E2 JUMP JUMPDEST SWAP1 POP SWAP2 SWAP1 POP JUMP JUMPDEST PUSH1 0x0 PUSH1 0x20 DUP3 ADD SWAP1 POP DUP2 DUP2 SUB PUSH1 0x0 DUP4 ADD MSTORE PUSH2 0x628F DUP2 PUSH2 0x5448 JUMP JUMPDEST SWAP1 POP SWAP2 SWAP1 POP JUMP JUMPDEST PUSH1 0x0 PUSH1 0x20 DUP3 ADD SWAP1 POP DUP2 DUP2 SUB PUSH1 0x0 DUP4 ADD MSTORE PUSH2 0x62AF DUP2 PUSH2 0x5514 JUMP JUMPDEST SWAP1 POP SWAP2 SWAP1 POP JUMP JUMPDEST PUSH1 0x0 PUSH1 0x20 DUP3 ADD SWAP1 POP DUP2 DUP2 SUB PUSH1 0x0 DUP4 ADD MSTORE PUSH2 0x62CF DUP2 PUSH2 0x557A JUMP JUMPDEST SWAP1 POP SWAP2 SWAP1 POP JUMP JUMPDEST PUSH1 0x0 PUSH1 0x20 DUP3 ADD SWAP1 POP DUP2 DUP2 SUB PUSH1 0x0 DUP4 ADD MSTORE PUSH2 0x62EF DUP2 PUSH2 0x5606 JUMP JUMPDEST SWAP1 POP SWAP2 SWAP1 POP JUMP JUMPDEST PUSH1 0x0 PUSH1 0x20 DUP3 ADD SWAP1 POP DUP2 DUP2 SUB PUSH1 0x0 DUP4 ADD MSTORE PUSH2 0x630F DUP2 PUSH2 0x566C JUMP JUMPDEST SWAP1 POP SWAP2 SWAP1 POP JUMP JUMPDEST PUSH1 0x0 PUSH1 0x20 DUP3 ADD SWAP1 POP DUP2 DUP2 SUB PUSH1 0x0 DUP4 ADD MSTORE PUSH2 0x632F DUP2 PUSH2 0x56F8 JUMP JUMPDEST SWAP1 POP SWAP2 SWAP1 POP JUMP JUMPDEST PUSH1 0x0 PUSH1 0x20 DUP3 ADD SWAP1 POP DUP2 DUP2 SUB PUSH1 0x0 DUP4 ADD MSTORE PUSH2 0x634F DUP2 PUSH2 0x575E JUMP JUMPDEST SWAP1 POP SWAP2 SWAP1 POP JUMP JUMPDEST PUSH1 0x0 PUSH1 0x20 DUP3 ADD SWAP1 POP DUP2 DUP2 SUB PUSH1 0x0 DUP4 ADD MSTORE PUSH2 0x636F DUP2 PUSH2 0x57C4 JUMP JUMPDEST SWAP1 POP SWAP2 SWAP1 POP JUMP JUMPDEST PUSH1 0x0 PUSH1 0x20 DUP3 ADD SWAP1 POP DUP2 DUP2 SUB PUSH1 0x0 DUP4 ADD MSTORE PUSH2 0x638F DUP2 PUSH2 0x582A JUMP JUMPDEST SWAP1 POP SWAP2 SWAP1 POP JUMP JUMPDEST PUSH1 0x0 PUSH1 0x20 DUP3 ADD SWAP1 POP DUP2 DUP2 SUB PUSH1 0x0 DUP4 ADD MSTORE PUSH2 0x63AF DUP2 PUSH2 0x5890 JUMP JUMPDEST SWAP1 POP SWAP2 SWAP1 POP JUMP JUMPDEST PUSH1 0x0 PUSH1 0x20 DUP3 ADD SWAP1 POP DUP2 DUP2 SUB PUSH1 0x0 DUP4 ADD MSTORE PUSH2 0x63CF DUP2 PUSH2 0x5910 JUMP JUMPDEST SWAP1 POP SWAP2 SWAP1 POP JUMP JUMPDEST PUSH1 0x0 PUSH1 0x20 DUP3 ADD SWAP1 POP DUP2 DUP2 SUB PUSH1 0x0 DUP4 ADD MSTORE PUSH2 0x63EF DUP2 PUSH2 0x5950 JUMP JUMPDEST SWAP1 POP SWAP2 SWAP1 POP JUMP JUMPDEST PUSH1 0x0 PUSH1 0x20 DUP3 ADD SWAP1 POP DUP2 DUP2 SUB PUSH1 0x0 DUP4 ADD MSTORE PUSH2 0x640F DUP2 PUSH2 0x59B6 JUMP JUMPDEST SWAP1 POP SWAP2 SWAP1 POP JUMP JUMPDEST PUSH1 0x0 PUSH1 0x20 DUP3 ADD SWAP1 POP DUP2 DUP2 SUB PUSH1 0x0 DUP4 ADD MSTORE PUSH2 0x642F DUP2 PUSH2 0x5A42 JUMP JUMPDEST SWAP1 POP SWAP2 SWAP1 POP JUMP JUMPDEST PUSH1 0x0 PUSH1 0x20 DUP3 ADD SWAP1 POP DUP2 DUP2 SUB PUSH1 0x0 DUP4 ADD MSTORE PUSH2 0x644F DUP2 PUSH2 0x5AA8 JUMP JUMPDEST SWAP1 POP SWAP2 SWAP1 POP JUMP JUMPDEST PUSH1 0x0 PUSH1 0x20 DUP3 ADD SWAP1 POP DUP2 DUP2 SUB PUSH1 0x0 DUP4 ADD MSTORE PUSH2 0x646F DUP2 PUSH2 0x5B0E JUMP JUMPDEST SWAP1 POP SWAP2 SWAP1 POP JUMP JUMPDEST PUSH1 0x0 PUSH1 0x20 DUP3 ADD SWAP1 POP DUP2 DUP2 SUB PUSH1 0x0 DUP4 ADD MSTORE PUSH2 0x648F DUP2 PUSH2 0x5B74 JUMP JUMPDEST SWAP1 POP SWAP2 SWAP1 POP JUMP JUMPDEST PUSH1 0x0 PUSH1 0x60 DUP3 ADD SWAP1 POP PUSH2 0x64AB PUSH1 0x0 DUP4 ADD DUP5 PUSH2 0x5BB4 JUMP JUMPDEST SWAP3 SWAP2 POP POP JUMP JUMPDEST PUSH1 0x0 PUSH1 0x20 DUP3 ADD SWAP1 POP PUSH2 0x64C6 PUSH1 0x0 DUP4 ADD DUP5 PUSH2 0x5C05 JUMP JUMPDEST SWAP3 SWAP2 POP POP JUMP JUMPDEST PUSH1 0x0 PUSH2 0x140 DUP3 ADD SWAP1 POP PUSH2 0x64E2 PUSH1 0x0 DUP4 ADD DUP14 PUSH2 0x5C05 JUMP JUMPDEST PUSH2 0x64EF PUSH1 0x20 DUP4 ADD DUP13 PUSH2 0x45B1 JUMP JUMPDEST DUP2 DUP2 SUB PUSH1 0x40 DUP4 ADD MSTORE PUSH2 0x6501 DUP2 DUP12 PUSH2 0x45DE JUMP JUMPDEST SWAP1 POP DUP2 DUP2 SUB PUSH1 0x60 DUP4 ADD MSTORE PUSH2 0x6515 DUP2 DUP11 PUSH2 0x4726 JUMP JUMPDEST SWAP1 POP DUP2 DUP2 SUB PUSH1 0x80 DUP4 ADD MSTORE PUSH2 0x6529 DUP2 DUP10 PUSH2 0x46B1 JUMP JUMPDEST SWAP1 POP DUP2 DUP2 SUB PUSH1 0xA0 DUP4 ADD MSTORE PUSH2 0x653D DUP2 DUP9 PUSH2 0x463C JUMP JUMPDEST SWAP1 POP PUSH2 0x654C PUSH1 0xC0 DUP4 ADD DUP8 PUSH2 0x5C05 JUMP JUMPDEST PUSH2 0x6559 PUSH1 0xE0 DUP4 ADD DUP7 PUSH2 0x5C05 JUMP JUMPDEST PUSH2 0x6567 PUSH2 0x100 DUP4 ADD DUP6 PUSH2 0x5C05 JUMP JUMPDEST DUP2 DUP2 SUB PUSH2 0x120 DUP4 ADD MSTORE PUSH2 0x657A DUP2 DUP5 PUSH2 0x4932 JUMP JUMPDEST SWAP1 POP SWAP12 SWAP11 POP POP POP POP POP POP POP POP POP POP POP JUMP JUMPDEST PUSH1 0x0 PUSH2 0x180 DUP3 ADD SWAP1 POP PUSH2 0x65A1 PUSH1 0x0 DUP4 ADD DUP16 PUSH2 0x5C05 JUMP JUMPDEST PUSH2 0x65AE PUSH1 0x20 DUP4 ADD DUP15 PUSH2 0x45CF JUMP JUMPDEST PUSH2 0x65BB PUSH1 0x40 DUP4 ADD DUP14 PUSH2 0x5C05 JUMP JUMPDEST PUSH2 0x65C8 PUSH1 0x60 DUP4 ADD DUP13 PUSH2 0x5C05 JUMP JUMPDEST PUSH2 0x65D5 PUSH1 0x80 DUP4 ADD DUP12 PUSH2 0x5C05 JUMP JUMPDEST PUSH2 0x65E2 PUSH1 0xA0 DUP4 ADD DUP11 PUSH2 0x5C05 JUMP JUMPDEST PUSH2 0x65EF PUSH1 0xC0 DUP4 ADD DUP10 PUSH2 0x5C05 JUMP JUMPDEST PUSH2 0x65FC PUSH1 0xE0 DUP4 ADD DUP9 PUSH2 0x5C05 JUMP JUMPDEST PUSH2 0x660A PUSH2 0x100 DUP4 ADD DUP8 PUSH2 0x5C05 JUMP JUMPDEST PUSH2 0x6618 PUSH2 0x120 DUP4 ADD DUP7 PUSH2 0x5C05 JUMP JUMPDEST PUSH2 0x6626 PUSH2 0x140 DUP4 ADD DUP6 PUSH2 0x4793 JUMP JUMPDEST PUSH2 0x6634 PUSH2 0x160 DUP4 ADD DUP5 PUSH2 0x4793 JUMP JUMPDEST SWAP14 SWAP13 POP POP POP POP POP POP POP POP POP POP POP POP POP JUMP JUMPDEST PUSH1 0x0 PUSH1 0x40 DUP3 ADD SWAP1 POP PUSH2 0x665A PUSH1 0x0 DUP4 ADD DUP6 PUSH2 0x5C05 JUMP JUMPDEST PUSH2 0x6667 PUSH1 0x20 DUP4 ADD DUP5 PUSH2 0x5C05 JUMP JUMPDEST SWAP4 SWAP3 POP POP POP JUMP JUMPDEST PUSH1 0x0 PUSH1 0x80 DUP3 ADD SWAP1 POP PUSH2 0x6683 PUSH1 0x0 DUP4 ADD DUP9 PUSH2 0x5C05 JUMP JUMPDEST PUSH2 0x6690 PUSH1 0x20 DUP4 ADD DUP8 PUSH2 0x5C23 JUMP JUMPDEST PUSH2 0x669D PUSH1 0x40 DUP4 ADD DUP7 PUSH2 0x5C05 JUMP JUMPDEST DUP2 DUP2 SUB PUSH1 0x60 DUP4 ADD MSTORE PUSH2 0x66B0 DUP2 DUP5 DUP7 PUSH2 0x4905 JUMP JUMPDEST SWAP1 POP SWAP7 SWAP6 POP POP POP POP POP POP JUMP JUMPDEST PUSH1 0x0 PUSH1 0x80 DUP3 ADD SWAP1 POP PUSH2 0x66D1 PUSH1 0x0 DUP4 ADD DUP7 PUSH2 0x5C05 JUMP JUMPDEST PUSH2 0x66DE PUSH1 0x20 DUP4 ADD DUP6 PUSH2 0x5C23 JUMP JUMPDEST PUSH2 0x66EB PUSH1 0x40 DUP4 ADD DUP5 PUSH2 0x5C05 JUMP JUMPDEST DUP2 DUP2 SUB PUSH1 0x60 DUP4 ADD MSTORE PUSH2 0x66FC DUP2 PUSH2 0x58F6 JUMP JUMPDEST SWAP1 POP SWAP5 SWAP4 POP POP POP POP JUMP JUMPDEST PUSH1 0x0 PUSH1 0x40 MLOAD SWAP1 POP DUP2 DUP2 ADD DUP2 DUP2 LT PUSH8 0xFFFFFFFFFFFFFFFF DUP3 GT OR ISZERO PUSH2 0x6729 JUMPI PUSH1 0x0 DUP1 REVERT JUMPDEST DUP1 PUSH1 0x40 MSTORE POP SWAP2 SWAP1 POP JUMP JUMPDEST PUSH1 0x0 PUSH8 0xFFFFFFFFFFFFFFFF DUP3 GT ISZERO PUSH2 0x674A JUMPI PUSH1 0x0 DUP1 REVERT JUMPDEST PUSH1 0x20 DUP3 MUL SWAP1 POP PUSH1 0x20 DUP2 ADD SWAP1 POP SWAP2 SWAP1 POP JUMP JUMPDEST PUSH1 0x0 PUSH8 0xFFFFFFFFFFFFFFFF DUP3 GT ISZERO PUSH2 0x6772 JUMPI PUSH1 0x0 DUP1 REVERT JUMPDEST PUSH1 0x20 DUP3 MUL SWAP1 POP PUSH1 0x20 DUP2 ADD SWAP1 POP SWAP2 SWAP1 POP JUMP JUMPDEST PUSH1 0x0 PUSH8 0xFFFFFFFFFFFFFFFF DUP3 GT ISZERO PUSH2 0x679A JUMPI PUSH1 0x0 DUP1 REVERT JUMPDEST PUSH1 0x20 DUP3 MUL SWAP1 POP PUSH1 0x20 DUP2 ADD SWAP1 POP SWAP2 SWAP1 POP JUMP JUMPDEST PUSH1 0x0 PUSH8 0xFFFFFFFFFFFFFFFF DUP3 GT ISZERO PUSH2 0x67C2 JUMPI PUSH1 0x0 DUP1 REVERT JUMPDEST PUSH1 0x20 DUP3 MUL SWAP1 POP PUSH1 0x20 DUP2 ADD SWAP1 POP SWAP2 SWAP1 POP JUMP JUMPDEST PUSH1 0x0 PUSH8 0xFFFFFFFFFFFFFFFF DUP3 GT ISZERO PUSH2 0x67EA JUMPI PUSH1 0x0 DUP1 REVERT JUMPDEST PUSH1 0x1F NOT PUSH1 0x1F DUP4 ADD AND SWAP1 POP PUSH1 0x20 DUP2 ADD SWAP1 POP SWAP2 SWAP1 POP JUMP JUMPDEST PUSH1 0x0 PUSH8 0xFFFFFFFFFFFFFFFF DUP3 GT ISZERO PUSH2 0x6816 JUMPI PUSH1 0x0 DUP1 REVERT JUMPDEST PUSH1 0x1F NOT PUSH1 0x1F DUP4 ADD AND SWAP1 POP PUSH1 0x20 DUP2 ADD SWAP1 POP SWAP2 SWAP1 POP JUMP JUMPDEST PUSH1 0x0 PUSH8 0xFFFFFFFFFFFFFFFF DUP3 GT ISZERO PUSH2 0x6842 JUMPI PUSH1 0x0 DUP1 REVERT JUMPDEST PUSH1 0x1F NOT PUSH1 0x1F DUP4 ADD AND SWAP1 POP PUSH1 0x20 DUP2 ADD SWAP1 POP SWAP2 SWAP1 POP JUMP JUMPDEST PUSH1 0x0 PUSH8 0xFFFFFFFFFFFFFFFF DUP3 GT ISZERO PUSH2 0x686E JUMPI PUSH1 0x0 DUP1 REVERT JUMPDEST PUSH1 0x1F NOT PUSH1 0x1F DUP4 ADD AND SWAP1 POP PUSH1 0x20 DUP2 ADD SWAP1 POP SWAP2 SWAP1 POP JUMP JUMPDEST PUSH1 0x0 DUP2 SWAP1 POP PUSH1 0x20 DUP3 ADD SWAP1 POP SWAP2 SWAP1 POP JUMP JUMPDEST PUSH1 0x0 DUP2 SWAP1 POP PUSH1 0x20 DUP3 ADD SWAP1 POP SWAP2 SWAP1 POP JUMP JUMPDEST PUSH1 0x0 DUP2 SWAP1 POP PUSH1 0x20 DUP3 ADD SWAP1 POP SWAP2 SWAP1 POP JUMP JUMPDEST PUSH1 0x0 DUP2 SWAP1 POP PUSH1 0x20 DUP3 ADD SWAP1 POP SWAP2 SWAP1 POP JUMP JUMPDEST PUSH1 0x0 DUP2 SWAP1 POP DUP2 PUSH1 0x0 MSTORE PUSH1 0x20 PUSH1 0x0 KECCAK256 SWAP1 POP SWAP2 SWAP1 POP JUMP JUMPDEST PUSH1 0x0 DUP2 SWAP1 POP DUP2 PUSH1 0x0 MSTORE PUSH1 0x20 PUSH1 0x0 KECCAK256 SWAP1 POP SWAP2 SWAP1 POP JUMP JUMPDEST PUSH1 0x0 DUP2 MLOAD SWAP1 POP SWAP2 SWAP1 POP JUMP JUMPDEST PUSH1 0x0 DUP2 MLOAD SWAP1 POP SWAP2 SWAP1 POP JUMP JUMPDEST PUSH1 0x0 DUP2 MLOAD SWAP1 POP SWAP2 SWAP1 POP JUMP JUMPDEST PUSH1 0x0 DUP2 MLOAD SWAP1 POP SWAP2 SWAP1 POP JUMP JUMPDEST PUSH1 0x0 DUP2 MLOAD SWAP1 POP SWAP2 SWAP1 POP JUMP JUMPDEST PUSH1 0x0 DUP2 MLOAD SWAP1 POP SWAP2 SWAP1 POP JUMP JUMPDEST PUSH1 0x0 DUP2 MLOAD SWAP1 POP SWAP2 SWAP1 POP JUMP JUMPDEST PUSH1 0x0 DUP2 MLOAD SWAP1 POP SWAP2 SWAP1 POP JUMP JUMPDEST PUSH1 0x0 PUSH1 0x20 DUP3 ADD SWAP1 POP SWAP2 SWAP1 POP JUMP JUMPDEST PUSH1 0x0 PUSH1 0x20 DUP3 ADD SWAP1 POP SWAP2 SWAP1 POP JUMP JUMPDEST PUSH1 0x0 PUSH1 0x20 DUP3 ADD SWAP1 POP SWAP2 SWAP1 POP JUMP JUMPDEST PUSH1 0x0 PUSH1 0x20 DUP3 ADD SWAP1 POP SWAP2 SWAP1 POP JUMP JUMPDEST PUSH1 0x0 DUP3 DUP3 MSTORE PUSH1 0x20 DUP3 ADD SWAP1 POP SWAP3 SWAP2 POP POP JUMP JUMPDEST PUSH1 0x0 DUP3 DUP3 MSTORE PUSH1 0x20 DUP3 ADD SWAP1 POP SWAP3 SWAP2 POP POP JUMP JUMPDEST PUSH1 0x0 DUP3 DUP3 MSTORE PUSH1 0x20 DUP3 ADD SWAP1 POP SWAP3 SWAP2 POP POP JUMP JUMPDEST PUSH1 0x0 DUP3 DUP3 MSTORE PUSH1 0x20 DUP3 ADD SWAP1 POP SWAP3 SWAP2 POP POP JUMP JUMPDEST PUSH1 0x0 DUP3 DUP3 MSTORE PUSH1 0x20 DUP3 ADD SWAP1 POP SWAP3 SWAP2 POP POP JUMP JUMPDEST PUSH1 0x0 DUP3 DUP3 MSTORE PUSH1 0x20 DUP3 ADD SWAP1 POP SWAP3 SWAP2 POP POP JUMP JUMPDEST PUSH1 0x0 DUP3 DUP3 MSTORE PUSH1 0x20 DUP3 ADD SWAP1 POP SWAP3 SWAP2 POP POP JUMP JUMPDEST PUSH1 0x0 DUP3 DUP3 MSTORE PUSH1 0x20 DUP3 ADD SWAP1 POP SWAP3 SWAP2 POP POP JUMP JUMPDEST PUSH1 0x0 DUP2 SWAP1 POP SWAP3 SWAP2 POP POP JUMP JUMPDEST PUSH1 0x0 PUSH2 0x6A17 DUP3 PUSH2 0x6A47 JUMP JUMPDEST SWAP1 POP SWAP2 SWAP1 POP JUMP JUMPDEST PUSH1 0x0 DUP2 ISZERO ISZERO SWAP1 POP SWAP2 SWAP1 POP JUMP JUMPDEST PUSH1 0x0 DUP2 SWAP1 POP SWAP2 SWAP1 POP JUMP JUMPDEST PUSH1 0x0 DUP2 SWAP1 POP PUSH2 0x6A42 DUP3 PUSH2 0x6B8F JUMP JUMPDEST SWAP2 SWAP1 POP JUMP JUMPDEST PUSH1 0x0 PUSH20 0xFFFFFFFFFFFFFFFFFFFFFFFFFFFFFFFFFFFFFFFF DUP3 AND SWAP1 POP SWAP2 SWAP1 POP JUMP JUMPDEST PUSH1 0x0 DUP2 SWAP1 POP SWAP2 SWAP1 POP JUMP JUMPDEST PUSH1 0x0 PUSH1 0xFF DUP3 AND SWAP1 POP SWAP2 SWAP1 POP JUMP JUMPDEST PUSH1 0x0 PUSH2 0x6A89 DUP3 PUSH2 0x6B0E JUMP JUMPDEST SWAP1 POP SWAP2 SWAP1 POP JUMP JUMPDEST PUSH1 0x0 PUSH2 0x6A9B DUP3 PUSH2 0x6AA2 JUMP JUMPDEST SWAP1 POP SWAP2 SWAP1 POP JUMP JUMPDEST PUSH1 0x0 PUSH2 0x6AAD DUP3 PUSH2 0x6A47 JUMP JUMPDEST SWAP1 POP SWAP2 SWAP1 POP JUMP JUMPDEST PUSH1 0x0 PUSH2 0x6ABF DUP3 PUSH2 0x6AC6 JUMP JUMPDEST SWAP1 POP SWAP2 SWAP1 POP JUMP JUMPDEST PUSH1 0x0 PUSH2 0x6AD1 DUP3 PUSH2 0x6A47 JUMP JUMPDEST SWAP1 POP SWAP2 SWAP1 POP JUMP JUMPDEST PUSH1 0x0 PUSH2 0x6AE3 DUP3 PUSH2 0x6AEA JUMP JUMPDEST SWAP1 POP SWAP2 SWAP1 POP JUMP JUMPDEST PUSH1 0x0 PUSH2 0x6AF5 DUP3 PUSH2 0x6A47 JUMP JUMPDEST SWAP1 POP SWAP2 SWAP1 POP JUMP JUMPDEST PUSH1 0x0 PUSH2 0x6B07 DUP3 PUSH2 0x6A34 JUMP JUMPDEST SWAP1 POP SWAP2 SWAP1 POP JUMP JUMPDEST PUSH1 0x0 PUSH2 0x6B19 DUP3 PUSH2 0x6B20 JUMP JUMPDEST SWAP1 POP SWAP2 SWAP1 POP JUMP JUMPDEST PUSH1 0x0 PUSH2 0x6B2B DUP3 PUSH2 0x6A47 JUMP JUMPDEST SWAP1 POP SWAP2 SWAP1 POP JUMP JUMPDEST DUP3 DUP2 DUP4 CALLDATACOPY PUSH1 0x0 DUP4 DUP4 ADD MSTORE POP POP POP JUMP JUMPDEST PUSH1 0x0 JUMPDEST DUP4 DUP2 LT ISZERO PUSH2 0x6B5F JUMPI DUP1 DUP3 ADD MLOAD DUP2 DUP5 ADD MSTORE PUSH1 0x20 DUP2 ADD SWAP1 POP PUSH2 0x6B44 JUMP JUMPDEST DUP4 DUP2 GT ISZERO PUSH2 0x6B6E JUMPI PUSH1 0x0 DUP5 DUP5 ADD MSTORE JUMPDEST POP POP POP POP JUMP JUMPDEST PUSH1 0x0 DUP2 SWAP1 POP SWAP2 SWAP1 POP JUMP JUMPDEST PUSH1 0x0 PUSH1 0x1F NOT PUSH1 0x1F DUP4 ADD AND SWAP1 POP SWAP2 SWAP1 POP JUMP JUMPDEST PUSH1 0x8 DUP2 LT PUSH2 0x6B99 JUMPI INVALID JUMPDEST POP JUMP JUMPDEST PUSH2 0x6BA5 DUP2 PUSH2 0x6A0C JUMP JUMPDEST DUP2 EQ PUSH2 0x6BB0 JUMPI PUSH1 0x0 DUP1 REVERT JUMPDEST POP JUMP JUMPDEST PUSH2 0x6BBC DUP2 PUSH2 0x6A1E JUMP JUMPDEST DUP2 EQ PUSH2 0x6BC7 JUMPI PUSH1 0x0 DUP1 REVERT JUMPDEST POP JUMP JUMPDEST PUSH2 0x6BD3 DUP2 PUSH2 0x6A2A JUMP JUMPDEST DUP2 EQ PUSH2 0x6BDE JUMPI PUSH1 0x0 DUP1 REVERT JUMPDEST POP JUMP JUMPDEST PUSH2 0x6BEA DUP2 PUSH2 0x6A67 JUMP JUMPDEST DUP2 EQ PUSH2 0x6BF5 JUMPI PUSH1 0x0 DUP1 REVERT JUMPDEST POP JUMP JUMPDEST PUSH2 0x6C01 DUP2 PUSH2 0x6A71 JUMP JUMPDEST DUP2 EQ PUSH2 0x6C0C JUMPI PUSH1 0x0 DUP1 REVERT JUMPDEST POP JUMP INVALID LOG3 PUSH6 0x627A7A723158 KECCAK256 SWAP11 CREATE 0x4A 0xA5 0xB8 0x21 0xC4 0x49 0xA8 0xAC 0x2C 0xD0 DUP6 PUSH20 0x308A5B0B7367B3679D477710BC0065B891CE6C65 PUSH25 0x706572696D656E74616CF564736F6C63430005100040000000 "
        },
        "methodIdentifiers": {
          "BALLOT_TYPEHASH()": "deaaa7cc",
          "DOMAIN_TYPEHASH()": "20606b70",
          "MAX_PROPOSAL_THRESHOLDPERCENT()": "891df873",
          "MAX_VOTING_DELAY()": "b1126263",
          "MAX_VOTING_PERIOD()": "a64e024a",
          "MIN_PROPOSAL_THRESHOLDPERCENT()": "c3b98d07",
          "MIN_VOTING_DELAY()": "e48083fe",
          "MIN_VOTING_PERIOD()": "215809ca",
          "_acceptAdmin()": "e9c714f2",
          "_initiate(address)": "f9d28b80",
          "_setPendingAdmin(address)": "b71d1a0c",
          "_setProposalThreshold(uint256)": "17ba1b8b",
          "_setVotingDelay(uint256)": "1dfb1b5a",
          "_setVotingPeriod(uint256)": "0ea2d98c",
          "admin()": "f851a440",
          "cancel(uint256)": "40e58ee5",
          "castVote(uint256,uint8)": "56781388",
          "castVoteBySig(uint256,uint8,uint8,bytes32,bytes32)": "3bccf4fd",
          "castVoteWithReason(uint256,uint8,string)": "7b3c71d3",
          "execute(uint256)": "fe0d94c1",
          "gOHM()": "0cd30585",
          "getActions(uint256)": "328dd982",
          "getReceipt(uint256,address)": "e23a9a52",
          "getVotesFromPercentOfsOHMSupply(uint256)": "2811b07e",
          "implementation()": "5c60da1b",
          "initialProposalId()": "fc4eee42",
          "initialize(address,address,address,uint256,uint256,uint256)": "728cdbca",
          "latestProposalIds(address)": "17977c61",
          "name()": "06fdde03",
          "pendingAdmin()": "26782247",
          "proposalCount()": "da35c664",
          "proposalMaxOperations()": "7bdbe4d0",
          "proposalThreshold()": "b58131b0",
          "proposals(uint256)": "013cf08b",
          "propose(address[],uint256[],string[],bytes[],string)": "da95691a",
          "queue(uint256)": "ddf0b009",
          "quorumPercent()": "f81cbd26",
          "sOHM()": "15079925",
          "state(uint256)": "3e4f49e6",
          "timelock()": "d33219b4",
          "votingDelay()": "3932abb1",
          "votingPeriod()": "02a251a3"
        }
      }
    }
  }
}